{
  "address": "0x4Aa389AA6fD304782C93376989541c14BE0701A1",
  "abi": [
    {
      "inputs": [
        {
          "internalType": "address",
          "name": "_usdt",
          "type": "address"
        },
        {
          "internalType": "address",
          "name": "_wancash",
          "type": "address"
        },
        {
          "internalType": "address",
          "name": "_owner",
          "type": "address"
        }
      ],
      "stateMutability": "nonpayable",
      "type": "constructor"
    },
    {
      "inputs": [
        {
          "internalType": "address",
          "name": "owner",
          "type": "address"
        }
      ],
      "name": "OwnableInvalidOwner",
      "type": "error"
    },
    {
      "inputs": [
        {
          "internalType": "address",
          "name": "account",
          "type": "address"
        }
      ],
      "name": "OwnableUnauthorizedAccount",
      "type": "error"
    },
    {
      "inputs": [],
      "name": "ReentrancyGuardReentrantCall",
      "type": "error"
    },
    {
      "inputs": [
        {
          "internalType": "address",
          "name": "token",
          "type": "address"
        }
      ],
      "name": "SafeERC20FailedOperation",
      "type": "error"
    },
    {
      "anonymous": false,
      "inputs": [
        {
          "indexed": true,
          "internalType": "uint256",
          "name": "stakeId",
          "type": "uint256"
        },
        {
          "indexed": false,
          "internalType": "uint256",
          "name": "toBuyer",
          "type": "uint256"
        },
        {
          "indexed": false,
          "internalType": "uint256",
          "name": "toPool",
          "type": "uint256"
        },
        {
          "indexed": false,
          "internalType": "uint256",
          "name": "toReserve",
          "type": "uint256"
        }
      ],
      "name": "AutoSplitExecuted",
      "type": "event"
    },
    {
      "anonymous": false,
      "inputs": [
        {
          "indexed": true,
          "internalType": "uint256",
          "name": "stakeId",
          "type": "uint256"
        },
        {
          "indexed": true,
          "internalType": "address",
          "name": "user",
          "type": "address"
        },
        {
          "indexed": false,
          "internalType": "uint256",
          "name": "usdtToUser",
          "type": "uint256"
        },
        {
          "indexed": false,
          "internalType": "uint256",
          "name": "wancToUser",
          "type": "uint256"
        },
        {
          "indexed": true,
          "internalType": "address",
          "name": "referrer",
          "type": "address"
        },
        {
          "indexed": false,
          "internalType": "uint256",
          "name": "usdtToRef",
          "type": "uint256"
        },
        {
          "indexed": false,
          "internalType": "uint256",
          "name": "wancToRef",
          "type": "uint256"
        }
      ],
      "name": "Claimed",
      "type": "event"
    },
    {
      "anonymous": false,
      "inputs": [
        {
          "indexed": true,
          "internalType": "address",
          "name": "token",
          "type": "address"
        },
        {
          "indexed": true,
          "internalType": "address",
          "name": "to",
          "type": "address"
        },
        {
          "indexed": false,
          "internalType": "uint256",
          "name": "amount",
          "type": "uint256"
        }
      ],
      "name": "EmergencyWithdraw",
      "type": "event"
    },
    {
      "anonymous": false,
      "inputs": [
        {
          "indexed": true,
          "internalType": "address",
          "name": "previousOwner",
          "type": "address"
        },
        {
          "indexed": true,
          "internalType": "address",
          "name": "newOwner",
          "type": "address"
        }
      ],
      "name": "OwnershipTransferred",
      "type": "event"
    },
    {
      "anonymous": false,
      "inputs": [
        {
          "indexed": false,
          "internalType": "bool",
          "name": "enabled",
          "type": "bool"
        }
      ],
      "name": "SetAutoSplit",
      "type": "event"
    },
    {
      "anonymous": false,
      "inputs": [
        {
          "indexed": false,
          "internalType": "address",
          "name": "poolWallet",
          "type": "address"
        },
        {
          "indexed": false,
          "internalType": "address",
          "name": "wancashBuyer",
          "type": "address"
        }
      ],
      "name": "SetWallets",
      "type": "event"
    },
    {
      "anonymous": false,
      "inputs": [
        {
          "indexed": true,
          "internalType": "uint256",
          "name": "stakeId",
          "type": "uint256"
        },
        {
          "indexed": true,
          "internalType": "address",
          "name": "user",
          "type": "address"
        },
        {
          "indexed": false,
          "internalType": "uint256",
          "name": "amount",
          "type": "uint256"
        },
        {
          "indexed": false,
          "internalType": "uint256",
          "name": "duration",
          "type": "uint256"
        },
        {
          "indexed": false,
          "internalType": "uint256",
          "name": "aprBps",
          "type": "uint256"
        },
        {
          "indexed": true,
          "internalType": "address",
          "name": "referrer",
          "type": "address"
        }
      ],
      "name": "Staked",
      "type": "event"
    },
    {
      "anonymous": false,
      "inputs": [
        {
          "indexed": true,
          "internalType": "address",
          "name": "user",
          "type": "address"
        }
      ],
      "name": "UplineEligibilityGained",
      "type": "event"
    },
    {
      "anonymous": false,
      "inputs": [
        {
          "indexed": true,
          "internalType": "uint256",
          "name": "stakeId",
          "type": "uint256"
        },
        {
          "indexed": true,
          "internalType": "address",
          "name": "user",
          "type": "address"
        },
        {
          "indexed": false,
          "internalType": "uint256",
          "name": "amount",
          "type": "uint256"
        }
      ],
      "name": "WithdrawnPrincipal",
      "type": "event"
    },
    {
      "inputs": [],
      "name": "BPS_DENOM",
      "outputs": [
        {
          "internalType": "uint256",
          "name": "",
          "type": "uint256"
        }
      ],
      "stateMutability": "view",
      "type": "function"
    },
    {
      "inputs": [],
      "name": "UPLINE_FEE_BPS",
      "outputs": [
        {
          "internalType": "uint256",
          "name": "",
          "type": "uint256"
        }
      ],
      "stateMutability": "view",
      "type": "function"
    },
    {
      "inputs": [],
      "name": "USDT",
      "outputs": [
        {
          "internalType": "contract IERC20",
          "name": "",
          "type": "address"
        }
      ],
      "stateMutability": "view",
      "type": "function"
    },
    {
      "inputs": [],
      "name": "WANCASH",
      "outputs": [
        {
          "internalType": "contract IERC20",
          "name": "",
          "type": "address"
        }
      ],
      "stateMutability": "view",
      "type": "function"
    },
    {
      "inputs": [
        {
          "internalType": "uint256",
          "name": "",
          "type": "uint256"
        }
      ],
      "name": "aprBpsOptions",
      "outputs": [
        {
          "internalType": "uint256",
          "name": "",
          "type": "uint256"
        }
      ],
      "stateMutability": "view",
      "type": "function"
    },
    {
      "inputs": [],
      "name": "autoSplit",
      "outputs": [
        {
          "internalType": "bool",
          "name": "",
          "type": "bool"
        }
      ],
      "stateMutability": "view",
      "type": "function"
    },
    {
      "inputs": [
        {
          "internalType": "uint256",
          "name": "stakeId",
          "type": "uint256"
        }
      ],
      "name": "claim",
      "outputs": [],
      "stateMutability": "nonpayable",
      "type": "function"
    },
    {
      "inputs": [
        {
          "internalType": "address",
          "name": "",
          "type": "address"
        }
      ],
      "name": "eligibleUpline",
      "outputs": [
        {
          "internalType": "bool",
          "name": "",
          "type": "bool"
        }
      ],
      "stateMutability": "view",
      "type": "function"
    },
    {
      "inputs": [
        {
          "internalType": "address",
          "name": "token",
          "type": "address"
        },
        {
          "internalType": "address",
          "name": "to",
          "type": "address"
        },
        {
          "internalType": "uint256",
          "name": "amount",
          "type": "uint256"
        }
      ],
      "name": "emergencyWithdrawToken",
      "outputs": [],
      "stateMutability": "nonpayable",
      "type": "function"
    },
    {
      "inputs": [
        {
          "internalType": "uint256",
          "name": "stakeId",
          "type": "uint256"
        }
      ],
      "name": "endTimeOf",
      "outputs": [
        {
          "internalType": "uint256",
          "name": "",
          "type": "uint256"
        }
      ],
      "stateMutability": "view",
      "type": "function"
    },
    {
      "inputs": [
        {
          "internalType": "uint256",
          "name": "duration",
          "type": "uint256"
        }
      ],
      "name": "getAprBpsForDuration",
      "outputs": [
        {
          "internalType": "uint256",
          "name": "aprBps",
          "type": "uint256"
        }
      ],
      "stateMutability": "view",
      "type": "function"
    },
    {
      "inputs": [
        {
          "internalType": "address",
          "name": "user",
          "type": "address"
        }
      ],
      "name": "getUserStakes",
      "outputs": [
        {
          "internalType": "uint256[]",
          "name": "",
          "type": "uint256[]"
        }
      ],
      "stateMutability": "view",
      "type": "function"
    },
    {
      "inputs": [
        {
          "internalType": "uint256",
          "name": "",
          "type": "uint256"
        }
      ],
      "name": "lockOptions",
      "outputs": [
        {
          "internalType": "uint256",
          "name": "",
          "type": "uint256"
        }
      ],
      "stateMutability": "view",
      "type": "function"
    },
    {
      "inputs": [],
      "name": "lockOptionsAll",
      "outputs": [
        {
          "internalType": "uint256[]",
          "name": "",
          "type": "uint256[]"
        },
        {
          "internalType": "uint256[]",
          "name": "",
          "type": "uint256[]"
        }
      ],
      "stateMutability": "view",
      "type": "function"
    },
    {
      "inputs": [],
      "name": "minStake",
      "outputs": [
        {
          "internalType": "uint256",
          "name": "",
          "type": "uint256"
        }
      ],
      "stateMutability": "view",
      "type": "function"
    },
    {
      "inputs": [],
      "name": "nextStakeId",
      "outputs": [
        {
          "internalType": "uint256",
          "name": "",
          "type": "uint256"
        }
      ],
      "stateMutability": "view",
      "type": "function"
    },
    {
      "inputs": [],
      "name": "owner",
      "outputs": [
        {
          "internalType": "address",
          "name": "",
          "type": "address"
        }
      ],
      "stateMutability": "view",
      "type": "function"
    },
    {
      "inputs": [
        {
          "internalType": "uint256",
          "name": "stakeId",
          "type": "uint256"
        }
      ],
      "name": "pendingRewards",
      "outputs": [
        {
          "internalType": "uint256",
          "name": "usdtReward",
          "type": "uint256"
        },
        {
          "internalType": "uint256",
          "name": "wancReward",
          "type": "uint256"
        },
        {
          "internalType": "uint256",
          "name": "sisaLock",
          "type": "uint256"
        }
      ],
      "stateMutability": "view",
      "type": "function"
    },
    {
      "inputs": [],
      "name": "poolWallet",
      "outputs": [
        {
          "internalType": "address",
          "name": "",
          "type": "address"
        }
      ],
      "stateMutability": "view",
      "type": "function"
    },
    {
      "inputs": [],
      "name": "renounceOwnership",
      "outputs": [],
      "stateMutability": "nonpayable",
      "type": "function"
    },
    {
      "inputs": [
        {
          "internalType": "bool",
          "name": "_enabled",
          "type": "bool"
        }
      ],
      "name": "setAutoSplit",
      "outputs": [],
      "stateMutability": "nonpayable",
      "type": "function"
    },
    {
      "inputs": [
        {
          "internalType": "address",
          "name": "_poolWallet",
          "type": "address"
        },
        {
          "internalType": "address",
          "name": "_wancashBuyer",
          "type": "address"
        }
      ],
      "name": "setWallets",
      "outputs": [],
      "stateMutability": "nonpayable",
      "type": "function"
    },
    {
      "inputs": [
        {
          "internalType": "uint256",
          "name": "amount",
          "type": "uint256"
        },
        {
          "internalType": "uint256",
          "name": "duration",
          "type": "uint256"
        },
        {
          "internalType": "address",
          "name": "referrer",
          "type": "address"
        }
      ],
      "name": "stake",
      "outputs": [],
      "stateMutability": "nonpayable",
      "type": "function"
    },
    {
      "inputs": [
        {
          "internalType": "uint256",
          "name": "",
          "type": "uint256"
        }
      ],
      "name": "stakes",
      "outputs": [
        {
          "internalType": "address",
          "name": "user",
          "type": "address"
        },
        {
          "internalType": "uint256",
          "name": "amount",
          "type": "uint256"
        },
        {
          "internalType": "uint256",
          "name": "startTime",
          "type": "uint256"
        },
        {
          "internalType": "uint256",
          "name": "duration",
          "type": "uint256"
        },
        {
          "internalType": "uint256",
          "name": "aprBps",
          "type": "uint256"
        },
        {
          "internalType": "uint256",
          "name": "lastClaim",
          "type": "uint256"
        },
        {
          "internalType": "address",
          "name": "referrer",
          "type": "address"
        },
        {
          "internalType": "bool",
          "name": "withdrawn",
          "type": "bool"
        }
      ],
      "stateMutability": "view",
      "type": "function"
    },
    {
      "inputs": [
        {
          "internalType": "address",
          "name": "newOwner",
          "type": "address"
        }
      ],
      "name": "transferOwnership",
      "outputs": [],
      "stateMutability": "nonpayable",
      "type": "function"
    },
    {
      "inputs": [],
      "name": "uplineEligibleMinAmount",
      "outputs": [
        {
          "internalType": "uint256",
          "name": "",
          "type": "uint256"
        }
      ],
      "stateMutability": "view",
      "type": "function"
    },
    {
      "inputs": [
        {
          "internalType": "address",
          "name": "",
          "type": "address"
        },
        {
          "internalType": "uint256",
          "name": "",
          "type": "uint256"
        }
      ],
      "name": "userStakes",
      "outputs": [
        {
          "internalType": "uint256",
          "name": "",
          "type": "uint256"
        }
      ],
      "stateMutability": "view",
      "type": "function"
    },
    {
      "inputs": [],
      "name": "wancashBuyer",
      "outputs": [
        {
          "internalType": "address",
          "name": "",
          "type": "address"
        }
      ],
      "stateMutability": "view",
      "type": "function"
    },
    {
      "inputs": [
        {
          "internalType": "uint256",
          "name": "stakeId",
          "type": "uint256"
        }
      ],
      "name": "withdrawPrincipal",
      "outputs": [],
      "stateMutability": "nonpayable",
      "type": "function"
    }
  ],
  "transactionHash": "0xa38c01e6bd7df4da406e258ff56cf303e05dfc91410f46a0e5fcb3d1d62fc891",
  "args": [
    "0xA74088d822184Be49a0324248e6bC0ecD6A21886",
    "0x1A3c41392caF81aa7281EFaADC73C653064D22A1",
    "0x7b97A7a3688ab41e5129D5b252de0c332697813d"
  ],
  "numDeployments": 1,
  "solcInputHash": "45e020eaa9d37a4fbd4278d9ee0f699c",
  "bytecode": "0x61016060405260b460c090815261016860e0526102586101005261038461012052610708610140526200003790600490600562000281565b506040805160a08101825261012c81526103206020820152610514918101919091526107d06060820152611194608082015262000078906005908162000281565b5060016008553480156200008b57600080fd5b5060405162001e2f38038062001e2f833981016040819052620000ae916200030b565b806001600160a01b038116620000df57604051631e4fbdf760e01b8152600060048201526024015b60405180910390fd5b620000ea8162000231565b50600180556001600160a01b038316158015906200011057506001600160a01b03821615155b6200014e5760405162461bcd60e51b815260206004820152600d60248201526c24b73b30b634b2103a37b5b2b760991b6044820152606401620000d6565b6001600160a01b03808416608081905290831660a0526040805163313ce56760e01b815290516000929163313ce5679160048083019260209291908290030181865afa158015620001a3573d6000803e3d6000fd5b505050506040513d601f19601f82011682018060405250810190620001c9919062000355565b9050620001d881600a62000496565b620001e590600a620004a7565b600655620001f581600a62000496565b62000202906064620004a7565b600755506001600160a01b03166000908152600b60205260409020805460ff1916600117905550620004c19050565b600080546001600160a01b038381166001600160a01b0319831681178455604051919092169283917f8be0079c531659141344cd1fd0a4f28419497f9722a3daafe3b4186f6b6457e09190a35050565b828054828255906000526020600020908101928215620002c5579160200282015b82811115620002c5578251829061ffff16905591602001919060010190620002a2565b50620002d3929150620002d7565b5090565b5b80821115620002d35760008155600101620002d8565b80516001600160a01b03811681146200030657600080fd5b919050565b6000806000606084860312156200032157600080fd5b6200032c84620002ee565b92506200033c60208501620002ee565b91506200034c60408501620002ee565b90509250925092565b6000602082840312156200036857600080fd5b815160ff811681146200037a57600080fd5b9392505050565b634e487b7160e01b600052601160045260246000fd5b600181815b80851115620003d8578160001904821115620003bc57620003bc62000381565b80851615620003ca57918102915b93841c93908002906200039c565b509250929050565b600082620003f15750600162000490565b81620004005750600062000490565b8160018114620004195760028114620004245762000444565b600191505062000490565b60ff84111562000438576200043862000381565b50506001821b62000490565b5060208310610133831016604e8410600b841016171562000469575081810a62000490565b62000475838362000397565b80600019048211156200048c576200048c62000381565b0290505b92915050565b60006200037a60ff841683620003e0565b808202811582820484141762000490576200049062000381565b60805160a0516119106200051f600039600081816103df0152818161091401526109980152600081816103b8015281816108d50152818161095601528181610c9001528181610de801528181611053015261108d01526119106000f3fe608060405234801561001057600080fd5b50600436106101cf5760003560e01c80637628a37d11610104578063b5d5b5fa116100a2578063d11c1d1511610071578063d11c1d1514610401578063d3f6a15714610424578063d5a44f8614610437578063f2fde38b146104e657600080fd5b8063b5d5b5fa1461038d578063c42b8a98146103a0578063c54e44eb146103b3578063cdc42e49146103da57600080fd5b8063842e2981116100de578063842e2981146103365780638d93ec88146103565780638da5cb5b14610369578063a7d9131f1461037a57600080fd5b80637628a37d146102ca5780637c331fb0146102dd5780637dcb2abf1461030857600080fd5b8063375b3c0a11610171578063658e28a41161014b578063658e28a41461029d5780636637e38c146102b0578063715018a6146102b957806375506c96146102c157600080fd5b8063375b3c0a1461026b578063379607f51461027457806341f95f511461028757600080fd5b80631894430a116101ad5780631894430a1461022757806325d42e1a1461023a578063277327a51461024d57806330357fa21461026257600080fd5b80630993085b146101d45780630b19cc67146101fa57806312815ea414610203575b600080fd5b6101e76101e236600461164a565b6104f9565b6040519081526020015b60405180910390f35b6101e76101f481565b60035461021790600160a01b900460ff1681565b60405190151581526020016101f1565b6101e761023536600461164a565b61059a565b6101e761024836600461164a565b610652565b61026061025b36600461167f565b610673565b005b6101e760075481565b6101e760065481565b61026061028236600461164a565b6106e1565b61028f610a3a565b6040516101f19291906116f7565b6102606102ab36600461164a565b610aed565b6101e761271081565b610260610d13565b6101e760085481565b6102606102d8366004611725565b610d27565b6003546102f0906001600160a01b031681565b6040516001600160a01b0390911681526020016101f1565b61031b61031636600461164a565b61115e565b604080519384526020840192909252908201526060016101f1565b61034961034436600461175a565b6112d6565b6040516101f19190611775565b6002546102f0906001600160a01b031681565b6000546001600160a01b03166102f0565b6101e761038836600461164a565b611342565b6101e761039b366004611788565b611352565b6102606103ae3660046117b2565b611383565b6102f07f000000000000000000000000000000000000000000000000000000000000000081565b6102f07f000000000000000000000000000000000000000000000000000000000000000081565b61021761040f36600461175a565b600b6020526000908152604090205460ff1681565b6102606104323660046117d4565b6113e3565b61049961044536600461164a565b60096020526000908152604090208054600182015460028301546003840154600485015460058601546006909601546001600160a01b0395861696949593949293919291811690600160a01b900460ff1688565b604080516001600160a01b03998a16815260208101989098528701959095526060860193909352608085019190915260a084015290921660c082015290151560e0820152610100016101f1565b6102606104f436600461175a565b611459565b6000805b60045481101561055957826004828154811061051b5761051b611807565b906000526020600020015403610551576005818154811061053e5761053e611807565b9060005260206000200154915050919050565b6001016104fd565b5060405162461bcd60e51b815260206004820152601060248201526f24b73b30b634b210323ab930ba34b7b760811b60448201526064015b60405180910390fd5b600081815260096020908152604080832081516101008101835281546001600160a01b039081168083526001840154958301959095526002830154938201939093526003820154606082015260048201546080820152600582015460a082015260069091015491821660c0820152600160a01b90910460ff16151560e0820152906106375760405162461bcd60e51b81526004016105919061181d565b8060600151816040015161064b919061185c565b9392505050565b6005818154811061066257600080fd5b600091825260209091200154905081565b61067b611494565b61068f6001600160a01b03841683836114c1565b816001600160a01b0316836001600160a01b03167ff24ef89f38eadc1bde50701ad6e4d6d11a2dc24f7cf834a486991f3883328504836040516106d491815260200190565b60405180910390a3505050565b6106e9611520565b600081815260096020526040902080546001600160a01b031661071e5760405162461bcd60e51b81526004016105919061181d565b80546001600160a01b031633146107695760405162461bcd60e51b815260206004820152600f60248201526e2737ba1039ba30b5b29037bbb732b960891b6044820152606401610591565b6006810154600160a01b900460ff16156107c55760405162461bcd60e51b815260206004820152601b60248201527f5072696e636970616c20616c72656164792077697468647261776e00000000006044820152606401610591565b6000806107d18461115e565b509150915060008211806107e55750600081115b61081e5760405162461bcd60e51b815260206004820152600a6024820152694e6f207265776172647360b01b6044820152606401610591565b600383015460028401544291600091610837919061185c565b905080821115610845578091505b600585018290556000610858848661185c565b9050600061271061086b6101f484611875565b610875919061188c565b9050600061088382846118ae565b9050600061089260028361188c565b905060006108a082846118ae565b905060006108af60028661188c565b905060006108bd82876118ae565b905083156108fe578b546108fe906001600160a01b037f000000000000000000000000000000000000000000000000000000000000000081169116866114c1565b821561093d578b5461093d906001600160a01b037f000000000000000000000000000000000000000000000000000000000000000081169116856114c1565b811561097f5760068c015461097f906001600160a01b037f000000000000000000000000000000000000000000000000000000000000000081169116846114c1565b80156109c15760068c01546109c1906001600160a01b037f000000000000000000000000000000000000000000000000000000000000000081169116836114c1565b60068c01548c546040805187815260208101879052908101859052606081018490526001600160a01b0392831692909116908f907f29c6322c61f61a052dc9083febbadef8de9b12286b6ed4a8ab9fd7d9632ed4d99060800160405180910390a4505050505050505050505050610a3760018055565b50565b6060806004600581805480602002602001604051908101604052809291908181526020018280548015610a8c57602002820191906000526020600020905b815481526020019060010190808311610a78575b5050505050915080805480602002602001604051908101604052809291908181526020018280548015610ade57602002820191906000526020600020905b815481526020019060010190808311610aca575b50505050509050915091509091565b610af5611520565b600081815260096020526040902080546001600160a01b0316610b2a5760405162461bcd60e51b81526004016105919061181d565b80546001600160a01b03163314610b755760405162461bcd60e51b815260206004820152600f60248201526e2737ba1039ba30b5b29037bbb732b960891b6044820152606401610591565b6006810154600160a01b900460ff1615610bc55760405162461bcd60e51b815260206004820152601160248201527020b63932b0b23c903bb4ba34323930bbb760791b6044820152606401610591565b600081600301548260020154610bdb919061185c565b905080421015610c215760405162461bcd60e51b8152602060048201526011602482015270131bd8dac81b9bdd08199a5b9a5cda1959607a1b6044820152606401610591565b600080610c2d8561115e565b50915091506000821180610c415750600081115b15610c5457610c4f856106e1565b610c68565b8284600501541015610c6857600584018390555b600184018054600090915560068501805460ff60a01b1916600160a01b1790558454610cc2907f00000000000000000000000000000000000000000000000000000000000000006001600160a01b039081169116836114c1565b84546040518281526001600160a01b039091169087907f711a937f8a067e7fb82f56ec0f4ca96c67a9637d34b4e269252b67f551cec1189060200160405180910390a35050505050610a3760018055565b610d1b611494565b610d25600061154a565b565b610d2f611520565b600654831015610d785760405162461bcd60e51b8152602060048201526014602482015273416d6f756e742062656c6f77206d696e696d756d60601b6044820152606401610591565b6000610d83836104f9565b9050816001600160a01b0381161580610da457506001600160a01b03811633145b80610dc857506001600160a01b0381166000908152600b602052604090205460ff16155b15610ddb57506000546001600160a01b03165b610e106001600160a01b037f00000000000000000000000000000000000000000000000000000000000000001633308861159a565b6008805460009182610e21836118c1565b9091555060408051610100810182523380825260208083018b815242848601818152606086018d8152608087018c815260a088019384526001600160a01b038c811660c08a01908152600060e08b018181528d825260098a528c82209b518c549085166001600160a01b0319909116178c55975160018c810191909155955160028c0155935160038b0155915160048a015593516005890155516006909701805494511515600160a01b026001600160a81b03199095169790931696909617929092179055918352600a815292822080549182018155825291902001819055905062ed4e0085148015610f1657506007548610155b8015610f325750336000908152600b602052604090205460ff16155b15610f7857336000818152600b6020526040808220805460ff19166001179055517f86372c30fb296fa8d73b2e5886db17c6a4f9ceebeb786429dbd9b2e98a1908589190a25b600354600160a01b900460ff16156110fd576002546001600160a01b031615801590610fae57506003546001600160a01b031615155b610ff25760405162461bcd60e51b815260206004820152601560248201527414dc1b1a5d081dd85b1b195d1cc81b9bdd081cd95d605a1b6044820152606401610591565b6000606461100188603c611875565b61100b919061188c565b90506000606461101c89601e611875565b611026919061188c565b9050600081611035848b6118ae565b61103f91906118ae565b60035490915061107c906001600160a01b037f000000000000000000000000000000000000000000000000000000000000000081169116856114c1565b6002546110b6906001600160a01b037f000000000000000000000000000000000000000000000000000000000000000081169116846114c1565b604080518481526020810184905290810182905284907f8d0f0101473b7af04fa5f9e5ad28b4bb65f96bd1baea058b030d99d1799ae9ca9060600160405180910390a25050505b60408051878152602081018790529081018490526001600160a01b03831690339083907f83ac81e645186d5ecd53e91da4bb568a3cb7b0610c5f49043dbbb9e3f1402bae9060600160405180910390a450505061115960018055565b505050565b600081815260096020908152604080832081516101008101835281546001600160a01b039081168083526001840154958301959095526002830154938201939093526003820154606082015260048201546080820152600582015460a082015260069091015491821660c0820152600160a01b90910460ff16151560e082015282918291906111ff5760405162461bcd60e51b81526004016105919061181d565b606081015160408201514291600091611218919061185c565b905080821115611226578091505b8260a001518211801561123d575060008360200151115b156112af5760008360a001518361125491906118ae565b905060006112686301e13380612710611875565b828660800151876020015161127d9190611875565b6112879190611875565b611291919061188c565b905061129e60028261188c565b97506112aa88826118ae565b965050505b8042106112bf57600093506112cc565b6112c942826118ae565b93505b5050509193909250565b6001600160a01b0381166000908152600a602090815260409182902080548351818402810184019094528084526060939283018282801561133657602002820191906000526020600020905b815481526020019060010190808311611322575b50505050509050919050565b6004818154811061066257600080fd5b600a602052816000526040600020818154811061136e57600080fd5b90600052602060002001600091509150505481565b61138b611494565b60038054821515600160a01b0260ff60a01b199091161790556040517f7566306ae1349061adad8c45097f14519b4cb64e1d3ed392d72ba4a73f9993c2906113d890831515815260200190565b60405180910390a150565b6113eb611494565b600280546001600160a01b038481166001600160a01b03199283168117909355600380549185169190921681179091556040805192835260208301919091527f0c6c0825f1c618d6202ac048452713e895799b653d19fbcb493a99f568d18429910160405180910390a15050565b611461611494565b6001600160a01b03811661148b57604051631e4fbdf760e01b815260006004820152602401610591565b610a378161154a565b6000546001600160a01b03163314610d255760405163118cdaa760e01b8152336004820152602401610591565b6040516001600160a01b0383811660248301526044820183905261115991859182169063a9059cbb906064015b604051602081830303815290604052915060e01b6020820180516001600160e01b0383818316178352505050506115d9565b60026001540361154357604051633ee5aeb560e01b815260040160405180910390fd5b6002600155565b600080546001600160a01b038381166001600160a01b0319831681178455604051919092169283917f8be0079c531659141344cd1fd0a4f28419497f9722a3daafe3b4186f6b6457e09190a35050565b6040516001600160a01b0384811660248301528381166044830152606482018390526115d39186918216906323b872dd906084016114ee565b50505050565b600080602060008451602086016000885af1806115fc576040513d6000823e3d81fd5b50506000513d91508115611614578060011415611621565b6001600160a01b0384163b155b156115d357604051635274afe760e01b81526001600160a01b0385166004820152602401610591565b60006020828403121561165c57600080fd5b5035919050565b80356001600160a01b038116811461167a57600080fd5b919050565b60008060006060848603121561169457600080fd5b61169d84611663565b92506116ab60208501611663565b9150604084013590509250925092565b60008151808452602080850194506020840160005b838110156116ec578151875295820195908201906001016116d0565b509495945050505050565b60408152600061170a60408301856116bb565b828103602084015261171c81856116bb565b95945050505050565b60008060006060848603121561173a57600080fd5b833592506020840135915061175160408501611663565b90509250925092565b60006020828403121561176c57600080fd5b61064b82611663565b60208152600061064b60208301846116bb565b6000806040838503121561179b57600080fd5b6117a483611663565b946020939093013593505050565b6000602082840312156117c457600080fd5b8135801515811461064b57600080fd5b600080604083850312156117e757600080fd5b6117f083611663565b91506117fe60208401611663565b90509250929050565b634e487b7160e01b600052603260045260246000fd5b6020808252600f908201526e14dd185ad9481b9bdd08199bdd5b99608a1b604082015260600190565b634e487b7160e01b600052601160045260246000fd5b8082018082111561186f5761186f611846565b92915050565b808202811582820484141761186f5761186f611846565b6000826118a957634e487b7160e01b600052601260045260246000fd5b500490565b8181038181111561186f5761186f611846565b6000600182016118d3576118d3611846565b506001019056fea2646970667358221220db17e04e139dcfa22e48dc06298284125a8ac04d96253a46484cfe7dcbbf4ec464736f6c63430008160033",
  "devdoc": {
    "errors": {
      "OwnableInvalidOwner(address)": [
        {
          "details": "The owner is not a valid owner account. (eg. `address(0)`)"
        }
      ],
      "OwnableUnauthorizedAccount(address)": [
        {
          "details": "The caller account is not authorized to perform an operation."
        }
      ],
      "ReentrancyGuardReentrantCall()": [
        {
          "details": "Unauthorized reentrant call."
        }
      ],
      "SafeERC20FailedOperation(address)": [
        {
          "details": "An operation with an ERC-20 token failed."
        }
      ]
    },
    "kind": "dev",
    "methods": {
      "owner()": {
        "details": "Returns the address of the current owner."
      },
      "renounceOwnership()": {
        "details": "Leaves the contract without owner. It will not be possible to call `onlyOwner` functions. Can only be called by the current owner. NOTE: Renouncing ownership will leave the contract without an owner, thereby disabling any functionality that is only available to the owner."
      },
      "stake(uint256,uint256,address)": {
        "params": {
          "amount": "jumlah USDT",
          "duration": "salah satu dari {7d, 30d, 90d, 180d, 360d}",
          "referrer": "alamat upline; jika tidak eligible -> fallback owner()"
        }
      },
      "transferOwnership(address)": {
        "details": "Transfers ownership of the contract to a new account (`newOwner`). Can only be called by the current owner."
      }
    },
    "version": 1
  },
  "userdoc": {
    "kind": "user",
    "methods": {
      "claim(uint256)": {
        "notice": "Klaim reward yang sudah terakumulasi sampai sekarang (atau sampai endTime jika sudah lewat). Membayar 95% ke user dan 5% ke upline, masing-masing dibagi 50% USDT + 50% WANCASH."
      },
      "emergencyWithdrawToken(address,address,uint256)": {
        "notice": "Emergency withdrawal oleh owner (mis. migrasi, force settle, atau alasan keamanan). Gunakan dengan bijak. Tidak mengubah data stake."
      },
      "pendingRewards(uint256)": {
        "notice": "Menghitung reward yang belum diklaim & sisa waktu lock. Mengembalikan (usdtReward, wancReward, sisaLockDetik)"
      },
      "stake(uint256,uint256,address)": {
        "notice": "Stake USDT."
      },
      "withdrawPrincipal(uint256)": {
        "notice": "Withdraw pokok setelah lock habis. Auto-claim reward tersisa sampai endTime."
      }
    },
    "version": 1
  },
  "storageLayout": {
    "storage": [
      {
        "astId": 8,
        "contract": "contracts/EnhancedStakingUsdt.sol:EnhancedStakingUsdt",
        "label": "_owner",
        "offset": 0,
        "slot": "0",
        "type": "t_address"
      },
      {
        "astId": 1498,
        "contract": "contracts/EnhancedStakingUsdt.sol:EnhancedStakingUsdt",
        "label": "_status",
        "offset": 0,
        "slot": "1",
        "type": "t_uint256"
      },
      {
        "astId": 1615,
        "contract": "contracts/EnhancedStakingUsdt.sol:EnhancedStakingUsdt",
        "label": "poolWallet",
        "offset": 0,
        "slot": "2",
        "type": "t_address"
      },
      {
        "astId": 1617,
        "contract": "contracts/EnhancedStakingUsdt.sol:EnhancedStakingUsdt",
        "label": "wancashBuyer",
        "offset": 0,
        "slot": "3",
        "type": "t_address"
      },
      {
        "astId": 1619,
        "contract": "contracts/EnhancedStakingUsdt.sol:EnhancedStakingUsdt",
        "label": "autoSplit",
        "offset": 20,
        "slot": "3",
        "type": "t_bool"
      },
      {
        "astId": 1628,
        "contract": "contracts/EnhancedStakingUsdt.sol:EnhancedStakingUsdt",
        "label": "lockOptions",
        "offset": 0,
        "slot": "4",
        "type": "t_array(t_uint256)dyn_storage"
      },
      {
        "astId": 1637,
        "contract": "contracts/EnhancedStakingUsdt.sol:EnhancedStakingUsdt",
        "label": "aprBpsOptions",
        "offset": 0,
        "slot": "5",
        "type": "t_array(t_uint256)dyn_storage"
      },
      {
        "astId": 1639,
        "contract": "contracts/EnhancedStakingUsdt.sol:EnhancedStakingUsdt",
        "label": "minStake",
        "offset": 0,
        "slot": "6",
        "type": "t_uint256"
      },
      {
        "astId": 1641,
        "contract": "contracts/EnhancedStakingUsdt.sol:EnhancedStakingUsdt",
        "label": "uplineEligibleMinAmount",
        "offset": 0,
        "slot": "7",
        "type": "t_uint256"
      },
      {
        "astId": 1653,
        "contract": "contracts/EnhancedStakingUsdt.sol:EnhancedStakingUsdt",
        "label": "nextStakeId",
        "offset": 0,
        "slot": "8",
        "type": "t_uint256"
      },
      {
        "astId": 1658,
        "contract": "contracts/EnhancedStakingUsdt.sol:EnhancedStakingUsdt",
        "label": "stakes",
        "offset": 0,
        "slot": "9",
        "type": "t_mapping(t_uint256,t_struct(StakeInfo)1607_storage)"
      },
      {
        "astId": 1663,
        "contract": "contracts/EnhancedStakingUsdt.sol:EnhancedStakingUsdt",
        "label": "userStakes",
        "offset": 0,
        "slot": "10",
        "type": "t_mapping(t_address,t_array(t_uint256)dyn_storage)"
      },
      {
        "astId": 1667,
        "contract": "contracts/EnhancedStakingUsdt.sol:EnhancedStakingUsdt",
        "label": "eligibleUpline",
        "offset": 0,
        "slot": "11",
        "type": "t_mapping(t_address,t_bool)"
      }
    ],
    "types": {
      "t_address": {
        "encoding": "inplace",
        "label": "address",
        "numberOfBytes": "20"
      },
      "t_array(t_uint256)dyn_storage": {
        "base": "t_uint256",
        "encoding": "dynamic_array",
        "label": "uint256[]",
        "numberOfBytes": "32"
      },
      "t_bool": {
        "encoding": "inplace",
        "label": "bool",
        "numberOfBytes": "1"
      },
      "t_mapping(t_address,t_array(t_uint256)dyn_storage)": {
        "encoding": "mapping",
        "key": "t_address",
        "label": "mapping(address => uint256[])",
        "numberOfBytes": "32",
        "value": "t_array(t_uint256)dyn_storage"
      },
      "t_mapping(t_address,t_bool)": {
        "encoding": "mapping",
        "key": "t_address",
        "label": "mapping(address => bool)",
        "numberOfBytes": "32",
        "value": "t_bool"
      },
      "t_mapping(t_uint256,t_struct(StakeInfo)1607_storage)": {
        "encoding": "mapping",
        "key": "t_uint256",
        "label": "mapping(uint256 => struct EnhancedStakingUsdt.StakeInfo)",
        "numberOfBytes": "32",
        "value": "t_struct(StakeInfo)1607_storage"
      },
      "t_struct(StakeInfo)1607_storage": {
        "encoding": "inplace",
        "label": "struct EnhancedStakingUsdt.StakeInfo",
        "members": [
          {
            "astId": 1592,
            "contract": "contracts/EnhancedStakingUsdt.sol:EnhancedStakingUsdt",
            "label": "user",
            "offset": 0,
            "slot": "0",
            "type": "t_address"
          },
          {
            "astId": 1594,
            "contract": "contracts/EnhancedStakingUsdt.sol:EnhancedStakingUsdt",
            "label": "amount",
            "offset": 0,
            "slot": "1",
            "type": "t_uint256"
          },
          {
            "astId": 1596,
            "contract": "contracts/EnhancedStakingUsdt.sol:EnhancedStakingUsdt",
            "label": "startTime",
            "offset": 0,
            "slot": "2",
            "type": "t_uint256"
          },
          {
            "astId": 1598,
            "contract": "contracts/EnhancedStakingUsdt.sol:EnhancedStakingUsdt",
            "label": "duration",
            "offset": 0,
            "slot": "3",
            "type": "t_uint256"
          },
          {
            "astId": 1600,
            "contract": "contracts/EnhancedStakingUsdt.sol:EnhancedStakingUsdt",
            "label": "aprBps",
            "offset": 0,
            "slot": "4",
            "type": "t_uint256"
          },
          {
            "astId": 1602,
            "contract": "contracts/EnhancedStakingUsdt.sol:EnhancedStakingUsdt",
            "label": "lastClaim",
            "offset": 0,
            "slot": "5",
            "type": "t_uint256"
          },
          {
            "astId": 1604,
            "contract": "contracts/EnhancedStakingUsdt.sol:EnhancedStakingUsdt",
            "label": "referrer",
            "offset": 0,
            "slot": "6",
            "type": "t_address"
          },
          {
            "astId": 1606,
            "contract": "contracts/EnhancedStakingUsdt.sol:EnhancedStakingUsdt",
            "label": "withdrawn",
            "offset": 20,
            "slot": "6",
            "type": "t_bool"
          }
        ],
        "numberOfBytes": "224"
      },
      "t_uint256": {
        "encoding": "inplace",
        "label": "uint256",
        "numberOfBytes": "32"
      }
    }
  }
}