{
  "address": "0xf727Ab0F8d7fb9B2FAC36fa00c3Ad27c401d2fe4",
  "abi": [
    {
      "inputs": [
        {
          "internalType": "address",
          "name": "_stakingToken",
          "type": "address"
        },
        {
          "internalType": "bool",
          "name": "_isTokenChangeable",
          "type": "bool"
        }
      ],
      "stateMutability": "nonpayable",
      "type": "constructor"
    },
    {
      "inputs": [
        {
          "internalType": "address",
          "name": "owner",
          "type": "address"
        }
      ],
      "name": "OwnableInvalidOwner",
      "type": "error"
    },
    {
      "inputs": [
        {
          "internalType": "address",
          "name": "account",
          "type": "address"
        }
      ],
      "name": "OwnableUnauthorizedAccount",
      "type": "error"
    },
    {
      "inputs": [],
      "name": "ReentrancyGuardReentrantCall",
      "type": "error"
    },
    {
      "inputs": [
        {
          "internalType": "address",
          "name": "token",
          "type": "address"
        }
      ],
      "name": "SafeERC20FailedOperation",
      "type": "error"
    },
    {
      "anonymous": false,
      "inputs": [
        {
          "indexed": true,
          "internalType": "address",
          "name": "user",
          "type": "address"
        },
        {
          "indexed": false,
          "internalType": "uint256",
          "name": "amount",
          "type": "uint256"
        }
      ],
      "name": "EmergencyUnstaked",
      "type": "event"
    },
    {
      "anonymous": false,
      "inputs": [
        {
          "indexed": false,
          "internalType": "uint8",
          "name": "lockPeriod",
          "type": "uint8"
        },
        {
          "indexed": false,
          "internalType": "uint256",
          "name": "duration",
          "type": "uint256"
        },
        {
          "indexed": false,
          "internalType": "uint256",
          "name": "rewardRate",
          "type": "uint256"
        }
      ],
      "name": "LockOptionUpdated",
      "type": "event"
    },
    {
      "anonymous": false,
      "inputs": [
        {
          "indexed": true,
          "internalType": "address",
          "name": "previousOwner",
          "type": "address"
        },
        {
          "indexed": true,
          "internalType": "address",
          "name": "newOwner",
          "type": "address"
        }
      ],
      "name": "OwnershipTransferred",
      "type": "event"
    },
    {
      "anonymous": false,
      "inputs": [
        {
          "indexed": true,
          "internalType": "address",
          "name": "user",
          "type": "address"
        },
        {
          "indexed": false,
          "internalType": "uint256",
          "name": "amount",
          "type": "uint256"
        },
        {
          "indexed": false,
          "internalType": "enum EnhancedStaking.LockPeriod",
          "name": "lockPeriod",
          "type": "uint8"
        }
      ],
      "name": "Staked",
      "type": "event"
    },
    {
      "anonymous": false,
      "inputs": [
        {
          "indexed": true,
          "internalType": "address",
          "name": "oldToken",
          "type": "address"
        },
        {
          "indexed": true,
          "internalType": "address",
          "name": "newToken",
          "type": "address"
        }
      ],
      "name": "TokenChanged",
      "type": "event"
    },
    {
      "anonymous": false,
      "inputs": [
        {
          "indexed": true,
          "internalType": "address",
          "name": "user",
          "type": "address"
        },
        {
          "indexed": false,
          "internalType": "uint256",
          "name": "amount",
          "type": "uint256"
        },
        {
          "indexed": false,
          "internalType": "uint256",
          "name": "reward",
          "type": "uint256"
        }
      ],
      "name": "Unstaked",
      "type": "event"
    },
    {
      "inputs": [
        {
          "internalType": "address",
          "name": "_user",
          "type": "address"
        }
      ],
      "name": "calculateReward",
      "outputs": [
        {
          "internalType": "uint256",
          "name": "",
          "type": "uint256"
        }
      ],
      "stateMutability": "view",
      "type": "function"
    },
    {
      "inputs": [
        {
          "internalType": "address",
          "name": "_user",
          "type": "address"
        }
      ],
      "name": "canUnstake",
      "outputs": [
        {
          "internalType": "bool",
          "name": "",
          "type": "bool"
        }
      ],
      "stateMutability": "view",
      "type": "function"
    },
    {
      "inputs": [
        {
          "internalType": "address",
          "name": "_newToken",
          "type": "address"
        }
      ],
      "name": "changeStakingToken",
      "outputs": [],
      "stateMutability": "nonpayable",
      "type": "function"
    },
    {
      "inputs": [],
      "name": "disableTokenChange",
      "outputs": [],
      "stateMutability": "nonpayable",
      "type": "function"
    },
    {
      "inputs": [],
      "name": "emergencyUnstake",
      "outputs": [],
      "stateMutability": "nonpayable",
      "type": "function"
    },
    {
      "inputs": [],
      "name": "enaableTokenChange",
      "outputs": [],
      "stateMutability": "nonpayable",
      "type": "function"
    },
    {
      "inputs": [
        {
          "internalType": "enum EnhancedStaking.LockPeriod",
          "name": "_lockPeriod",
          "type": "uint8"
        }
      ],
      "name": "getLockOption",
      "outputs": [
        {
          "internalType": "uint256",
          "name": "duration",
          "type": "uint256"
        },
        {
          "internalType": "uint256",
          "name": "rewardRate",
          "type": "uint256"
        }
      ],
      "stateMutability": "view",
      "type": "function"
    },
    {
      "inputs": [
        {
          "internalType": "address",
          "name": "_user",
          "type": "address"
        }
      ],
      "name": "getRemainingLockTime",
      "outputs": [
        {
          "internalType": "uint256",
          "name": "",
          "type": "uint256"
        }
      ],
      "stateMutability": "view",
      "type": "function"
    },
    {
      "inputs": [
        {
          "internalType": "address",
          "name": "_user",
          "type": "address"
        }
      ],
      "name": "getStakeInfo",
      "outputs": [
        {
          "internalType": "uint256",
          "name": "amount",
          "type": "uint256"
        },
        {
          "internalType": "uint256",
          "name": "startTime",
          "type": "uint256"
        },
        {
          "internalType": "enum EnhancedStaking.LockPeriod",
          "name": "lockPeriod",
          "type": "uint8"
        },
        {
          "internalType": "bool",
          "name": "isLocked",
          "type": "bool"
        },
        {
          "internalType": "uint256",
          "name": "lockEndTime",
          "type": "uint256"
        },
        {
          "internalType": "uint256",
          "name": "potentialReward",
          "type": "uint256"
        }
      ],
      "stateMutability": "view",
      "type": "function"
    },
    {
      "inputs": [],
      "name": "getTokenDecimals",
      "outputs": [
        {
          "internalType": "uint8",
          "name": "",
          "type": "uint8"
        }
      ],
      "stateMutability": "view",
      "type": "function"
    },
    {
      "inputs": [],
      "name": "isTokenChangeable",
      "outputs": [
        {
          "internalType": "bool",
          "name": "",
          "type": "bool"
        }
      ],
      "stateMutability": "view",
      "type": "function"
    },
    {
      "inputs": [
        {
          "internalType": "uint8",
          "name": "",
          "type": "uint8"
        }
      ],
      "name": "lockOptions",
      "outputs": [
        {
          "internalType": "uint256",
          "name": "duration",
          "type": "uint256"
        },
        {
          "internalType": "uint256",
          "name": "rewardRate",
          "type": "uint256"
        }
      ],
      "stateMutability": "view",
      "type": "function"
    },
    {
      "inputs": [],
      "name": "owner",
      "outputs": [
        {
          "internalType": "address",
          "name": "",
          "type": "address"
        }
      ],
      "stateMutability": "view",
      "type": "function"
    },
    {
      "inputs": [],
      "name": "renounceOwnership",
      "outputs": [],
      "stateMutability": "nonpayable",
      "type": "function"
    },
    {
      "inputs": [
        {
          "internalType": "uint8",
          "name": "_lockPeriod",
          "type": "uint8"
        },
        {
          "internalType": "uint256",
          "name": "_duration",
          "type": "uint256"
        },
        {
          "internalType": "uint256",
          "name": "_rewardRate",
          "type": "uint256"
        }
      ],
      "name": "setLockOption",
      "outputs": [],
      "stateMutability": "nonpayable",
      "type": "function"
    },
    {
      "inputs": [
        {
          "internalType": "uint8",
          "name": "_decimals",
          "type": "uint8"
        }
      ],
      "name": "setTokenDecimals",
      "outputs": [],
      "stateMutability": "nonpayable",
      "type": "function"
    },
    {
      "inputs": [
        {
          "internalType": "uint256",
          "name": "_amount",
          "type": "uint256"
        },
        {
          "internalType": "enum EnhancedStaking.LockPeriod",
          "name": "_lockPeriod",
          "type": "uint8"
        }
      ],
      "name": "stake",
      "outputs": [],
      "stateMutability": "nonpayable",
      "type": "function"
    },
    {
      "inputs": [
        {
          "internalType": "address",
          "name": "",
          "type": "address"
        }
      ],
      "name": "stakes",
      "outputs": [
        {
          "internalType": "uint256",
          "name": "amount",
          "type": "uint256"
        },
        {
          "internalType": "uint256",
          "name": "startTime",
          "type": "uint256"
        },
        {
          "internalType": "enum EnhancedStaking.LockPeriod",
          "name": "lockPeriod",
          "type": "uint8"
        },
        {
          "internalType": "bool",
          "name": "isLocked",
          "type": "bool"
        }
      ],
      "stateMutability": "view",
      "type": "function"
    },
    {
      "inputs": [],
      "name": "stakingToken",
      "outputs": [
        {
          "internalType": "contract IERC20",
          "name": "",
          "type": "address"
        }
      ],
      "stateMutability": "view",
      "type": "function"
    },
    {
      "inputs": [],
      "name": "tokenDecimals",
      "outputs": [
        {
          "internalType": "uint8",
          "name": "",
          "type": "uint8"
        }
      ],
      "stateMutability": "view",
      "type": "function"
    },
    {
      "inputs": [],
      "name": "totalStaked",
      "outputs": [
        {
          "internalType": "uint256",
          "name": "",
          "type": "uint256"
        }
      ],
      "stateMutability": "view",
      "type": "function"
    },
    {
      "inputs": [
        {
          "internalType": "address",
          "name": "newOwner",
          "type": "address"
        }
      ],
      "name": "transferOwnership",
      "outputs": [],
      "stateMutability": "nonpayable",
      "type": "function"
    },
    {
      "inputs": [],
      "name": "unstake",
      "outputs": [],
      "stateMutability": "nonpayable",
      "type": "function"
    }
  ],
  "transactionHash": "0xa613590a6f156d70a19349f42af621eabe936d5770280b03c8c4e9b4e5d3d613",
  "args": [
    "0x1A3c41392caF81aa7281EFaADC73C653064D22A1",
    true
  ],
  "numDeployments": 5,
  "solcInputHash": "9ce599b4529f2ca23ac994357714b089",
  "bytecode": "0x60806040526001805460ff60a01b1916600960a11b1790553480156200002457600080fd5b5060405162001c7d38038062001c7d8339810160408190526200004791620002f2565b600160005533806200007357604051631e4fbdf760e01b81526000600482015260240160405180910390fd5b6200007e81620002a0565b5060028054911515600160a01b026001600160a81b03199092166001600160a01b039093169290921717815560408051808201825260b48152600f60208083019182526000808052600480835293517f17ef568e3e12ab5b9c7254a8d58478811de00f9e6eb34345acd53bf8fd09d3ec5591517f17ef568e3e12ab5b9c7254a8d58478811de00f9e6eb34345acd53bf8fd09d3ed558351808501855261012c815260218183019081526001845284835290517fabd6e7cb50984ff9c2f3e18a2660c3353dadf4e3291deeb275dae2cd1e44fe0555517fabd6e7cb50984ff9c2f3e18a2660c3353dadf4e3291deeb275dae2cd1e44fe065583518085018552610e1081526050818301908152958352838252517f91da3fd0782e51c6b3986e9e672fd566868e71f3dbc2d6c2cd6fbb3e361af2a75593517f91da3fd0782e51c6b3986e9e672fd566868e71f3dbc2d6c2cd6fbb3e361af2a85582518084018452611c20815260c88186019081526003835283865290517f2e174c10e159ea99b867ce3205125c24a42d128804e4070ed6fcc8cc98166aa055517f2e174c10e159ea99b867ce3205125c24a42d128804e4070ed6fcc8cc98166aa1558251808401909352612a3083526101f4838501908152908290529252517f1a1e6821cde7d0159c0d293177871e09677b4e42307c7db3ba94f8648a5a050f55517f1a1e6821cde7d0159c0d293177871e09677b4e42307c7db3ba94f8648a5a05105562000340565b600180546001600160a01b038381166001600160a01b0319831681179093556040519116919082907f8be0079c531659141344cd1fd0a4f28419497f9722a3daafe3b4186f6b6457e090600090a35050565b600080604083850312156200030657600080fd5b82516001600160a01b03811681146200031e57600080fd5b602084015190925080151581146200033557600080fd5b809150509250929050565b61192d80620003506000396000f3fe608060405234801561001057600080fd5b506004361061014d5760003560e01c8063715018a6116100c35780638da5cb5b1161007c5780638da5cb5b146102e7578063c3453153146102f8578063d82e39621461031d578063d8f2438f14610330578063f2cf47be14610357578063f2fde38b1461036a57600080fd5b8063715018a61461028857806372f702f3146102905780637589cf2f146102bb578063817b1cd2146102c357806385f4498b146102cc5780638acf3332146102df57600080fd5b8063285d333b11610115578063285d333b1461020c5780632def66201461021f5780633b97e85614610227578063473044941461023b578063512808061461025c57806361b774ce1461026457600080fd5b80630a6aab6c146101525780630b3d738b1461017f57806310087fb11461019457806316934fc4146101a757806324f65ee7146101f2575b600080fd5b6101656101603660046115cf565b61037d565b604080519283526020830191909152015b60405180910390f35b61019261018d366004611600565b6103d3565b005b6101926101a2366004611635565b610536565b6101e26101b5366004611661565b60036020526000908152604090208054600182015460029092015490919060ff8082169161010090041684565b60405161017694939291906116c2565b6101fa61086a565b60405160ff9091168152602001610176565b61019261021a366004611661565b6108df565b610192610a53565b6001546101fa90600160a01b900460ff1681565b61024e610249366004611661565b610cbe565b604051908152602001610176565b610192610dde565b60025461027890600160a01b900460ff1681565b6040519015158152602001610176565b610192610dfb565b6002546102a3906001600160a01b031681565b6040516001600160a01b039091168152602001610176565b610192610e0d565b61024e60055481565b6102786102da366004611661565b61102e565b610192611130565b6001546001600160a01b03166102a3565b61030b610306366004611661565b611147565b604051610176969594939291906116ee565b61024e61032b366004611661565b611270565b61016561033e366004611726565b6004602052600090815260409020805460019091015482565b610192610365366004611726565b61139d565b610192610378366004611661565b6113c5565b6000806000600460008560048111156103985761039861168a565b60ff16815260208082019290925260409081016000208151808301909252805480835260019091015491909201819052909590945092505050565b6103db611403565b60048360ff16111561042a5760405162461bcd60e51b8152602060048201526013602482015272125b9d985b1a59081b1bd8dac81c195c9a5bd9606a1b60448201526064015b60405180910390fd5b600082116104715760405162461bcd60e51b815260206004820152601460248201527304475726174696f6e206d757374206265203e20360641b6044820152606401610421565b600081116104c15760405162461bcd60e51b815260206004820152601760248201527f5265776172642072617465206d757374206265203e20300000000000000000006044820152606401610421565b604080518082018252838152602080820184815260ff8716600081815260048452859020935184559051600190930192909255825191825281018490529081018290527f39cd0121351387f7629ab5375d6ab53e57076f19d79c00e765d104e40b61cfa09060600160405180910390a1505050565b61053e611430565b600082116105835760405162461bcd60e51b81526020600482015260126024820152710416d6f756e74206d757374206265203e20360741b6044820152606401610421565b60048160048111156105975761059761168a565b60ff1611156105de5760405162461bcd60e51b8152602060048201526013602482015272125b9d985b1a59081b1bd8dac81c195c9a5bd9606a1b6044820152606401610421565b336000908152600360205260409020541561063b5760405162461bcd60e51b815260206004820152601960248201527f416c7265616479206861766520616374697665207374616b65000000000000006044820152606401610421565b600061064561086a565b9050600061065482600a61183f565b61065e908561184e565b6002546040516370a0823160e01b81523060048201529192506000916001600160a01b03909116906370a0823190602401602060405180830381865afa1580156106ac573d6000803e3d6000fd5b505050506040513d601f19601f820116820180604052508101906106d09190611865565b6002549091506106eb906001600160a01b031633308561145a565b6002546040516370a0823160e01b815230600482015260009183916001600160a01b03909116906370a0823190602401602060405180830381865afa158015610738573d6000803e3d6000fd5b505050506040513d601f19601f8201168201806040525081019061075c9190611865565b610766919061187e565b905060405180608001604052808281526020014281526020018660048111156107915761079161168a565b815260016020918201819052336000908152600383526040908190208451815592840151838301558301516002830180549192909160ff1916908360048111156107dd576107dd61168a565b021790555060608201518160020160016101000a81548160ff02191690831515021790555090505080600560008282546108179190611891565b909155505060405133907f8acf475137e0cd74ca7f611d16b1e6383ec9a9c71a8e5b85967781b9c7214d119061085090849089906118a4565b60405180910390a2505050506108666001600055565b5050565b6002546040805163313ce56760e01b815290516000926001600160a01b03169163313ce5679160048083019260209291908290030181865afa9250505080156108d0575060408051601f3d908101601f191682019092526108cd918101906118b8565b60015b6108da5750601290565b919050565b6108e7611403565b600254600160a01b900460ff166109405760405162461bcd60e51b815260206004820152601860248201527f546f6b656e206368616e67652069732064697361626c656400000000000000006044820152606401610421565b6001600160a01b03811661098e5760405162461bcd60e51b8152602060048201526015602482015274496e76616c696420746f6b656e206164647265737360581b6044820152606401610421565b600554156109f75760405162461bcd60e51b815260206004820152603060248201527f43616e6e6f74206368616e676520746f6b656e207768656e207468657265206160448201526f726520616374697665207374616b657360801b6064820152608401610421565b6002546040516001600160a01b038084169216907fec507b76e4056f09193394a4361b44129ec561809ddee312c7f97121f93bb58b90600090a3600280546001600160a01b0319166001600160a01b0392909216919091179055565b610a5b611430565b3360009081526003602090815260408083208151608081018352815481526001820154938101939093526002810154909183019060ff166004811115610aa357610aa361168a565b6004811115610ab457610ab461168a565b815260029190910154610100900460ff1615156020909101528051909150610b095760405162461bcd60e51b81526020600482015260086024820152674e6f207374616b6560c01b6044820152606401610421565b8060600151610b4d5760405162461bcd60e51b815260206004820152601060248201526f5374616b65206e6f742061637469766560801b6044820152606401610421565b60006004600083604001516004811115610b6957610b6961168a565b60ff1681526020808201929092526040908101600020815180830190925280548083526001909101548284015291840151909250610ba79190611891565b421015610bf65760405162461bcd60e51b815260206004820152601960248201527f4c6f636b20706572696f64206e6f7420636f6d706c65746564000000000000006044820152606401610421565b6000610c0133611270565b90506000818460000151610c159190611891565b9050836000015160056000828254610c2d919061187e565b909155505033600081815260036020526040812081815560018101919091556002908101805461ffff1916905554610c71916001600160a01b0390911690836114c7565b8351604080519182526020820184905233917f7fc4727e062e336010f2c282598ef5f14facb3de68cf8195c2f23e1454b2b74e910160405180910390a250505050610cbc6001600055565b565b6001600160a01b0381166000908152600360209081526040808320815160808101835281548152600182015493810193909352600281015484939283019060ff166004811115610d1057610d1061168a565b6004811115610d2157610d2161168a565b815260029190910154610100900460ff16151560209091015280519091501580610d4d57508060600151155b15610d5b5750600092915050565b60006004600083604001516004811115610d7757610d7761168a565b60ff1681526020808201929092526040908101600090812082518084019093528054808452600190910154838501529285015191935091610db791611891565b9050804210610dcb57506000949350505050565b610dd5428261187e565b95945050505050565b610de6611403565b6002805460ff60a01b1916600160a01b179055565b610e03611403565b610cbc60006114fd565b610e15611430565b3360009081526003602090815260408083208151608081018352815481526001820154938101939093526002810154909183019060ff166004811115610e5d57610e5d61168a565b6004811115610e6e57610e6e61168a565b815260029190910154610100900460ff1615156020909101528051909150610ec35760405162461bcd60e51b81526020600482015260086024820152674e6f207374616b6560c01b6044820152606401610421565b8060600151610f075760405162461bcd60e51b815260206004820152601060248201526f5374616b65206e6f742061637469766560801b6044820152606401610421565b6002546040516370a0823160e01b81523060048201526000916001600160a01b0316906370a0823190602401602060405180830381865afa158015610f50573d6000803e3d6000fd5b505050506040513d601f19601f82011682018060405250810190610f749190611865565b9050600081836000015111610f8a578251610f8c565b815b9050826000015160056000828254610fa4919061187e565b90915550503360009081526003602052604081208181556001810191909155600201805461ffff191690558015610fec57600254610fec906001600160a01b031633836114c7565b60405181815233907fb7eb776ef583a719429ef1d1fa5f886dd63c2df82bd8da540ac25bdc81c4a1349060200160405180910390a2505050610cbc6001600055565b6001600160a01b0381166000908152600360209081526040808320815160808101835281548152600182015493810193909352600281015484939283019060ff1660048111156110805761108061168a565b60048111156110915761109161168a565b815260029190910154610100900460ff161515602090910152805190915015806110bd57508060600151155b156110cb5750600092915050565b600060046000836040015160048111156110e7576110e761168a565b60ff16815260208082019290925260409081016000208151808301909252805480835260019091015482840152918401519092506111259190611891565b421015949350505050565b611138611403565b6002805460ff60a01b19169055565b600080600080600080600060036000896001600160a01b03166001600160a01b0316815260200190815260200160002060405180608001604052908160008201548152602001600182015481526020016002820160009054906101000a900460ff1660048111156111ba576111ba61168a565b60048111156111cb576111cb61168a565b81526020016002820160019054906101000a900460ff1615151515815250509050600060046000836040015160048111156112085761120861168a565b60ff168152602080820192909252604090810160002081518083018352815480825260019092015481850152855193860151928601516060870151919550916112519084611891565b61125a8e611270565b949e939d50919b50995097509095509350505050565b6001600160a01b0381166000908152600360209081526040808320815160808101835281548152600182015493810193909352600281015484939283019060ff1660048111156112c2576112c261168a565b60048111156112d3576112d361168a565b815260029190910154610100900460ff161515602090910152805190915015806112ff57508060600151155b1561130d5750600092915050565b600060046000836040015160048111156113295761132961168a565b60ff16815260208082019290925260409081016000208151808301909252805480835260019091015482840152918401519092506113679190611891565b421015611378575060009392505050565b6020810151825160649161138b9161184e565b61139591906118d5565b949350505050565b6113a5611403565b6001805460ff909216600160a01b0260ff60a01b19909216919091179055565b6113cd611403565b6001600160a01b0381166113f757604051631e4fbdf760e01b815260006004820152602401610421565b611400816114fd565b50565b6001546001600160a01b03163314610cbc5760405163118cdaa760e01b8152336004820152602401610421565b60026000540361145357604051633ee5aeb560e01b815260040160405180910390fd5b6002600055565b6040516001600160a01b0384811660248301528381166044830152606482018390526114c19186918216906323b872dd906084015b604051602081830303815290604052915060e01b6020820180516001600160e01b03838183161783525050505061154f565b50505050565b6040516001600160a01b038381166024830152604482018390526114f891859182169063a9059cbb9060640161148f565b505050565b600180546001600160a01b038381166001600160a01b0319831681179093556040519116919082907f8be0079c531659141344cd1fd0a4f28419497f9722a3daafe3b4186f6b6457e090600090a35050565b600080602060008451602086016000885af180611572576040513d6000823e3d81fd5b50506000513d9150811561158a578060011415611597565b6001600160a01b0384163b155b156114c157604051635274afe760e01b81526001600160a01b0385166004820152602401610421565b8035600581106108da57600080fd5b6000602082840312156115e157600080fd5b6115ea826115c0565b9392505050565b60ff8116811461140057600080fd5b60008060006060848603121561161557600080fd5b8335611620816115f1565b95602085013595506040909401359392505050565b6000806040838503121561164857600080fd5b82359150611658602084016115c0565b90509250929050565b60006020828403121561167357600080fd5b81356001600160a01b03811681146115ea57600080fd5b634e487b7160e01b600052602160045260246000fd5b600581106116be57634e487b7160e01b600052602160045260246000fd5b9052565b84815260208101849052608081016116dd60408301856116a0565b821515606083015295945050505050565b8681526020810186905260c0810161170960408301876116a0565b9315156060820152608081019290925260a0909101529392505050565b60006020828403121561173857600080fd5b81356115ea816115f1565b634e487b7160e01b600052601160045260246000fd5b600181815b8085111561179457816000190482111561177a5761177a611743565b8085161561178757918102915b93841c939080029061175e565b509250929050565b6000826117ab57506001611839565b816117b857506000611839565b81600181146117ce57600281146117d8576117f4565b6001915050611839565b60ff8411156117e9576117e9611743565b50506001821b611839565b5060208310610133831016604e8410600b8410161715611817575081810a611839565b6118218383611759565b806000190482111561183557611835611743565b0290505b92915050565b60006115ea60ff84168361179c565b808202811582820484141761183957611839611743565b60006020828403121561187757600080fd5b5051919050565b8181038181111561183957611839611743565b8082018082111561183957611839611743565b828152604081016115ea60208301846116a0565b6000602082840312156118ca57600080fd5b81516115ea816115f1565b6000826118f257634e487b7160e01b600052601260045260246000fd5b50049056fea26469706673582212200195d95659b4ce69cecad8fc91f7167d935369f9c96862130d0df8952f8a127164736f6c63430008160033",
  "devdoc": {
    "errors": {
      "OwnableInvalidOwner(address)": [
        {
          "details": "The owner is not a valid owner account. (eg. `address(0)`)"
        }
      ],
      "OwnableUnauthorizedAccount(address)": [
        {
          "details": "The caller account is not authorized to perform an operation."
        }
      ],
      "ReentrancyGuardReentrantCall()": [
        {
          "details": "Unauthorized reentrant call."
        }
      ],
      "SafeERC20FailedOperation(address)": [
        {
          "details": "An operation with an ERC-20 token failed."
        }
      ]
    },
    "kind": "dev",
    "methods": {
      "owner()": {
        "details": "Returns the address of the current owner."
      },
      "renounceOwnership()": {
        "details": "Leaves the contract without owner. It will not be possible to call `onlyOwner` functions. Can only be called by the current owner. NOTE: Renouncing ownership will leave the contract without an owner, thereby disabling any functionality that is only available to the owner."
      },
      "transferOwnership(address)": {
        "details": "Transfers ownership of the contract to a new account (`newOwner`). Can only be called by the current owner."
      }
    },
    "version": 1
  },
  "userdoc": {
    "kind": "user",
    "methods": {},
    "version": 1
  },
  "storageLayout": {
    "storage": [
      {
        "astId": 846,
        "contract": "contracts/EnhancedStaking.sol:EnhancedStaking",
        "label": "_status",
        "offset": 0,
        "slot": "0",
        "type": "t_uint256"
      },
      {
        "astId": 8,
        "contract": "contracts/EnhancedStaking.sol:EnhancedStaking",
        "label": "_owner",
        "offset": 0,
        "slot": "1",
        "type": "t_address"
      },
      {
        "astId": 934,
        "contract": "contracts/EnhancedStaking.sol:EnhancedStaking",
        "label": "tokenDecimals",
        "offset": 20,
        "slot": "1",
        "type": "t_uint8"
      },
      {
        "astId": 937,
        "contract": "contracts/EnhancedStaking.sol:EnhancedStaking",
        "label": "stakingToken",
        "offset": 0,
        "slot": "2",
        "type": "t_contract(IERC20)315"
      },
      {
        "astId": 939,
        "contract": "contracts/EnhancedStaking.sol:EnhancedStaking",
        "label": "isTokenChangeable",
        "offset": 20,
        "slot": "2",
        "type": "t_bool"
      },
      {
        "astId": 965,
        "contract": "contracts/EnhancedStaking.sol:EnhancedStaking",
        "label": "stakes",
        "offset": 0,
        "slot": "3",
        "type": "t_mapping(t_address,t_struct(Stake)960_storage)"
      },
      {
        "astId": 970,
        "contract": "contracts/EnhancedStaking.sol:EnhancedStaking",
        "label": "lockOptions",
        "offset": 0,
        "slot": "4",
        "type": "t_mapping(t_uint8,t_struct(LockOption)950_storage)"
      },
      {
        "astId": 972,
        "contract": "contracts/EnhancedStaking.sol:EnhancedStaking",
        "label": "totalStaked",
        "offset": 0,
        "slot": "5",
        "type": "t_uint256"
      }
    ],
    "types": {
      "t_address": {
        "encoding": "inplace",
        "label": "address",
        "numberOfBytes": "20"
      },
      "t_bool": {
        "encoding": "inplace",
        "label": "bool",
        "numberOfBytes": "1"
      },
      "t_contract(IERC20)315": {
        "encoding": "inplace",
        "label": "contract IERC20",
        "numberOfBytes": "20"
      },
      "t_enum(LockPeriod)945": {
        "encoding": "inplace",
        "label": "enum EnhancedStaking.LockPeriod",
        "numberOfBytes": "1"
      },
      "t_mapping(t_address,t_struct(Stake)960_storage)": {
        "encoding": "mapping",
        "key": "t_address",
        "label": "mapping(address => struct EnhancedStaking.Stake)",
        "numberOfBytes": "32",
        "value": "t_struct(Stake)960_storage"
      },
      "t_mapping(t_uint8,t_struct(LockOption)950_storage)": {
        "encoding": "mapping",
        "key": "t_uint8",
        "label": "mapping(uint8 => struct EnhancedStaking.LockOption)",
        "numberOfBytes": "32",
        "value": "t_struct(LockOption)950_storage"
      },
      "t_struct(LockOption)950_storage": {
        "encoding": "inplace",
        "label": "struct EnhancedStaking.LockOption",
        "members": [
          {
            "astId": 947,
            "contract": "contracts/EnhancedStaking.sol:EnhancedStaking",
            "label": "duration",
            "offset": 0,
            "slot": "0",
            "type": "t_uint256"
          },
          {
            "astId": 949,
            "contract": "contracts/EnhancedStaking.sol:EnhancedStaking",
            "label": "rewardRate",
            "offset": 0,
            "slot": "1",
            "type": "t_uint256"
          }
        ],
        "numberOfBytes": "64"
      },
      "t_struct(Stake)960_storage": {
        "encoding": "inplace",
        "label": "struct EnhancedStaking.Stake",
        "members": [
          {
            "astId": 952,
            "contract": "contracts/EnhancedStaking.sol:EnhancedStaking",
            "label": "amount",
            "offset": 0,
            "slot": "0",
            "type": "t_uint256"
          },
          {
            "astId": 954,
            "contract": "contracts/EnhancedStaking.sol:EnhancedStaking",
            "label": "startTime",
            "offset": 0,
            "slot": "1",
            "type": "t_uint256"
          },
          {
            "astId": 957,
            "contract": "contracts/EnhancedStaking.sol:EnhancedStaking",
            "label": "lockPeriod",
            "offset": 0,
            "slot": "2",
            "type": "t_enum(LockPeriod)945"
          },
          {
            "astId": 959,
            "contract": "contracts/EnhancedStaking.sol:EnhancedStaking",
            "label": "isLocked",
            "offset": 1,
            "slot": "2",
            "type": "t_bool"
          }
        ],
        "numberOfBytes": "96"
      },
      "t_uint256": {
        "encoding": "inplace",
        "label": "uint256",
        "numberOfBytes": "32"
      },
      "t_uint8": {
        "encoding": "inplace",
        "label": "uint8",
        "numberOfBytes": "1"
      }
    }
  }
}