{
  "address": "0x218A45939ab22B0C1e17738574F55DA792919d62",
  "abi": [
    {
      "inputs": [],
      "stateMutability": "nonpayable",
      "type": "constructor"
    },
    {
      "inputs": [
        {
          "internalType": "address",
          "name": "owner",
          "type": "address"
        }
      ],
      "name": "OwnableInvalidOwner",
      "type": "error"
    },
    {
      "inputs": [
        {
          "internalType": "address",
          "name": "account",
          "type": "address"
        }
      ],
      "name": "OwnableUnauthorizedAccount",
      "type": "error"
    },
    {
      "anonymous": false,
      "inputs": [
        {
          "indexed": false,
          "internalType": "address",
          "name": "token",
          "type": "address"
        },
        {
          "indexed": false,
          "internalType": "address",
          "name": "usdt",
          "type": "address"
        },
        {
          "indexed": false,
          "internalType": "address",
          "name": "pair",
          "type": "address"
        },
        {
          "indexed": false,
          "internalType": "address",
          "name": "treasury",
          "type": "address"
        },
        {
          "indexed": false,
          "internalType": "uint256",
          "name": "totalAllocation",
          "type": "uint256"
        }
      ],
      "name": "Initialized",
      "type": "event"
    },
    {
      "anonymous": false,
      "inputs": [
        {
          "indexed": true,
          "internalType": "address",
          "name": "previousOwner",
          "type": "address"
        },
        {
          "indexed": true,
          "internalType": "address",
          "name": "newOwner",
          "type": "address"
        }
      ],
      "name": "OwnershipTransferred",
      "type": "event"
    },
    {
      "anonymous": false,
      "inputs": [
        {
          "indexed": false,
          "internalType": "uint256",
          "name": "monthIndex",
          "type": "uint256"
        },
        {
          "indexed": false,
          "internalType": "uint256",
          "name": "amountToTreasury",
          "type": "uint256"
        },
        {
          "indexed": false,
          "internalType": "uint256",
          "name": "burned",
          "type": "uint256"
        },
        {
          "indexed": false,
          "internalType": "uint256",
          "name": "avgPrice",
          "type": "uint256"
        }
      ],
      "name": "Released",
      "type": "event"
    },
    {
      "anonymous": false,
      "inputs": [
        {
          "indexed": true,
          "internalType": "address",
          "name": "treasury",
          "type": "address"
        }
      ],
      "name": "TreasuryUpdated",
      "type": "event"
    },
    {
      "inputs": [],
      "name": "MONTH",
      "outputs": [
        {
          "internalType": "uint256",
          "name": "",
          "type": "uint256"
        }
      ],
      "stateMutability": "view",
      "type": "function"
    },
    {
      "inputs": [],
      "name": "TOTAL_MONTHS",
      "outputs": [
        {
          "internalType": "uint256",
          "name": "",
          "type": "uint256"
        }
      ],
      "stateMutability": "view",
      "type": "function"
    },
    {
      "inputs": [
        {
          "internalType": "address",
          "name": "_token",
          "type": "address"
        },
        {
          "internalType": "address",
          "name": "_usdt",
          "type": "address"
        },
        {
          "internalType": "address",
          "name": "_pair",
          "type": "address"
        },
        {
          "internalType": "address",
          "name": "_treasury",
          "type": "address"
        },
        {
          "internalType": "uint256",
          "name": "_totalAllocation",
          "type": "uint256"
        }
      ],
      "name": "initialize",
      "outputs": [],
      "stateMutability": "nonpayable",
      "type": "function"
    },
    {
      "inputs": [],
      "name": "initialized",
      "outputs": [
        {
          "internalType": "bool",
          "name": "",
          "type": "bool"
        }
      ],
      "stateMutability": "view",
      "type": "function"
    },
    {
      "inputs": [],
      "name": "lastPriceCumulative",
      "outputs": [
        {
          "internalType": "uint256",
          "name": "",
          "type": "uint256"
        }
      ],
      "stateMutability": "view",
      "type": "function"
    },
    {
      "inputs": [],
      "name": "lastTimestamp",
      "outputs": [
        {
          "internalType": "uint32",
          "name": "",
          "type": "uint32"
        }
      ],
      "stateMutability": "view",
      "type": "function"
    },
    {
      "inputs": [],
      "name": "monthlyAmount",
      "outputs": [
        {
          "internalType": "uint256",
          "name": "",
          "type": "uint256"
        }
      ],
      "stateMutability": "view",
      "type": "function"
    },
    {
      "inputs": [],
      "name": "monthsReleased",
      "outputs": [
        {
          "internalType": "uint256",
          "name": "",
          "type": "uint256"
        }
      ],
      "stateMutability": "view",
      "type": "function"
    },
    {
      "inputs": [],
      "name": "nextReleaseTime",
      "outputs": [
        {
          "internalType": "uint256",
          "name": "",
          "type": "uint256"
        }
      ],
      "stateMutability": "view",
      "type": "function"
    },
    {
      "inputs": [],
      "name": "owner",
      "outputs": [
        {
          "internalType": "address",
          "name": "",
          "type": "address"
        }
      ],
      "stateMutability": "view",
      "type": "function"
    },
    {
      "inputs": [],
      "name": "pair",
      "outputs": [
        {
          "internalType": "contract IUniswapV2Pair",
          "name": "",
          "type": "address"
        }
      ],
      "stateMutability": "view",
      "type": "function"
    },
    {
      "inputs": [],
      "name": "previousMonthAvgPrice",
      "outputs": [
        {
          "internalType": "uint256",
          "name": "",
          "type": "uint256"
        }
      ],
      "stateMutability": "view",
      "type": "function"
    },
    {
      "inputs": [],
      "name": "release",
      "outputs": [],
      "stateMutability": "nonpayable",
      "type": "function"
    },
    {
      "inputs": [],
      "name": "renounceOwnership",
      "outputs": [],
      "stateMutability": "nonpayable",
      "type": "function"
    },
    {
      "inputs": [
        {
          "internalType": "address",
          "name": "_treasury",
          "type": "address"
        }
      ],
      "name": "setTreasury",
      "outputs": [],
      "stateMutability": "nonpayable",
      "type": "function"
    },
    {
      "inputs": [],
      "name": "startTimestamp",
      "outputs": [
        {
          "internalType": "uint256",
          "name": "",
          "type": "uint256"
        }
      ],
      "stateMutability": "view",
      "type": "function"
    },
    {
      "inputs": [],
      "name": "token",
      "outputs": [
        {
          "internalType": "contract IERC20",
          "name": "",
          "type": "address"
        }
      ],
      "stateMutability": "view",
      "type": "function"
    },
    {
      "inputs": [],
      "name": "tokenDecimals",
      "outputs": [
        {
          "internalType": "uint8",
          "name": "",
          "type": "uint8"
        }
      ],
      "stateMutability": "view",
      "type": "function"
    },
    {
      "inputs": [],
      "name": "tokenIsToken0",
      "outputs": [
        {
          "internalType": "bool",
          "name": "",
          "type": "bool"
        }
      ],
      "stateMutability": "view",
      "type": "function"
    },
    {
      "inputs": [],
      "name": "totalAllocation",
      "outputs": [
        {
          "internalType": "uint256",
          "name": "",
          "type": "uint256"
        }
      ],
      "stateMutability": "view",
      "type": "function"
    },
    {
      "inputs": [
        {
          "internalType": "address",
          "name": "newOwner",
          "type": "address"
        }
      ],
      "name": "transferOwnership",
      "outputs": [],
      "stateMutability": "nonpayable",
      "type": "function"
    },
    {
      "inputs": [],
      "name": "treasury",
      "outputs": [
        {
          "internalType": "address",
          "name": "",
          "type": "address"
        }
      ],
      "stateMutability": "view",
      "type": "function"
    },
    {
      "inputs": [],
      "name": "usdt",
      "outputs": [
        {
          "internalType": "contract IERC20",
          "name": "",
          "type": "address"
        }
      ],
      "stateMutability": "view",
      "type": "function"
    },
    {
      "inputs": [],
      "name": "usdtDecimals",
      "outputs": [
        {
          "internalType": "uint8",
          "name": "",
          "type": "uint8"
        }
      ],
      "stateMutability": "view",
      "type": "function"
    }
  ],
  "transactionHash": "0xfd722ad17840ca8ae1594f94bba8fcf8f68d3be4cb8bef4fa19001d7c5360778",
  "args": [],
  "numDeployments": 1,
  "solcInputHash": "212241ed35aabfd854eb6ed6426bd7d9",
  "bytecode": "0x6080806040523461007a5733156100645760008054336001600160a01b03198216811783556040519290916001600160a01b0316907f8be0079c531659141344cd1fd0a4f28419497f9722a3daafe3b4186f6b6457e09080a361128f90816100808239f35b631e4fbdf760e01b815260006004820152602490fd5b600080fdfe608060408181526004918236101561001657600080fd5b600092833560e01c918263158ef93e14610e4d5750816319d8ac6114610e285781632f48ab7d14610dff5781633b97e85614610ddb57816361d027b314610db35781636588439c14610d945781636d6a488914610d70578163715018a614610d165781637442df6514610cf757816379203dc414610cd857816382543b3214610cb4578163856bfdb814610c8b57816386d1a69f146107ae5781638da5cb5b146107865781639a04a36a14610767578163a8aa1b311461073e578163d5999a5c14610720578163e6fd48bc14610701578163e8409ad6146106e2578163f0f4426014610673578163f2fde38b146105e2578163f522738c146105c6578163f7013ef614610158575063fc0c546a1461012d57600080fd5b3461015457816003193601126101545760015490516001600160a01b039091168152602090f35b5080fd5b9050346105c25760a03660031901126105c257610173610e6f565b906001600160a01b03602435818116908190036105bd57604435908282168092036105bd57606435928084168094036105bd57608435946101b2610fdf565b80549660ff8860a01c16610584578216968715158061057b575b80610572575b1561053d576101e2861515610f68565b861561050557848a6bffffffffffffffffffffffff60a01b8a8160015416176001558681600254161760025588600354918481841617600355851617855589600555603c8a046006551617895193630dfe168160e01b85526020948c86828781875afa9384156104f95786928892956104da575b508d5163d21220a760e01b815292839182905afa908d82156104cf5788948d928592946104a0575b50168181149485949185610494575b8515610470575b50505050501561043d5760ff60a81b60a89190911b16600161ff0160a01b03198216871781178355895163313ce56760e01b8082528c929091868187818f5afa908115610416578491610420575b5060ff60b01b60b09190911b16600162ffff0160a01b031985168a178217811786558c5192835291868187818b5afa908115610416579163ffffffff60ff7fb9bf2986b44bc4d312da1451b923a8676446e697dc0d76abe92d41a0052077139f9997959360a09f9e9d9c9b99979586916103e9575b508160b81b9060b81b16948f8d6bffffffffffffffff000000ff88921b89161785178617179081895561038861101f565b94919390925060a81c16156103e257505b600a551663ffffffff19600b541617600b55426008558960018e1b9467ffffffffffffffff60c01b1617171717179055825196875286015284015260608301526080820152a180f35b9050610399565b6104099150893d8b1161040f575b6104018183610f30565b810190610fc6565b38610357565b503d6103f7565b8d513d86823e3d90fd5b6104379150873d891161040f576104018183610f30565b386102e2565b895162461bcd60e51b8152808401859052600d60248201526c0a0c2d2e440dad2e6dac2e8c6d609b1b6044820152606490fd5b149350909183610488575b505050388a818881610294565b1614905089388061047b565b8483168214955061028d565b6104c1919450893d8b116104c8575b6104b98183610f30565b810190610fa7565b923861027e565b503d6104af565b8d51903d90823e3d90fd5b6104f2919550823d84116104c8576104b98183610f30565b9338610256565b508c51903d90823e3d90fd5b885162461bcd60e51b8152602081840152601260248201527124b73b30b634b21030b63637b1b0ba34b7b760711b6044820152606490fd5b885162461bcd60e51b8152602081840152600f60248201526e496e76616c6964206164647265737360881b6044820152606490fd5b508415156101d2565b508315156101cc565b885162461bcd60e51b81526020818401526013602482015272105b1c9958591e481a5b9a5d1a585b1a5e9959606a1b6044820152606490fd5b600080fd5b8280fd5b50503461015457816003193601126101545760209051603c8152f35b9050346105c25760203660031901126105c2576105fd610e6f565b90610606610fdf565b6001600160a01b0391821692831561065d575050600054826bffffffffffffffffffffffff60a01b821617600055167f8be0079c531659141344cd1fd0a4f28419497f9722a3daafe3b4186f6b6457e0600080a380f35b51631e4fbdf760e01b8152908101849052602490fd5b8390346101545760203660031901126101545761068e610e6f565b610696610fdf565b6001600160a01b0316906106ab821515610f68565b80546001600160a01b031916821790557f7dae230f18360d76a040c81f050aa14eb9d6dc7901b20fc5d855e2a20fe814d18280a280f35b5050346101545781600319360112610154576020906009549051908152f35b5050346101545781600319360112610154576020906008549051908152f35b5050346101545781600319360112610154576020905162278d008152f35b50503461015457816003193601126101545760035490516001600160a01b039091168152602090f35b505034610154578160031936011261015457602090600a549051908152f35b505034610154578160031936011261015457905490516001600160a01b039091168152602090f35b83915034610154578160031936011261015457805460ff8160a01c1615610c5657600754603c811015610c1d576107e3610ebb565b4210610bee576107f161101f565b92919060ff8560a81c16600014610be65750905b600b5463ffffffff948561081b81841687610eed565b1662278d008110610bab5761083e61085391610839600a5488610f03565b610f10565b61084d60ff8460b01c1661124b565b90610ea8565b90670de0b6b3a764000091828102928184041490151715610b985760ff61087d9160b81c1661124b565b71ffffffffffffffffffffffffffffffffffff81168103610b9857906108a69160701b90610f10565b946005546108c1600654916108bb8684610ea8565b90610f03565b9060018501809511610b8557603c8503610b7d5750945b889560095480159081159182610b4a575b5050610b3e575b866108fa91610f03565b9487600955600a55169063ffffffff191617600b5560075581610ac2575b60015486516370a0823160e01b81523081870152602095916001600160a01b03908116918781602481865afa908115610ab8579085918a91610a87575b5010610a4d578791604488928554168b51948593849263a9059cbb60e01b8452888401528860248401525af1908115610a43578791610a09575b50156109d457506007548651908152938401528285015260608201527f39c15e2884a29a8ddf54563c3cb131c46f3667ecc29b194be9f5cf91b287972590608090a180f35b865162461bcd60e51b8152908101859052600f60248201526e151c985b9cd9995c8819985a5b1959608a1b6044820152606490fd5b90508581813d8311610a3c575b610a208183610f30565b81010312610a3857518015158103610a38578861098f565b8680fd5b503d610a16565b88513d89823e3d90fd5b885162461bcd60e51b81528084018890526014602482015273496e73756666696369656e742062616c616e636560601b6044820152606490fd5b809250898092503d8311610ab1575b610aa08183610f30565b810103126105bd578490518b610955565b503d610a96565b8a513d8b823e3d90fd5b6001546001600160a01b0316803b15610b3a5785809160248951809481936311c9127560e01b8352888b8401525af18015610b3057610b02575b50610918565b67ffffffffffffffff8196929611610b1d5786529386610afc565b634e487b7160e01b825260418552602482fd5b87513d88823e3d90fd5b8580fd5b600181901c96506108f0565b909150605082029182046050141715610b6a576064900488108c806108e9565b634e487b7160e01b8b5260118a5260248bfd5b9050946108d8565b634e487b7160e01b8a526011895260248afd5b634e487b7160e01b895260118852602489fd5b895162461bcd60e51b81526020818a015260156024820152741515d054081c195c9a5bd9081d1bdbc81cda1bdc9d605a1b6044820152606490fd5b905090610805565b845162461bcd60e51b81526020818501526009602482015268546f6f206561726c7960b81b6044820152606490fd5b845162461bcd60e51b81526020818501526013602482015272105b1b081b5bdb9d1a1cc81c995b19585cd959606a1b6044820152606490fd5b835162461bcd60e51b8152602081840152600f60248201526e139bdd081a5b9a5d1a585b1a5e9959608a1b6044820152606490fd5b828434610cb15780600319360112610cb1575060ff6020925460a81c1690519015158152f35b80fd5b828434610cb15780600319360112610cb1575060ff6020925460b81c169051908152f35b5050346101545781600319360112610154576020906005549051908152f35b5050346101545781600319360112610154576020906007549051908152f35b8334610cb15780600319360112610cb157610d2f610fdf565b80546001600160a01b03198116825581906001600160a01b03167f8be0079c531659141344cd1fd0a4f28419497f9722a3daafe3b4186f6b6457e08280a380f35b505034610154578160031936011261015457602090610d8d610ebb565b9051908152f35b5050346101545781600319360112610154576020906006549051908152f35b9050346105c257826003193601126105c2575490516001600160a01b03909116815260209150f35b828434610cb15780600319360112610cb1575060ff6020925460b01c169051908152f35b50503461015457816003193601126101545760025490516001600160a01b039091168152602090f35b50503461015457816003193601126101545760209063ffffffff600b54169051908152f35b8434610cb15780600319360112610cb1575060ff6020925460a01c1615158152f35b600435906001600160a01b03821682036105bd57565b91908201809211610e9257565b634e487b7160e01b600052601160045260246000fd5b81810292918115918404141715610e9257565b60085460075460018101809111610e925762278d0090818102918183041490151715610e9257610eea91610e85565b90565b63ffffffff9182169082160391908211610e9257565b91908203918211610e9257565b8115610f1a570490565b634e487b7160e01b600052601260045260246000fd5b90601f8019910116810190811067ffffffffffffffff821117610f5257604052565b634e487b7160e01b600052604160045260246000fd5b15610f6f57565b60405162461bcd60e51b815260206004820152601060248201526f496e76616c696420747265617375727960801b6044820152606490fd5b908160209103126105bd57516001600160a01b03811681036105bd5790565b908160209103126105bd575160ff811681036105bd5790565b6000546001600160a01b03163303610ff357565b60405163118cdaa760e01b8152336004820152602490fd5b51906001600160701b03821682036105bd57565b60035460408051635909c0d560e01b815290926001600160a01b039092169160208083600481875afa92831561124057600093611211575b508451635a3d549360e01b81529294858285600481895afa908115611206576000916111d6575b6004955060608297845197888092630240bc6b60e21b82525afa9586156111cb5760009485948698611166575b50505063ffffffff908142169687838216036110ca575b505050505050565b90929498506110dd919395975086610eed565b906001600160701b0394858116936001600160701b0360701b809260701b1692600160701b97868504891487151715610e92576111339261112461112d928e168097610f10565b96168096610ea8565b90610e85565b9860701b16948186041490151715610e925761115561112d9261115a95610f10565b610ea8565b913880808080806110c2565b919594509196506060853d6060116111c3575b8161118660609383610f30565b810103126111bf576111a261119a8661100b565b92860161100b565b9401519263ffffffff84168403610cb157509291943880806110ab565b8380fd5b3d9150611179565b83513d6000823e3d90fd5b90508285813d83116111ff575b6111ed8183610f30565b810103126105bd57600494519061107e565b503d6111e3565b82513d6000823e3d90fd5b9080935081813d8311611239575b6112298183610f30565b810103126105bd57519138611057565b503d61121f565b85513d6000823e3d90fd5b604d8111610e9257600a0a9056fea264697066735822122086760ae561aab1372ad68654eb7db1046b9fae24caa8deb58bb200dfe1cc41ef64736f6c63430008160033",
  "devdoc": {
    "errors": {
      "OwnableInvalidOwner(address)": [
        {
          "details": "The owner is not a valid owner account. (eg. `address(0)`)"
        }
      ],
      "OwnableUnauthorizedAccount(address)": [
        {
          "details": "The caller account is not authorized to perform an operation."
        }
      ]
    },
    "kind": "dev",
    "methods": {
      "owner()": {
        "details": "Returns the address of the current owner."
      },
      "renounceOwnership()": {
        "details": "Leaves the contract without owner. It will not be possible to call `onlyOwner` functions. Can only be called by the current owner. NOTE: Renouncing ownership will leave the contract without an owner, thereby disabling any functionality that is only available to the owner."
      },
      "transferOwnership(address)": {
        "details": "Transfers ownership of the contract to a new account (`newOwner`). Can only be called by the current owner."
      }
    },
    "version": 1
  },
  "userdoc": {
    "kind": "user",
    "methods": {},
    "version": 1
  },
  "storageLayout": {
    "storage": [
      {
        "astId": 3861,
        "contract": "contracts/WancashVesting.sol:WancashVesting",
        "label": "_owner",
        "offset": 0,
        "slot": "0",
        "type": "t_address"
      },
      {
        "astId": 6199,
        "contract": "contracts/WancashVesting.sol:WancashVesting",
        "label": "token",
        "offset": 0,
        "slot": "1",
        "type": "t_contract(IERC20)4820"
      },
      {
        "astId": 6202,
        "contract": "contracts/WancashVesting.sol:WancashVesting",
        "label": "usdt",
        "offset": 0,
        "slot": "2",
        "type": "t_contract(IERC20)4820"
      },
      {
        "astId": 6205,
        "contract": "contracts/WancashVesting.sol:WancashVesting",
        "label": "pair",
        "offset": 0,
        "slot": "3",
        "type": "t_contract(IUniswapV2Pair)6188"
      },
      {
        "astId": 6207,
        "contract": "contracts/WancashVesting.sol:WancashVesting",
        "label": "treasury",
        "offset": 0,
        "slot": "4",
        "type": "t_address"
      },
      {
        "astId": 6209,
        "contract": "contracts/WancashVesting.sol:WancashVesting",
        "label": "initialized",
        "offset": 20,
        "slot": "4",
        "type": "t_bool"
      },
      {
        "astId": 6211,
        "contract": "contracts/WancashVesting.sol:WancashVesting",
        "label": "tokenIsToken0",
        "offset": 21,
        "slot": "4",
        "type": "t_bool"
      },
      {
        "astId": 6213,
        "contract": "contracts/WancashVesting.sol:WancashVesting",
        "label": "tokenDecimals",
        "offset": 22,
        "slot": "4",
        "type": "t_uint8"
      },
      {
        "astId": 6215,
        "contract": "contracts/WancashVesting.sol:WancashVesting",
        "label": "usdtDecimals",
        "offset": 23,
        "slot": "4",
        "type": "t_uint8"
      },
      {
        "astId": 6217,
        "contract": "contracts/WancashVesting.sol:WancashVesting",
        "label": "totalAllocation",
        "offset": 0,
        "slot": "5",
        "type": "t_uint256"
      },
      {
        "astId": 6219,
        "contract": "contracts/WancashVesting.sol:WancashVesting",
        "label": "monthlyAmount",
        "offset": 0,
        "slot": "6",
        "type": "t_uint256"
      },
      {
        "astId": 6221,
        "contract": "contracts/WancashVesting.sol:WancashVesting",
        "label": "monthsReleased",
        "offset": 0,
        "slot": "7",
        "type": "t_uint256"
      },
      {
        "astId": 6223,
        "contract": "contracts/WancashVesting.sol:WancashVesting",
        "label": "startTimestamp",
        "offset": 0,
        "slot": "8",
        "type": "t_uint256"
      },
      {
        "astId": 6225,
        "contract": "contracts/WancashVesting.sol:WancashVesting",
        "label": "previousMonthAvgPrice",
        "offset": 0,
        "slot": "9",
        "type": "t_uint256"
      },
      {
        "astId": 6227,
        "contract": "contracts/WancashVesting.sol:WancashVesting",
        "label": "lastPriceCumulative",
        "offset": 0,
        "slot": "10",
        "type": "t_uint256"
      },
      {
        "astId": 6229,
        "contract": "contracts/WancashVesting.sol:WancashVesting",
        "label": "lastTimestamp",
        "offset": 0,
        "slot": "11",
        "type": "t_uint32"
      }
    ],
    "types": {
      "t_address": {
        "encoding": "inplace",
        "label": "address",
        "numberOfBytes": "20"
      },
      "t_bool": {
        "encoding": "inplace",
        "label": "bool",
        "numberOfBytes": "1"
      },
      "t_contract(IERC20)4820": {
        "encoding": "inplace",
        "label": "contract IERC20",
        "numberOfBytes": "20"
      },
      "t_contract(IUniswapV2Pair)6188": {
        "encoding": "inplace",
        "label": "contract IUniswapV2Pair",
        "numberOfBytes": "20"
      },
      "t_uint256": {
        "encoding": "inplace",
        "label": "uint256",
        "numberOfBytes": "32"
      },
      "t_uint32": {
        "encoding": "inplace",
        "label": "uint32",
        "numberOfBytes": "4"
      },
      "t_uint8": {
        "encoding": "inplace",
        "label": "uint8",
        "numberOfBytes": "1"
      }
    }
  }
}