{
  "address": "0xEb8F590982b8068f77f33192EC5d3E80a7AA5aE7",
  "abi": [
    {
      "inputs": [
        {
          "internalType": "string",
          "name": "_name",
          "type": "string"
        },
        {
          "internalType": "string",
          "name": "_symbol",
          "type": "string"
        },
        {
          "internalType": "address",
          "name": "_lzEndpoint",
          "type": "address"
        },
        {
          "internalType": "address",
          "name": "_delegate",
          "type": "address"
        },
        {
          "internalType": "address",
          "name": "_treasury",
          "type": "address"
        },
        {
          "internalType": "uint16",
          "name": "_mainChainId",
          "type": "uint16"
        },
        {
          "internalType": "uint256",
          "name": "_initialSupply",
          "type": "uint256"
        },
        {
          "internalType": "uint256",
          "name": "_ownerAllocation",
          "type": "uint256"
        },
        {
          "internalType": "address",
          "name": "_vestingContract",
          "type": "address"
        }
      ],
      "stateMutability": "nonpayable",
      "type": "constructor"
    },
    {
      "inputs": [
        {
          "internalType": "uint256",
          "name": "amountSD",
          "type": "uint256"
        }
      ],
      "name": "AmountSDOverflowed",
      "type": "error"
    },
    {
      "inputs": [
        {
          "internalType": "address",
          "name": "spender",
          "type": "address"
        },
        {
          "internalType": "uint256",
          "name": "allowance",
          "type": "uint256"
        },
        {
          "internalType": "uint256",
          "name": "needed",
          "type": "uint256"
        }
      ],
      "name": "ERC20InsufficientAllowance",
      "type": "error"
    },
    {
      "inputs": [
        {
          "internalType": "address",
          "name": "sender",
          "type": "address"
        },
        {
          "internalType": "uint256",
          "name": "balance",
          "type": "uint256"
        },
        {
          "internalType": "uint256",
          "name": "needed",
          "type": "uint256"
        }
      ],
      "name": "ERC20InsufficientBalance",
      "type": "error"
    },
    {
      "inputs": [
        {
          "internalType": "address",
          "name": "approver",
          "type": "address"
        }
      ],
      "name": "ERC20InvalidApprover",
      "type": "error"
    },
    {
      "inputs": [
        {
          "internalType": "address",
          "name": "receiver",
          "type": "address"
        }
      ],
      "name": "ERC20InvalidReceiver",
      "type": "error"
    },
    {
      "inputs": [
        {
          "internalType": "address",
          "name": "sender",
          "type": "address"
        }
      ],
      "name": "ERC20InvalidSender",
      "type": "error"
    },
    {
      "inputs": [
        {
          "internalType": "address",
          "name": "spender",
          "type": "address"
        }
      ],
      "name": "ERC20InvalidSpender",
      "type": "error"
    },
    {
      "inputs": [],
      "name": "InvalidDelegate",
      "type": "error"
    },
    {
      "inputs": [],
      "name": "InvalidEndpointCall",
      "type": "error"
    },
    {
      "inputs": [],
      "name": "InvalidLocalDecimals",
      "type": "error"
    },
    {
      "inputs": [
        {
          "internalType": "bytes",
          "name": "options",
          "type": "bytes"
        }
      ],
      "name": "InvalidOptions",
      "type": "error"
    },
    {
      "inputs": [],
      "name": "LzTokenUnavailable",
      "type": "error"
    },
    {
      "inputs": [
        {
          "internalType": "uint32",
          "name": "eid",
          "type": "uint32"
        }
      ],
      "name": "NoPeer",
      "type": "error"
    },
    {
      "inputs": [
        {
          "internalType": "uint256",
          "name": "msgValue",
          "type": "uint256"
        }
      ],
      "name": "NotEnoughNative",
      "type": "error"
    },
    {
      "inputs": [
        {
          "internalType": "address",
          "name": "addr",
          "type": "address"
        }
      ],
      "name": "OnlyEndpoint",
      "type": "error"
    },
    {
      "inputs": [
        {
          "internalType": "uint32",
          "name": "eid",
          "type": "uint32"
        },
        {
          "internalType": "bytes32",
          "name": "sender",
          "type": "bytes32"
        }
      ],
      "name": "OnlyPeer",
      "type": "error"
    },
    {
      "inputs": [],
      "name": "OnlySelf",
      "type": "error"
    },
    {
      "inputs": [
        {
          "internalType": "address",
          "name": "owner",
          "type": "address"
        }
      ],
      "name": "OwnableInvalidOwner",
      "type": "error"
    },
    {
      "inputs": [
        {
          "internalType": "address",
          "name": "account",
          "type": "address"
        }
      ],
      "name": "OwnableUnauthorizedAccount",
      "type": "error"
    },
    {
      "inputs": [
        {
          "internalType": "address",
          "name": "token",
          "type": "address"
        }
      ],
      "name": "SafeERC20FailedOperation",
      "type": "error"
    },
    {
      "inputs": [
        {
          "internalType": "bytes",
          "name": "result",
          "type": "bytes"
        }
      ],
      "name": "SimulationResult",
      "type": "error"
    },
    {
      "inputs": [
        {
          "internalType": "uint256",
          "name": "amountLD",
          "type": "uint256"
        },
        {
          "internalType": "uint256",
          "name": "minAmountLD",
          "type": "uint256"
        }
      ],
      "name": "SlippageExceeded",
      "type": "error"
    },
    {
      "anonymous": false,
      "inputs": [
        {
          "indexed": false,
          "internalType": "uint256",
          "name": "duration",
          "type": "uint256"
        }
      ],
      "name": "AntiBotDurationUpdated",
      "type": "event"
    },
    {
      "anonymous": false,
      "inputs": [
        {
          "indexed": true,
          "internalType": "address",
          "name": "owner",
          "type": "address"
        },
        {
          "indexed": true,
          "internalType": "address",
          "name": "spender",
          "type": "address"
        },
        {
          "indexed": false,
          "internalType": "uint256",
          "name": "value",
          "type": "uint256"
        }
      ],
      "name": "Approval",
      "type": "event"
    },
    {
      "anonymous": false,
      "inputs": [
        {
          "components": [
            {
              "internalType": "uint32",
              "name": "eid",
              "type": "uint32"
            },
            {
              "internalType": "uint16",
              "name": "msgType",
              "type": "uint16"
            },
            {
              "internalType": "bytes",
              "name": "options",
              "type": "bytes"
            }
          ],
          "indexed": false,
          "internalType": "struct EnforcedOptionParam[]",
          "name": "_enforcedOptions",
          "type": "tuple[]"
        }
      ],
      "name": "EnforcedOptionSet",
      "type": "event"
    },
    {
      "anonymous": false,
      "inputs": [
        {
          "indexed": true,
          "internalType": "address",
          "name": "account",
          "type": "address"
        },
        {
          "indexed": false,
          "internalType": "bool",
          "name": "isExcluded",
          "type": "bool"
        }
      ],
      "name": "ExcludeFromFee",
      "type": "event"
    },
    {
      "anonymous": false,
      "inputs": [
        {
          "indexed": true,
          "internalType": "address",
          "name": "account",
          "type": "address"
        },
        {
          "indexed": false,
          "internalType": "bool",
          "name": "isExcluded",
          "type": "bool"
        }
      ],
      "name": "ExcludeFromLimits",
      "type": "event"
    },
    {
      "anonymous": false,
      "inputs": [
        {
          "indexed": false,
          "internalType": "bool",
          "name": "enabled",
          "type": "bool"
        }
      ],
      "name": "LimitsEnabledUpdated",
      "type": "event"
    },
    {
      "anonymous": false,
      "inputs": [
        {
          "indexed": false,
          "internalType": "uint256",
          "name": "maxWallet",
          "type": "uint256"
        }
      ],
      "name": "MaxWalletAmountUpdated",
      "type": "event"
    },
    {
      "anonymous": false,
      "inputs": [
        {
          "indexed": false,
          "internalType": "address",
          "name": "inspector",
          "type": "address"
        }
      ],
      "name": "MsgInspectorSet",
      "type": "event"
    },
    {
      "anonymous": false,
      "inputs": [
        {
          "indexed": true,
          "internalType": "bytes32",
          "name": "guid",
          "type": "bytes32"
        },
        {
          "indexed": false,
          "internalType": "uint32",
          "name": "srcEid",
          "type": "uint32"
        },
        {
          "indexed": true,
          "internalType": "address",
          "name": "toAddress",
          "type": "address"
        },
        {
          "indexed": false,
          "internalType": "uint256",
          "name": "amountReceivedLD",
          "type": "uint256"
        }
      ],
      "name": "OFTReceived",
      "type": "event"
    },
    {
      "anonymous": false,
      "inputs": [
        {
          "indexed": true,
          "internalType": "bytes32",
          "name": "guid",
          "type": "bytes32"
        },
        {
          "indexed": false,
          "internalType": "uint32",
          "name": "dstEid",
          "type": "uint32"
        },
        {
          "indexed": true,
          "internalType": "address",
          "name": "fromAddress",
          "type": "address"
        },
        {
          "indexed": false,
          "internalType": "uint256",
          "name": "amountSentLD",
          "type": "uint256"
        },
        {
          "indexed": false,
          "internalType": "uint256",
          "name": "amountReceivedLD",
          "type": "uint256"
        }
      ],
      "name": "OFTSent",
      "type": "event"
    },
    {
      "anonymous": false,
      "inputs": [
        {
          "indexed": true,
          "internalType": "address",
          "name": "previousOwner",
          "type": "address"
        },
        {
          "indexed": true,
          "internalType": "address",
          "name": "newOwner",
          "type": "address"
        }
      ],
      "name": "OwnershipTransferred",
      "type": "event"
    },
    {
      "anonymous": false,
      "inputs": [
        {
          "indexed": false,
          "internalType": "uint32",
          "name": "eid",
          "type": "uint32"
        },
        {
          "indexed": false,
          "internalType": "bytes32",
          "name": "peer",
          "type": "bytes32"
        }
      ],
      "name": "PeerSet",
      "type": "event"
    },
    {
      "anonymous": false,
      "inputs": [
        {
          "indexed": false,
          "internalType": "address",
          "name": "preCrimeAddress",
          "type": "address"
        }
      ],
      "name": "PreCrimeSet",
      "type": "event"
    },
    {
      "anonymous": false,
      "inputs": [
        {
          "indexed": true,
          "internalType": "address",
          "name": "pair",
          "type": "address"
        },
        {
          "indexed": true,
          "internalType": "bool",
          "name": "value",
          "type": "bool"
        }
      ],
      "name": "SetAutomatedMarketMakerPair",
      "type": "event"
    },
    {
      "anonymous": false,
      "inputs": [
        {
          "indexed": false,
          "internalType": "uint256",
          "name": "buyTax",
          "type": "uint256"
        },
        {
          "indexed": false,
          "internalType": "uint256",
          "name": "sellTax",
          "type": "uint256"
        }
      ],
      "name": "TaxesUpdated",
      "type": "event"
    },
    {
      "anonymous": false,
      "inputs": [
        {
          "indexed": true,
          "internalType": "address",
          "name": "from",
          "type": "address"
        },
        {
          "indexed": true,
          "internalType": "address",
          "name": "to",
          "type": "address"
        },
        {
          "indexed": false,
          "internalType": "uint256",
          "name": "value",
          "type": "uint256"
        }
      ],
      "name": "Transfer",
      "type": "event"
    },
    {
      "anonymous": false,
      "inputs": [
        {
          "indexed": true,
          "internalType": "address",
          "name": "newTreasury",
          "type": "address"
        }
      ],
      "name": "TreasuryAddressUpdated",
      "type": "event"
    },
    {
      "anonymous": false,
      "inputs": [
        {
          "indexed": true,
          "internalType": "address",
          "name": "wallet",
          "type": "address"
        }
      ],
      "name": "VestingContractUpdated",
      "type": "event"
    },
    {
      "inputs": [],
      "name": "SEND",
      "outputs": [
        {
          "internalType": "uint16",
          "name": "",
          "type": "uint16"
        }
      ],
      "stateMutability": "view",
      "type": "function"
    },
    {
      "inputs": [],
      "name": "SEND_AND_CALL",
      "outputs": [
        {
          "internalType": "uint16",
          "name": "",
          "type": "uint16"
        }
      ],
      "stateMutability": "view",
      "type": "function"
    },
    {
      "inputs": [
        {
          "internalType": "address",
          "name": "",
          "type": "address"
        }
      ],
      "name": "_isExcludedFromFee",
      "outputs": [
        {
          "internalType": "bool",
          "name": "",
          "type": "bool"
        }
      ],
      "stateMutability": "view",
      "type": "function"
    },
    {
      "inputs": [
        {
          "internalType": "address",
          "name": "",
          "type": "address"
        }
      ],
      "name": "_isExcludedFromLimits",
      "outputs": [
        {
          "internalType": "bool",
          "name": "",
          "type": "bool"
        }
      ],
      "stateMutability": "view",
      "type": "function"
    },
    {
      "inputs": [
        {
          "internalType": "address",
          "name": "",
          "type": "address"
        }
      ],
      "name": "_lastBuyTime",
      "outputs": [
        {
          "internalType": "uint256",
          "name": "",
          "type": "uint256"
        }
      ],
      "stateMutability": "view",
      "type": "function"
    },
    {
      "inputs": [
        {
          "components": [
            {
              "internalType": "uint32",
              "name": "srcEid",
              "type": "uint32"
            },
            {
              "internalType": "bytes32",
              "name": "sender",
              "type": "bytes32"
            },
            {
              "internalType": "uint64",
              "name": "nonce",
              "type": "uint64"
            }
          ],
          "internalType": "struct Origin",
          "name": "origin",
          "type": "tuple"
        }
      ],
      "name": "allowInitializePath",
      "outputs": [
        {
          "internalType": "bool",
          "name": "",
          "type": "bool"
        }
      ],
      "stateMutability": "view",
      "type": "function"
    },
    {
      "inputs": [
        {
          "internalType": "address",
          "name": "owner",
          "type": "address"
        },
        {
          "internalType": "address",
          "name": "spender",
          "type": "address"
        }
      ],
      "name": "allowance",
      "outputs": [
        {
          "internalType": "uint256",
          "name": "",
          "type": "uint256"
        }
      ],
      "stateMutability": "view",
      "type": "function"
    },
    {
      "inputs": [],
      "name": "antiBotDuration",
      "outputs": [
        {
          "internalType": "uint256",
          "name": "",
          "type": "uint256"
        }
      ],
      "stateMutability": "view",
      "type": "function"
    },
    {
      "inputs": [],
      "name": "approvalRequired",
      "outputs": [
        {
          "internalType": "bool",
          "name": "",
          "type": "bool"
        }
      ],
      "stateMutability": "pure",
      "type": "function"
    },
    {
      "inputs": [
        {
          "internalType": "address",
          "name": "spender",
          "type": "address"
        },
        {
          "internalType": "uint256",
          "name": "value",
          "type": "uint256"
        }
      ],
      "name": "approve",
      "outputs": [
        {
          "internalType": "bool",
          "name": "",
          "type": "bool"
        }
      ],
      "stateMutability": "nonpayable",
      "type": "function"
    },
    {
      "inputs": [
        {
          "internalType": "address",
          "name": "",
          "type": "address"
        }
      ],
      "name": "automatedMarketMakerPairs",
      "outputs": [
        {
          "internalType": "bool",
          "name": "",
          "type": "bool"
        }
      ],
      "stateMutability": "view",
      "type": "function"
    },
    {
      "inputs": [
        {
          "internalType": "address",
          "name": "account",
          "type": "address"
        }
      ],
      "name": "balanceOf",
      "outputs": [
        {
          "internalType": "uint256",
          "name": "",
          "type": "uint256"
        }
      ],
      "stateMutability": "view",
      "type": "function"
    },
    {
      "inputs": [
        {
          "internalType": "uint256",
          "name": "amount",
          "type": "uint256"
        }
      ],
      "name": "burnFromVesting",
      "outputs": [],
      "stateMutability": "nonpayable",
      "type": "function"
    },
    {
      "inputs": [],
      "name": "buyTax",
      "outputs": [
        {
          "internalType": "uint256",
          "name": "",
          "type": "uint256"
        }
      ],
      "stateMutability": "view",
      "type": "function"
    },
    {
      "inputs": [
        {
          "internalType": "uint32",
          "name": "_eid",
          "type": "uint32"
        },
        {
          "internalType": "uint16",
          "name": "_msgType",
          "type": "uint16"
        },
        {
          "internalType": "bytes",
          "name": "_extraOptions",
          "type": "bytes"
        }
      ],
      "name": "combineOptions",
      "outputs": [
        {
          "internalType": "bytes",
          "name": "",
          "type": "bytes"
        }
      ],
      "stateMutability": "view",
      "type": "function"
    },
    {
      "inputs": [],
      "name": "decimalConversionRate",
      "outputs": [
        {
          "internalType": "uint256",
          "name": "",
          "type": "uint256"
        }
      ],
      "stateMutability": "view",
      "type": "function"
    },
    {
      "inputs": [],
      "name": "decimals",
      "outputs": [
        {
          "internalType": "uint8",
          "name": "",
          "type": "uint8"
        }
      ],
      "stateMutability": "view",
      "type": "function"
    },
    {
      "inputs": [],
      "name": "endpoint",
      "outputs": [
        {
          "internalType": "contract ILayerZeroEndpointV2",
          "name": "",
          "type": "address"
        }
      ],
      "stateMutability": "view",
      "type": "function"
    },
    {
      "inputs": [
        {
          "internalType": "uint32",
          "name": "eid",
          "type": "uint32"
        },
        {
          "internalType": "uint16",
          "name": "msgType",
          "type": "uint16"
        }
      ],
      "name": "enforcedOptions",
      "outputs": [
        {
          "internalType": "bytes",
          "name": "enforcedOption",
          "type": "bytes"
        }
      ],
      "stateMutability": "view",
      "type": "function"
    },
    {
      "inputs": [
        {
          "internalType": "address",
          "name": "account",
          "type": "address"
        },
        {
          "internalType": "bool",
          "name": "excluded",
          "type": "bool"
        }
      ],
      "name": "excludeFromFee",
      "outputs": [],
      "stateMutability": "nonpayable",
      "type": "function"
    },
    {
      "inputs": [
        {
          "internalType": "address",
          "name": "account",
          "type": "address"
        },
        {
          "internalType": "bool",
          "name": "excluded",
          "type": "bool"
        }
      ],
      "name": "excludeFromLimits",
      "outputs": [],
      "stateMutability": "nonpayable",
      "type": "function"
    },
    {
      "inputs": [],
      "name": "getMaxTxAmount",
      "outputs": [
        {
          "internalType": "uint256",
          "name": "",
          "type": "uint256"
        }
      ],
      "stateMutability": "view",
      "type": "function"
    },
    {
      "inputs": [
        {
          "components": [
            {
              "internalType": "uint32",
              "name": "srcEid",
              "type": "uint32"
            },
            {
              "internalType": "bytes32",
              "name": "sender",
              "type": "bytes32"
            },
            {
              "internalType": "uint64",
              "name": "nonce",
              "type": "uint64"
            }
          ],
          "internalType": "struct Origin",
          "name": "",
          "type": "tuple"
        },
        {
          "internalType": "bytes",
          "name": "",
          "type": "bytes"
        },
        {
          "internalType": "address",
          "name": "_sender",
          "type": "address"
        }
      ],
      "name": "isComposeMsgSender",
      "outputs": [
        {
          "internalType": "bool",
          "name": "",
          "type": "bool"
        }
      ],
      "stateMutability": "view",
      "type": "function"
    },
    {
      "inputs": [
        {
          "internalType": "uint32",
          "name": "_eid",
          "type": "uint32"
        },
        {
          "internalType": "bytes32",
          "name": "_peer",
          "type": "bytes32"
        }
      ],
      "name": "isPeer",
      "outputs": [
        {
          "internalType": "bool",
          "name": "",
          "type": "bool"
        }
      ],
      "stateMutability": "view",
      "type": "function"
    },
    {
      "inputs": [],
      "name": "limitsEnabled",
      "outputs": [
        {
          "internalType": "bool",
          "name": "",
          "type": "bool"
        }
      ],
      "stateMutability": "view",
      "type": "function"
    },
    {
      "inputs": [
        {
          "components": [
            {
              "internalType": "uint32",
              "name": "srcEid",
              "type": "uint32"
            },
            {
              "internalType": "bytes32",
              "name": "sender",
              "type": "bytes32"
            },
            {
              "internalType": "uint64",
              "name": "nonce",
              "type": "uint64"
            }
          ],
          "internalType": "struct Origin",
          "name": "_origin",
          "type": "tuple"
        },
        {
          "internalType": "bytes32",
          "name": "_guid",
          "type": "bytes32"
        },
        {
          "internalType": "bytes",
          "name": "_message",
          "type": "bytes"
        },
        {
          "internalType": "address",
          "name": "_executor",
          "type": "address"
        },
        {
          "internalType": "bytes",
          "name": "_extraData",
          "type": "bytes"
        }
      ],
      "name": "lzReceive",
      "outputs": [],
      "stateMutability": "payable",
      "type": "function"
    },
    {
      "inputs": [
        {
          "components": [
            {
              "components": [
                {
                  "internalType": "uint32",
                  "name": "srcEid",
                  "type": "uint32"
                },
                {
                  "internalType": "bytes32",
                  "name": "sender",
                  "type": "bytes32"
                },
                {
                  "internalType": "uint64",
                  "name": "nonce",
                  "type": "uint64"
                }
              ],
              "internalType": "struct Origin",
              "name": "origin",
              "type": "tuple"
            },
            {
              "internalType": "uint32",
              "name": "dstEid",
              "type": "uint32"
            },
            {
              "internalType": "address",
              "name": "receiver",
              "type": "address"
            },
            {
              "internalType": "bytes32",
              "name": "guid",
              "type": "bytes32"
            },
            {
              "internalType": "uint256",
              "name": "value",
              "type": "uint256"
            },
            {
              "internalType": "address",
              "name": "executor",
              "type": "address"
            },
            {
              "internalType": "bytes",
              "name": "message",
              "type": "bytes"
            },
            {
              "internalType": "bytes",
              "name": "extraData",
              "type": "bytes"
            }
          ],
          "internalType": "struct InboundPacket[]",
          "name": "_packets",
          "type": "tuple[]"
        }
      ],
      "name": "lzReceiveAndRevert",
      "outputs": [],
      "stateMutability": "payable",
      "type": "function"
    },
    {
      "inputs": [
        {
          "components": [
            {
              "internalType": "uint32",
              "name": "srcEid",
              "type": "uint32"
            },
            {
              "internalType": "bytes32",
              "name": "sender",
              "type": "bytes32"
            },
            {
              "internalType": "uint64",
              "name": "nonce",
              "type": "uint64"
            }
          ],
          "internalType": "struct Origin",
          "name": "_origin",
          "type": "tuple"
        },
        {
          "internalType": "bytes32",
          "name": "_guid",
          "type": "bytes32"
        },
        {
          "internalType": "bytes",
          "name": "_message",
          "type": "bytes"
        },
        {
          "internalType": "address",
          "name": "_executor",
          "type": "address"
        },
        {
          "internalType": "bytes",
          "name": "_extraData",
          "type": "bytes"
        }
      ],
      "name": "lzReceiveSimulate",
      "outputs": [],
      "stateMutability": "payable",
      "type": "function"
    },
    {
      "inputs": [],
      "name": "mainChainId",
      "outputs": [
        {
          "internalType": "uint16",
          "name": "",
          "type": "uint16"
        }
      ],
      "stateMutability": "view",
      "type": "function"
    },
    {
      "inputs": [],
      "name": "maxWalletAmount",
      "outputs": [
        {
          "internalType": "uint256",
          "name": "",
          "type": "uint256"
        }
      ],
      "stateMutability": "view",
      "type": "function"
    },
    {
      "inputs": [
        {
          "internalType": "address",
          "name": "",
          "type": "address"
        },
        {
          "internalType": "uint256",
          "name": "",
          "type": "uint256"
        }
      ],
      "name": "mint",
      "outputs": [],
      "stateMutability": "nonpayable",
      "type": "function"
    },
    {
      "inputs": [],
      "name": "msgInspector",
      "outputs": [
        {
          "internalType": "address",
          "name": "",
          "type": "address"
        }
      ],
      "stateMutability": "view",
      "type": "function"
    },
    {
      "inputs": [],
      "name": "name",
      "outputs": [
        {
          "internalType": "string",
          "name": "",
          "type": "string"
        }
      ],
      "stateMutability": "view",
      "type": "function"
    },
    {
      "inputs": [
        {
          "internalType": "uint32",
          "name": "",
          "type": "uint32"
        },
        {
          "internalType": "bytes32",
          "name": "",
          "type": "bytes32"
        }
      ],
      "name": "nextNonce",
      "outputs": [
        {
          "internalType": "uint64",
          "name": "nonce",
          "type": "uint64"
        }
      ],
      "stateMutability": "view",
      "type": "function"
    },
    {
      "inputs": [],
      "name": "oApp",
      "outputs": [
        {
          "internalType": "address",
          "name": "",
          "type": "address"
        }
      ],
      "stateMutability": "view",
      "type": "function"
    },
    {
      "inputs": [],
      "name": "oAppVersion",
      "outputs": [
        {
          "internalType": "uint64",
          "name": "senderVersion",
          "type": "uint64"
        },
        {
          "internalType": "uint64",
          "name": "receiverVersion",
          "type": "uint64"
        }
      ],
      "stateMutability": "pure",
      "type": "function"
    },
    {
      "inputs": [],
      "name": "oftVersion",
      "outputs": [
        {
          "internalType": "bytes4",
          "name": "interfaceId",
          "type": "bytes4"
        },
        {
          "internalType": "uint64",
          "name": "version",
          "type": "uint64"
        }
      ],
      "stateMutability": "pure",
      "type": "function"
    },
    {
      "inputs": [],
      "name": "owner",
      "outputs": [
        {
          "internalType": "address",
          "name": "",
          "type": "address"
        }
      ],
      "stateMutability": "view",
      "type": "function"
    },
    {
      "inputs": [
        {
          "internalType": "uint32",
          "name": "eid",
          "type": "uint32"
        }
      ],
      "name": "peers",
      "outputs": [
        {
          "internalType": "bytes32",
          "name": "peer",
          "type": "bytes32"
        }
      ],
      "stateMutability": "view",
      "type": "function"
    },
    {
      "inputs": [],
      "name": "preCrime",
      "outputs": [
        {
          "internalType": "address",
          "name": "",
          "type": "address"
        }
      ],
      "stateMutability": "view",
      "type": "function"
    },
    {
      "inputs": [
        {
          "components": [
            {
              "internalType": "uint32",
              "name": "dstEid",
              "type": "uint32"
            },
            {
              "internalType": "bytes32",
              "name": "to",
              "type": "bytes32"
            },
            {
              "internalType": "uint256",
              "name": "amountLD",
              "type": "uint256"
            },
            {
              "internalType": "uint256",
              "name": "minAmountLD",
              "type": "uint256"
            },
            {
              "internalType": "bytes",
              "name": "extraOptions",
              "type": "bytes"
            },
            {
              "internalType": "bytes",
              "name": "composeMsg",
              "type": "bytes"
            },
            {
              "internalType": "bytes",
              "name": "oftCmd",
              "type": "bytes"
            }
          ],
          "internalType": "struct SendParam",
          "name": "_sendParam",
          "type": "tuple"
        }
      ],
      "name": "quoteOFT",
      "outputs": [
        {
          "components": [
            {
              "internalType": "uint256",
              "name": "minAmountLD",
              "type": "uint256"
            },
            {
              "internalType": "uint256",
              "name": "maxAmountLD",
              "type": "uint256"
            }
          ],
          "internalType": "struct OFTLimit",
          "name": "oftLimit",
          "type": "tuple"
        },
        {
          "components": [
            {
              "internalType": "int256",
              "name": "feeAmountLD",
              "type": "int256"
            },
            {
              "internalType": "string",
              "name": "description",
              "type": "string"
            }
          ],
          "internalType": "struct OFTFeeDetail[]",
          "name": "oftFeeDetails",
          "type": "tuple[]"
        },
        {
          "components": [
            {
              "internalType": "uint256",
              "name": "amountSentLD",
              "type": "uint256"
            },
            {
              "internalType": "uint256",
              "name": "amountReceivedLD",
              "type": "uint256"
            }
          ],
          "internalType": "struct OFTReceipt",
          "name": "oftReceipt",
          "type": "tuple"
        }
      ],
      "stateMutability": "view",
      "type": "function"
    },
    {
      "inputs": [
        {
          "components": [
            {
              "internalType": "uint32",
              "name": "dstEid",
              "type": "uint32"
            },
            {
              "internalType": "bytes32",
              "name": "to",
              "type": "bytes32"
            },
            {
              "internalType": "uint256",
              "name": "amountLD",
              "type": "uint256"
            },
            {
              "internalType": "uint256",
              "name": "minAmountLD",
              "type": "uint256"
            },
            {
              "internalType": "bytes",
              "name": "extraOptions",
              "type": "bytes"
            },
            {
              "internalType": "bytes",
              "name": "composeMsg",
              "type": "bytes"
            },
            {
              "internalType": "bytes",
              "name": "oftCmd",
              "type": "bytes"
            }
          ],
          "internalType": "struct SendParam",
          "name": "_sendParam",
          "type": "tuple"
        },
        {
          "internalType": "bool",
          "name": "_payInLzToken",
          "type": "bool"
        }
      ],
      "name": "quoteSend",
      "outputs": [
        {
          "components": [
            {
              "internalType": "uint256",
              "name": "nativeFee",
              "type": "uint256"
            },
            {
              "internalType": "uint256",
              "name": "lzTokenFee",
              "type": "uint256"
            }
          ],
          "internalType": "struct MessagingFee",
          "name": "msgFee",
          "type": "tuple"
        }
      ],
      "stateMutability": "view",
      "type": "function"
    },
    {
      "inputs": [],
      "name": "renounceOwnership",
      "outputs": [],
      "stateMutability": "nonpayable",
      "type": "function"
    },
    {
      "inputs": [],
      "name": "sellTax",
      "outputs": [
        {
          "internalType": "uint256",
          "name": "",
          "type": "uint256"
        }
      ],
      "stateMutability": "view",
      "type": "function"
    },
    {
      "inputs": [
        {
          "components": [
            {
              "internalType": "uint32",
              "name": "dstEid",
              "type": "uint32"
            },
            {
              "internalType": "bytes32",
              "name": "to",
              "type": "bytes32"
            },
            {
              "internalType": "uint256",
              "name": "amountLD",
              "type": "uint256"
            },
            {
              "internalType": "uint256",
              "name": "minAmountLD",
              "type": "uint256"
            },
            {
              "internalType": "bytes",
              "name": "extraOptions",
              "type": "bytes"
            },
            {
              "internalType": "bytes",
              "name": "composeMsg",
              "type": "bytes"
            },
            {
              "internalType": "bytes",
              "name": "oftCmd",
              "type": "bytes"
            }
          ],
          "internalType": "struct SendParam",
          "name": "_sendParam",
          "type": "tuple"
        },
        {
          "components": [
            {
              "internalType": "uint256",
              "name": "nativeFee",
              "type": "uint256"
            },
            {
              "internalType": "uint256",
              "name": "lzTokenFee",
              "type": "uint256"
            }
          ],
          "internalType": "struct MessagingFee",
          "name": "_fee",
          "type": "tuple"
        },
        {
          "internalType": "address",
          "name": "_refundAddress",
          "type": "address"
        }
      ],
      "name": "send",
      "outputs": [
        {
          "components": [
            {
              "internalType": "bytes32",
              "name": "guid",
              "type": "bytes32"
            },
            {
              "internalType": "uint64",
              "name": "nonce",
              "type": "uint64"
            },
            {
              "components": [
                {
                  "internalType": "uint256",
                  "name": "nativeFee",
                  "type": "uint256"
                },
                {
                  "internalType": "uint256",
                  "name": "lzTokenFee",
                  "type": "uint256"
                }
              ],
              "internalType": "struct MessagingFee",
              "name": "fee",
              "type": "tuple"
            }
          ],
          "internalType": "struct MessagingReceipt",
          "name": "msgReceipt",
          "type": "tuple"
        },
        {
          "components": [
            {
              "internalType": "uint256",
              "name": "amountSentLD",
              "type": "uint256"
            },
            {
              "internalType": "uint256",
              "name": "amountReceivedLD",
              "type": "uint256"
            }
          ],
          "internalType": "struct OFTReceipt",
          "name": "oftReceipt",
          "type": "tuple"
        }
      ],
      "stateMutability": "payable",
      "type": "function"
    },
    {
      "inputs": [
        {
          "internalType": "uint256",
          "name": "_duration",
          "type": "uint256"
        }
      ],
      "name": "setAntiBotDuration",
      "outputs": [],
      "stateMutability": "nonpayable",
      "type": "function"
    },
    {
      "inputs": [
        {
          "internalType": "address",
          "name": "pair",
          "type": "address"
        },
        {
          "internalType": "bool",
          "name": "value",
          "type": "bool"
        }
      ],
      "name": "setAutomatedMarketMakerPair",
      "outputs": [],
      "stateMutability": "nonpayable",
      "type": "function"
    },
    {
      "inputs": [
        {
          "internalType": "address[]",
          "name": "accounts",
          "type": "address[]"
        },
        {
          "internalType": "bool",
          "name": "excluded",
          "type": "bool"
        }
      ],
      "name": "setBatchExcludedFromLimits",
      "outputs": [],
      "stateMutability": "nonpayable",
      "type": "function"
    },
    {
      "inputs": [
        {
          "internalType": "address",
          "name": "_delegate",
          "type": "address"
        }
      ],
      "name": "setDelegate",
      "outputs": [],
      "stateMutability": "nonpayable",
      "type": "function"
    },
    {
      "inputs": [
        {
          "components": [
            {
              "internalType": "uint32",
              "name": "eid",
              "type": "uint32"
            },
            {
              "internalType": "uint16",
              "name": "msgType",
              "type": "uint16"
            },
            {
              "internalType": "bytes",
              "name": "options",
              "type": "bytes"
            }
          ],
          "internalType": "struct EnforcedOptionParam[]",
          "name": "_enforcedOptions",
          "type": "tuple[]"
        }
      ],
      "name": "setEnforcedOptions",
      "outputs": [],
      "stateMutability": "nonpayable",
      "type": "function"
    },
    {
      "inputs": [
        {
          "internalType": "bool",
          "name": "_enabled",
          "type": "bool"
        }
      ],
      "name": "setLimitsEnabled",
      "outputs": [],
      "stateMutability": "nonpayable",
      "type": "function"
    },
    {
      "inputs": [
        {
          "internalType": "uint256",
          "name": "_maxWallet",
          "type": "uint256"
        }
      ],
      "name": "setMaxWalletAmount",
      "outputs": [],
      "stateMutability": "nonpayable",
      "type": "function"
    },
    {
      "inputs": [
        {
          "internalType": "address",
          "name": "_msgInspector",
          "type": "address"
        }
      ],
      "name": "setMsgInspector",
      "outputs": [],
      "stateMutability": "nonpayable",
      "type": "function"
    },
    {
      "inputs": [
        {
          "internalType": "uint32",
          "name": "_eid",
          "type": "uint32"
        },
        {
          "internalType": "bytes32",
          "name": "_peer",
          "type": "bytes32"
        }
      ],
      "name": "setPeer",
      "outputs": [],
      "stateMutability": "nonpayable",
      "type": "function"
    },
    {
      "inputs": [
        {
          "internalType": "address",
          "name": "_preCrime",
          "type": "address"
        }
      ],
      "name": "setPreCrime",
      "outputs": [],
      "stateMutability": "nonpayable",
      "type": "function"
    },
    {
      "inputs": [
        {
          "internalType": "uint256",
          "name": "_buyTax",
          "type": "uint256"
        },
        {
          "internalType": "uint256",
          "name": "_sellTax",
          "type": "uint256"
        }
      ],
      "name": "setTaxes",
      "outputs": [],
      "stateMutability": "nonpayable",
      "type": "function"
    },
    {
      "inputs": [
        {
          "internalType": "address",
          "name": "_treasury",
          "type": "address"
        }
      ],
      "name": "setTreasuryAddress",
      "outputs": [],
      "stateMutability": "nonpayable",
      "type": "function"
    },
    {
      "inputs": [
        {
          "internalType": "address",
          "name": "_vesting",
          "type": "address"
        }
      ],
      "name": "setVestingContract",
      "outputs": [],
      "stateMutability": "nonpayable",
      "type": "function"
    },
    {
      "inputs": [],
      "name": "sharedDecimals",
      "outputs": [
        {
          "internalType": "uint8",
          "name": "",
          "type": "uint8"
        }
      ],
      "stateMutability": "view",
      "type": "function"
    },
    {
      "inputs": [],
      "name": "symbol",
      "outputs": [
        {
          "internalType": "string",
          "name": "",
          "type": "string"
        }
      ],
      "stateMutability": "view",
      "type": "function"
    },
    {
      "inputs": [],
      "name": "token",
      "outputs": [
        {
          "internalType": "address",
          "name": "",
          "type": "address"
        }
      ],
      "stateMutability": "view",
      "type": "function"
    },
    {
      "inputs": [],
      "name": "totalSupply",
      "outputs": [
        {
          "internalType": "uint256",
          "name": "",
          "type": "uint256"
        }
      ],
      "stateMutability": "view",
      "type": "function"
    },
    {
      "inputs": [
        {
          "internalType": "address",
          "name": "to",
          "type": "address"
        },
        {
          "internalType": "uint256",
          "name": "value",
          "type": "uint256"
        }
      ],
      "name": "transfer",
      "outputs": [
        {
          "internalType": "bool",
          "name": "",
          "type": "bool"
        }
      ],
      "stateMutability": "nonpayable",
      "type": "function"
    },
    {
      "inputs": [
        {
          "internalType": "address",
          "name": "from",
          "type": "address"
        },
        {
          "internalType": "address",
          "name": "to",
          "type": "address"
        },
        {
          "internalType": "uint256",
          "name": "value",
          "type": "uint256"
        }
      ],
      "name": "transferFrom",
      "outputs": [
        {
          "internalType": "bool",
          "name": "",
          "type": "bool"
        }
      ],
      "stateMutability": "nonpayable",
      "type": "function"
    },
    {
      "inputs": [
        {
          "internalType": "address",
          "name": "newOwner",
          "type": "address"
        }
      ],
      "name": "transferOwnership",
      "outputs": [],
      "stateMutability": "nonpayable",
      "type": "function"
    },
    {
      "inputs": [],
      "name": "treasuryAddress",
      "outputs": [
        {
          "internalType": "address",
          "name": "",
          "type": "address"
        }
      ],
      "stateMutability": "view",
      "type": "function"
    },
    {
      "inputs": [],
      "name": "vestingContract",
      "outputs": [
        {
          "internalType": "address",
          "name": "",
          "type": "address"
        }
      ],
      "stateMutability": "view",
      "type": "function"
    }
  ],
  "transactionHash": "0x9b78a3aa809bfeb12068a18292a62d182f817d0a32c748ef2f5daef2411d7d7a",
  "args": [
    "Wancash",
    "WCH",
    "0x6EDCE65403992e310A62460808c4b910D972f10f",
    "0x7b97A7a3688ab41e5129D5b252de0c332697813d",
    "0x7b97A7a3688ab41e5129D5b252de0c332697813d",
    97,
    "0",
    "200000000000000000000000000",
    "0x696A7C6145C9f765Da79De6e35A36a0e36CcD7c2"
  ],
  "numDeployments": 1,
  "solcInputHash": "212241ed35aabfd854eb6ed6426bd7d9",
  "bytecode": "0x60e08060405234620007b657600090620047a98038038091620000238285620007bb565b83398101610120828203126200078e5781516001600160401b038111620007b2578162000052918401620007f5565b602083015190916001600160401b038211620007ae5762000075918401620007f5565b62000083604084016200086b565b62000091606085016200086b565b94620000a0608086016200086b565b60a08601519161ffff83168303620007ab5760c087015194620000cc61010060e08a015199016200086b565b966001600160a01b038a1615620007925782546001600160a01b038b81166001600160a01b031983168117865591167f8be0079c531659141344cd1fd0a4f28419497f9722a3daafe3b4186f6b6457e08580a36001600160a01b03861660808190523b156200078e5760405163ca5eb5e160e01b81526001600160a01b038b8116600483015284908290602490829084908c165af18015620007835762000752575b5064e8d4a5100060a0528051906001600160401b0382116200073e57600854600181811c9116801562000733575b60208210146200071f579081601f849311620006c0575b50602090601f8311600114620006495785926200063d575b50508160011b916000199060031b1c1916176008555b8051906001600160401b0382116200062957600954600181811c911680156200061e575b60208210146200060a57601f8111620005b7575b50602090601f8311600114620005375761ffff95949392918391836200052b575b50508160011b916000199060031b1c1916176009555b6028600b556003600d556005600e5560148054600160ff19918216811790925560c0859052600f80546001600160a01b039586166001600160a01b03199182168117909255601080548c88169216821790558c861685526011602052604080862080548516861790553086528086208054851686179055958916855285852080548416851790558185528585208054841685179055848052948420805483169093179092558315969093918715918262000515575b60018060a01b038d1685526012602052604085206001878254161790553085526040852060018782541617905560018060a01b031684526040842060018682541617905583526040832060018582541617905582805260408320600185825416179055620004fc575b5050506a0422ca8b0a00a425000000600a5516461462000401575b604051613e6b9081620008fe8239608051818181610a3c01528181611069015281816114d30152818161217c015281816122b701528181613a740152613d0c015260a051818181610fb30152818161194e0152818161204801528181612ad0015281816137c201526138d9015260c051816108a50152f35b818411620004b75783820391808311620004a157840362000443575b5050508062000430575b80808062000389565b6200043b9162000880565b388062000427565b6200045c57620004539162000880565b3880806200041d565b60405162461bcd60e51b815260206004820152601960248201527f56657374696e6720636f6e7472616374207265717569726564000000000000006044820152606490fd5b634e487b7160e01b600052601160045260246000fd5b60405162461bcd60e51b815260206004820152601f60248201527f4f776e657220616c6c6f636174696f6e206578636565647320737570706c79006044820152606490fd5b816040916001935220918254161790553880806200036e565b8385526040852060018782541617905562000305565b0151905038806200023a565b60098452600080516020620047898339815191529190845b601f19851681106200059e575091839160019361ffff98979695601f1981161062000584575b505050811b0160095562000250565b015160001960f88460031b161c1916905538808062000575565b919260206001819286850151815501940192016200054f565b6009845260008051602062004789833981519152601f840160051c81016020851062000602575b601f830160051c82018110620005f657505062000219565b858155600101620005de565b5080620005de565b634e487b7160e01b84526022600452602484fd5b90607f169062000205565b634e487b7160e01b83526041600452602483fd5b015190503880620001cb565b60088652600080516020620047698339815191529250601f198416865b818110620006a757509084600195949392106200068d575b505050811b01600855620001e1565b015160001960f88460031b161c191690553880806200067e565b9293602060018192878601518155019501930162000666565b6008865290915060008051602062004769833981519152601f840160051c81016020851062000717575b90849392915b601f830160051c8201811062000708575050620001b3565b878155859450600101620006f0565b5080620006ea565b634e487b7160e01b85526022600452602485fd5b90607f16906200019c565b634e487b7160e01b84526041600452602484fd5b9092906001600160401b0381116200076f5760405291386200016e565b634e487b7160e01b82526041600452602482fd5b6040513d86823e3d90fd5b8280fd5b604051631e4fbdf760e01b815260048101849052602490fd5b80fd5b8480fd5b8380fd5b600080fd5b601f909101601f19168101906001600160401b03821190821017620007df57604052565b634e487b7160e01b600052604160045260246000fd5b919080601f84011215620007b65782516001600160401b038111620007df57602090604051926200083083601f19601f8501160185620007bb565b818452828287010111620007b65760005b8181106200085757508260009394955001015290565b858101830151848201840152820162000841565b51906001600160a01b0382168203620007b657565b6001600160a01b0316908115620008e45760075490808201809211620004a15760207fddf252ad1be2c89b69c2b068fc378daa952ba7f163c4a11628f55a4df523b3ef916000936007558484526005825260408420818154019055604051908152a3565b60405163ec442f0560e01b815260006004820152602490fdfe6080604052600436101561001257600080fd5b60003560e01c806306fdde0314610442578063095ea7b31461043d5780630d35b415146104385780630f45ad43146104335780631069fdd41461042e578063111ecdad1461042957806311c912751461042457806313137d651461041f578063134d4f251461041a578063156a0d0f1461041557806317442b701461041057806318160ddd1461040b5780631f5e13341461040657806323b872dd1461040157806327a14fc2146103fc578063313ce567146103f75780633400288b146103f25780633582ad23146103ed57806338d16f48146103e85780633b6f743b146103e357806340c10f19146103de57806341aea9de146103d957806348df0dec146103d45780634f7041a5146103cf57806352ae2879146103075780635535d461146103ca5780635a0dfe4d146103c55780635e280f11146103c05780635e6f6045146103bb5780636605bfda146103b65780636d8b0527146103b15780636fc1b31e146103ac57806370a08231146103a7578063715018a6146103a2578063749915691461039d578063768dc710146103985780637d25a05e1461039357806382413eac1461038e578063857749b0146103895780638da5cb5b1461038457806395d89b411461037f578063963efcaa1461037a5780639a7a23d6146103755780639f68b96414610370578063a9059cbb1461036b578063aa4bde2814610366578063b62496f514610361578063b731ea0a1461035c578063b98bd07014610357578063bb0b6a5314610352578063bc70b3541461034d578063bd815db014610348578063c0a904a214610343578063c5f956af1461033e578063c647b20e14610339578063c7c7f5b314610334578063ca5eb5e11461032f578063cc1776d31461032a578063d045a0dc14610325578063d424388514610320578063dd62ed3e1461031b578063df8408fe14610316578063e550573d14610311578063f2fde38b1461030c578063fc0c546a14610307578063febcc1fe146103025763ff7bd03d146102fd57600080fd5b612627565b612565565b61124b565b6124d9565b612497565b612431565b6123ce565b61235e565b612202565b6121e4565b61214b565b611fcc565b611ec5565b611e9c565b611e2f565b611cdc565b611c88565b611c4d565b611b72565b611aef565b611aad565b611a8f565b611a5a565b611a3e565b611996565b611936565b61188e565b611865565b611849565b6117eb565b6117c4565b611782565b6116c8565b61166d565b611630565b6115c0565b61159d565b61152b565b611502565b6114bd565b611475565b6113f6565b61122d565b6111f0565b61118e565b611112565b610f56565b610ebd565b610e9a565b610e13565b610de9565b610d5c565b610ca7565b610c8b565b610c6d565b610c4b565b610c24565b610c08565b610a21565b610910565b6108e7565b6108c9565b61088a565b610733565b6105ad565b6104b3565b600091031261045257565b600080fd5b60005b83811061046a5750506000910152565b818101518382015260200161045a565b9060209161049381518092818552858086019101610457565b601f01601f1916010190565b9060206104b092818152019061047a565b90565b3461045257600080600319360112610599576040519080600854906104d782611286565b8085529160209160019182811690811561056c5750600114610514575b61051086610504818803826113d5565b6040519182918261049f565b0390f35b9350600884527ff3f7a9fe364faab93b216da50a3214154f22a0a2b415b23a84c8169e8b636ee35b8385106105595750505050810160200161050482610510386104f4565b805486860184015293820193810161053c565b90508695506105109693506020925061050494915060ff191682840152151560051b8201019293386104f4565b80fd5b6001600160a01b0381160361045257565b34610452576040366003190112610452576004356105ca8161059c565b6024353315610662576001600160a01b038216918215610649573360009081526006602052604090208291610611915b9060018060a01b0316600052602052604060002090565b556040519081527f8c5be1e5ebec7d5bd14f71427d1e84f3dd0314c0f7b2291e5b200ac8c7c3b92560203392a3602060405160018152f35b604051634a1406b160e11b815260006004820152602490fd5b60405163e602df0560e01b815260006004820152602490fd5b908160e09103126104525790565b9392916106a48560a081019360208091805184520151910152565b60409160a06040870152815180915260c086019160c08260051b880101936020809201936000915b8483106106f4575050505050509060606106f29294019060208091805184520151910152565b565b90919293949584806107236001938d60bf1990820301875285838c51805184520151918185820152019061047a565b98019301930191949392906106cc565b3461045257602080600319360112610452576004356001600160401b0381116104525761076490369060040161067b565b9061076d612687565b50610776612687565b50604051637e062a3560e11b8152908082600481305afa91821561085857600492829160009161085d575b506040516318160ddd60e01b815293849182906001600160a01b03165afa91821561085857600092610825575b50610510906107db61266d565b9260008452818401526108096107ef6126e7565b946107f98161270a565b5060406060820135910135612ac7565b909161081361266d565b92835282015260405193849384610689565b81925061084a90610510923d8511610851575b61084281836113d5565b8101906126c1565b91906107ce565b503d610838565b6126b5565b61087d9150823d8411610883575b61087581836113d5565b8101906126a0565b386107a1565b503d61086b565b3461045257600036600319011261045257602060405161ffff7f0000000000000000000000000000000000000000000000000000000000000000168152f35b34610452576000366003190112610452576020600b54604051908152f35b34610452576000366003190112610452576004546040516001600160a01b039091168152602090f35b34610452576020366003190112610452576010546001600160a01b031633036109415761093f60043533612b24565b005b60405162461bcd60e51b8152602060048201526014602482015273139bdd081d995cdd1a5b99c818dbdb9d1c9858dd60621b6044820152606490fd5b606090600319011261045257600490565b9181601f84011215610452578235916001600160401b038311610452576020838186019501011161045257565b600319810160e081126104525760601361045257600491606435916001600160401b039060843582811161045257816109f69160040161098e565b9390939260a435610a068161059c565b9260c43591821161045257610a1d9160040161098e565b9091565b610a2a366109bb565b50929492506001600160a01b039190507f00000000000000000000000000000000000000000000000000000000000000008216338103610bf0578335610a6f81610e05565b610a7881612b56565b906020860135809203610bbb575050610aa0610a948388613796565b6001600160a01b031690565b91610ac6610ab6610ab1838a6137a2565b6137b4565b610abf8761270a565b50846137e8565b809760288311610b17575b50505050610b12610af0600080516020613df68339815191529461270a565b956040519384931696836020909392919363ffffffff60408201951681520152565b0390a3005b90610b429291610b3c610b2c60408a01612b8e565b93610b368a61270a565b9261385a565b92613876565b90803b1561045257604051633e5ac80960e11b8152916000918391829084908290610b72908c8a60048501612b98565b03925af1801561085857600080516020613df683398151915294610b1292610af092610ba2575b88919650610ad1565b80610baf610bb59261138c565b80610447565b38610b99565b610bc481610e05565b60405163309afaf360e21b815263ffffffff9190911660048201526024810191909152604490fd5b0390fd5b6040516391ac5e4f60e01b8152336004820152602490fd5b3461045257600036600319011261045257602060405160028152f35b34610452576000366003190112610452576040805162b9270b60e21b815260016020820152f35b3461045257600036600319011261045257604080516001815260026020820152f35b34610452576000366003190112610452576020600754604051908152f35b3461045257600036600319011261045257602060405160018152f35b3461045257606036600319011261045257600435610cc48161059c565b602435610cd08161059c565b6001600160a01b03821660009081526006602090815260408083203384529091529020604435919054926000198410610d1a575b610d0e9350612bc3565b60405160018152602090f35b828410610d3657610d3183610d0e950333836130dc565b610d04565b604051637dc7a0d960e11b81523360048201526024810185905260448101849052606490fd5b3461045257602036600319011261045257600435610d78612bfe565b8015610daf576020817f4b39c36d20c57d220f61fd25c4349d4435cc03ef6c2a680942f15333c3c3e00192600a55604051908152a1005b60405162461bcd60e51b8152602060048201526012602482015271125b9d985b1a59081b585e081dd85b1b195d60721b6044820152606490fd5b3461045257600036600319011261045257602060405160128152f35b63ffffffff81160361045257565b34610452576040366003190112610452577f238399d427b947898edb290f5ff0f9109849b1c3ba196a42e35f00c50a54b98b600435610e5181610e05565b60243590610e5d612bfe565b63ffffffff8116600052600160205281604060002055610e95604051928392836020909392919363ffffffff60408201951681520152565b0390a1005b3461045257600036600319011261045257602060ff601454166040519015158152f35b3461045257602036600319011261045257600435610ed9612bfe565b6102588111610f13576020817ffdf5192c699588f75d62f711327755217e8831de7ddbda02acc656e5f4061fb292600b55604051908152a1005b60405162461bcd60e51b81526020600482015260116024820152704475726174696f6e20746f6f206c6f6e6760781b6044820152606490fd5b8015150361045257565b3461045257604080600319360112610452576004356001600160401b03811161045257610f8790369060040161067b565b90602435610f9481610f4c565b610f9c612687565b506060830135833593610fae85610e05565b610fe47f0000000000000000000000000000000000000000000000000000000000000000610fdf8187850135612780565b612768565b918083106110f257508392611000611065969361104a93612c64565b9061100a85610e05565b611012612687565b5061101c85612b56565b61103361102761267a565b63ffffffff9097168752565b602086015285850152606084015215156080830152565b815180948192631bb8518b60e31b8352309060048401612d7e565b03817f00000000000000000000000000000000000000000000000000000000000000006001600160a01b03165afa90811561085857610510926000926110c3575b505191829182815181526020918201519181019190915260400190565b816110e49293503d84116110eb575b6110dc81836113d5565b810190612d6a565b90386110a6565b503d6110d2565b84516371c4efed60e01b8152600481018490526024810191909152604490fd5b346104525760403660031901126104525761112e60043561059c565b60405162461bcd60e51b815260206004820152603260248201527f446972656374206d696e74696e672064697361626c6564202d2075736520637260448201527137b9b996b1b430b4b7103a3930b739b332b960711b6064820152608490fd5b34610452576020366003190112610452577f30b4d3dc1bff9f2a7bf6eb4d8eff6add7b7b1116f695ef27bbd80ceab8d187e160206004356111ce81610f4c565b6111d6612bfe565b151560ff196014541660ff821617601455604051908152a1005b346104525760203660031901126104525760043561120d8161059c565b60018060a01b0316600052600c6020526020604060002054604051908152f35b34610452576000366003190112610452576020600d54604051908152f35b34610452576000366003190112610452576020604051308152f35b6024359061ffff8216820361045257565b359061ffff8216820361045257565b90600182811c921680156112b6575b60208310146112a057565b634e487b7160e01b600052602260045260246000fd5b91607f1691611295565b8054600093926112cf82611286565b9182825260209360019160018116908160001461133757506001146112f6575b5050505050565b90939495506000929192528360002092846000945b838610611323575050505001019038808080806112ef565b80548587018301529401938590820161130b565b60ff19168685015250505090151560051b0101915038808080806112ef565b634e487b7160e01b600052604160045260246000fd5b606081019081106001600160401b0382111761138757604052565b611356565b6001600160401b03811161138757604052565b604081019081106001600160401b0382111761138757604052565b60a081019081106001600160401b0382111761138757604052565b90601f801991011681019081106001600160401b0382111761138757604052565b346104525760403660031901126104525761051061145a61146161144e60043561141f81610e05565b63ffffffff61142c611266565b9116600052600360205260406000209061ffff16600052602052604060002090565b604051928380926112c0565b03826113d5565b60405191829160208352602083019061047a565b346104525760403660031901126104525760206114b360043561149781610e05565b6024359063ffffffff1660005260016020526040600020541490565b6040519015158152f35b34610452576000366003190112610452576040517f00000000000000000000000000000000000000000000000000000000000000006001600160a01b03168152602090f35b34610452576000366003190112610452576010546040516001600160a01b039091168152602090f35b34610452576020366003190112610452576004356115488161059c565b611550612bfe565b6001600160a01b0316611564811515612714565b600f80546001600160a01b031916821790557fb6a5e89655cf506139085f051af608195ed056f8dc550b180a1c38d401e2b6c4600080a2005b346104525760003660031901126104525760206115b86127a0565b604051908152f35b34610452576020366003190112610452577ff0be4f1e87349231d80c36b33f9e8639658eeaf474014dee15a3e6a4d441419760206004356116008161059c565b611608612bfe565b600480546001600160a01b0319166001600160a01b03929092169182179055604051908152a1005b346104525760203660031901126104525760043561164d8161059c565b60018060a01b031660005260056020526020604060002054604051908152f35b346104525760008060031936011261059957611687612bfe565b80546001600160a01b03198116825581906001600160a01b03167f8be0079c531659141344cd1fd0a4f28419497f9722a3daafe3b4186f6b6457e08280a380f35b34610452576020366003190112610452576004356116e58161059c565b6116ed612bfe565b6001600160a01b038116611702811515612714565b806bffffffffffffffffffffffff60a01b601054161760105560009181835260116020526001611754604085209260ff1993838582541617905560018060a01b03166000526012602052604060002090565b918254161790557f14e2fa1723f00282251323682126d9621e96707e56748f1f0c101fca472b37e98280a280f35b346104525760203660031901126104525760043561179f8161059c565b60018060a01b03166000526011602052602060ff604060002054166040519015158152f35b34610452576040366003190112610452576117e0600435610e05565b602060405160008152f35b346104525760a0366003190112610452576118053661097d565b506064356001600160401b0381116104525761182590369060040161098e565b505060206084356118358161059c565b6040516001600160a01b0390911630148152f35b3461045257600036600319011261045257602060405160068152f35b34610452576000366003190112610452576000546040516001600160a01b039091168152602090f35b3461045257600080600319360112610599576040519080600954906118b282611286565b8085529160209160019182811690811561056c57506001146118de5761051086610504818803826113d5565b9350600984527f6e1540171b6c0c960b71a7020d9f60077f6af931a8bbf590da0223dacf75c7af5b8385106119235750505050810160200161050482610510386104f4565b8054868601840152938201938101611906565b346104525760003660031901126104525760206040517f00000000000000000000000000000000000000000000000000000000000000008152f35b6040906003190112610452576004356119898161059c565b906024356104b081610f4c565b34610452576119a436611971565b906119ad612bfe565b6001600160a01b03168015611a0a5760009181835260136020526119e081604085209060ff801983541691151516179055565b1515907fffa9187bf1f18bf477bd0ea1bcbb64e93b6a98132473929edfce215cd9b16fab8380a380f35b60405162461bcd60e51b815260206004820152600c60248201526b24b73b30b634b2103830b4b960a11b6044820152606490fd5b3461045257600036600319011261045257602060405160008152f35b3461045257604036600319011261045257611a84600435611a7a8161059c565b6024359033612bc3565b602060405160018152f35b34610452576000366003190112610452576020600a54604051908152f35b3461045257602036600319011261045257600435611aca8161059c565b60018060a01b03166000526013602052602060ff604060002054166040519015158152f35b34610452576000366003190112610452576002546040516001600160a01b039091168152602090f35b9181601f84011215610452578235916001600160401b038311610452576020808501948460051b01011161045257565b602060031982011261045257600435906001600160401b03821161045257610a1d91600401611b18565b3461045257611b8036611b48565b90611b89612bfe565b611b92826126d0565b906040611ba260405193846113d5565b8383526020938484019060051b8301923684116104525780915b848310611bcc5761093f86612fb6565b6001600160401b039083358281116104525783019160608336031261045257855192611bf78461136c565b8035611c0281610e05565b8452611c0f8a8201611277565b8a8501528681013591821161045257019036601f83011215610452578892611c3e8493369085813591016127d4565b87820152815201920191611bbc565b346104525760203660031901126104525763ffffffff600435611c6f81610e05565b1660005260016020526020604060002054604051908152f35b3461045257606036600319011261045257600435611ca581610e05565b611cad611266565b604435906001600160401b0382116104525761051092611cd461146193369060040161098e565b929091612896565b611ce536611b48565b60005b818110611d5457604051638e9e709960e01b8152600081600481335afa801561085857610bec91600091611d31575b50604051638351eea760e01b81529182916004830161049f565b611d4e91503d806000833e611d4681836113d5565b810190612a41565b82611d17565b611d5f818385612952565b90611d91611d8d611d6f8461270a565b60208501359063ffffffff1660005260016020526040600020541490565b1590565b611e2657611da361010083018361297a565b92611db060e082016129ac565b90611dbf61012082018261297a565b959095303b1561045257600094611df560c092604051998a9788968795633411683760e21b875260a08a01358a600489016129c7565b03920135305af191821561085857600192611e13575b505b01611ce8565b80610baf611e209261138c565b38611e0b565b60019150611e0d565b346104525760207f4b89c347592b1d537e066cb4ed98d87696ae35164745d7e370e4add16941dc92611e6036611971565b9290611e6a612bfe565b6001600160a01b031660008181526012835260409020805460ff191660ff86151516179055925b6040519015158152a2005b3461045257600036600319011261045257600f546040516001600160a01b039091168152602090f35b3461045257604036600319011261045257600435602435611ee4612bfe565b601482111580611f70575b15611f3a57817f35d461df023e70886ad5e68610133ecb7d637c2263453f6ea50daf699cb31ed492600d5581600e55610e956040519283928360209093929193604081019481520152565b60405162461bcd60e51b815260206004820152600e60248201526d0a8c2f0cae640e8dede40d0d2ced60931b6044820152606490fd5b506014811115611eef565b9160806106f2929493611fbb604060c0830197805184526001600160401b0360208201511660208501520151604083019060208091805184520151910152565b019060208091805184520151910152565b6080366003190112610452576004356001600160401b03811161045257611ff790369060040161067b565b60403660231901126104525760643561200f8161059c565b612017612a9f565b50612020612687565b50612029612a9f565b50612032612687565b506060820135906120438335610e05565b6120757f0000000000000000000000000000000000000000000000000000000000000000610fdf816040870135612780565b9180831061212a57506120af9061208c8333612b24565b6120968385612c64565b61209f8661270a565b916120a9366130b4565b926139f7565b906120b861266d565b928184528160208501527f85496b760a4b7f8d66384b9df21b381f5d1b1e79f229a47aaf4c232edc2fe59a6121186120f185519361270a565b936040519181839233978460409194939263ffffffff606083019616825260208201520152565b0390a361051060405192839283611f7b565b6040516371c4efed60e01b8152600481018490526024810191909152604490fd5b3461045257600060203660031901126105995760043561216a8161059c565b612172612bfe565b6001600160a01b037f0000000000000000000000000000000000000000000000000000000000000000811691839190833b156121e05760249083604051958694859363ca5eb5e160e01b85521660048401525af18015610858576121d4575080f35b6121dd9061138c565b80f35b8280fd5b34610452576000366003190112610452576020600e54604051908152f35b61220b366109bb565b505050929030330361234c57612224610a948583613796565b93612245612235610ab183856137a2565b61223e8561270a565b50866137e8565b9160288211612295575b5050612269600080516020613df68339815191529261270a565b6040805163ffffffff909216825260208201929092526001600160a01b03909416939081908101610b12565b90826122b492610b3c6122aa60408801612b8e565b93610b368861270a565b917f00000000000000000000000000000000000000000000000000000000000000006001600160a01b0316803b1561045257604051633e5ac80960e11b815293600091859182908490829061230e908b8d60048501612b98565b03925af190811561085857600080516020613df68339815191529361226992612339575b509261224f565b80610baf6123469261138c565b38612332565b60405163029a949d60e31b8152600490fd5b34610452576020366003190112610452577fd48d879cef83a1c0bdda516f27b13ddb1b3f8bbac1c9e1511bb2a659c2427760602060043561239e8161059c565b6123a6612bfe565b600280546001600160a01b0319166001600160a01b03929092169182179055604051908152a1005b346104525760403660031901126104525760206124286004356123f08161059c565b602435906123fd8261059c565b60018060a01b03166000526006835260406000209060018060a01b0316600052602052604060002090565b54604051908152f35b346104525760207fd5144d2a6c8ff9b87b7a40852df5102cab2ce561c06b56cc6fe7ccf1fa7f8c2d61246236611971565b929061246c612bfe565b6001600160a01b031660008181526011835260409020805460ff191660ff8615151617905592611e91565b34610452576020366003190112610452576004356124b48161059c565b60018060a01b03166000526012602052602060ff604060002054166040519015158152f35b34610452576020366003190112610452576004356124f68161059c565b6124fe612bfe565b6001600160a01b03908116801561254c57600080546001600160a01b03198116831782559092167f8be0079c531659141344cd1fd0a4f28419497f9722a3daafe3b4186f6b6457e08380a380f35b604051631e4fbdf760e01b815260006004820152602490fd5b3461045257604080600319360112610452576004356001600160401b03811161045257612596903690600401611b18565b9091602435926125a584610f4c565b6125ad612bfe565b8315159360005b8481106125bd57005b8060019160051b8401356125d08161059c565b828060a01b0316806000527f4b89c347592b1d537e066cb4ed98d87696ae35164745d7e370e4add16941dc9260206012815261261b86896000209060ff801983541691151516179055565b87518a8152a2016125b4565b346104525760603660031901126104525760206126433661097d565b63ffffffff813561265381610e05565b166000526001825260406000205482604051920135148152f35b604051906106f28261139f565b604051906106f2826113ba565b604051906126948261139f565b60006020838281520152565b9081602091031261045257516104b08161059c565b6040513d6000823e3d90fd5b90816020910312610452575190565b6001600160401b0381116113875760051b60200190565b604051602081018181106001600160401b03821117611387576040526000815290565b356104b081610e05565b1561271b57565b60405162461bcd60e51b815260206004820152600f60248201526e496e76616c6964206164647265737360881b6044820152606490fd5b634e487b7160e01b600052601160045260246000fd5b8181029291811591840414171561277b57565b612752565b811561278a570490565b634e487b7160e01b600052601260045260246000fd5b6007548080046001148115171561277b576103e8900490565b6001600160401b03811161138757601f01601f191660200190565b9291926127e0826127b9565b916127ee60405193846113d5565b829481845281830111610452578281602093846000960137010152565b909291928360021161045257831161045257600201916001190190565b602090836106f293959495604051968361284b8995518092888089019101610457565b84019185830137016000838201520380855201836113d5565b908060209392818452848401376000828201840152601f01601f1916010190565b9160206104b0938181520191612864565b61144e61145a9263ffffffff6128cb939795969716600052600360205260406000209061ffff16600052602052604060002090565b80511561292e5783156129285760028410156128ff575050610bec604051928392639a6d49cd60e01b845260048401612885565b909280612922916104b09461291d6129183684846127d4565b61307c565b61280b565b91612828565b92509050565b5091906104b09136916127d4565b634e487b7160e01b600052603260045260246000fd5b91908110156129755760051b8101359061013e1981360301821215610452570190565b61293c565b903590601e198136030182121561045257018035906001600160401b0382116104525760200191813603831361045257565b356104b08161059c565b6001600160401b0381160361045257565b929093612a23926001600160401b0360406104b09a98999763ffffffff81356129ef81610e05565b168852602081013560208901520135612a07816129b6565b166040860152606085015260e0608085015260e0840191612864565b6001600160a01b0390941660a082015280840360c090910152612864565b602081830312610452578051906001600160401b038211610452570181601f82011215610452578051612a73816127b9565b92612a8160405194856113d5565b81845260208284010111610452576104b09160208085019101610457565b60405190612aac8261136c565b8160008152600060208201526040612ac2612687565b910152565b612af690610fdf7f00000000000000000000000000000000000000000000000000000000000000008092612780565b918291808410612b035750565b6040516371c4efed60e01b8152600481018590526024810191909152604490fd5b906001600160a01b03821615612b3d576106f291613214565b604051634b637e8f60e11b815260006004820152602490fd5b63ffffffff16806000526001602052604060002054908115612b76575090565b6024906040519063f6ff4fb760e01b82526004820152fd5b356104b0816129b6565b6104b0939260809260018060a01b03168252602082015260006040820152816060820152019061047a565b91906001600160a01b0380841615612b3d57811615612be5576106f29261351f565b60405163ec442f0560e01b815260006004820152602490fd5b6000546001600160a01b03163303612c1257565b60405163118cdaa760e01b8152336004820152602490fd5b9081602091031261045257516104b081610f4c565b9091612c566104b09360408452604084019061047a565b91602081840391015261047a565b9091612c97612c75612cbe946138d3565b612c8c612c8560a086018661297a565b36916127d4565b90602085013561392a565b9390928394600014612d3a576002905b611cd4612cb38261270a565b91608081019061297a565b60045490926001600160a01b03909116908382612cda57505050565b60405163043a78eb60e01b815292602092849283918291612cfe9160048401612c3f565b03915afa801561085857612d0f5750565b612d309060203d602011612d33575b612d2881836113d5565b810190612c2a565b50565b503d612d1e565b600190612ca7565b919082604091031261045257604051612d5a8161139f565b6020808294805184520151910152565b90604082820312610452576104b091612d42565b906020909392936040835263ffffffff81511660408401528181015160608401526080612dd2612dbc604084015160a08488015260e087019061047a565b6060840151868203603f190160a088015261047a565b910151151560c08401526001600160a01b03909416910152565b80518210156129755760209160051b010190565b90601f8111612e0e57505050565b6000916000526020600020906020601f850160051c83019410612e4c575b601f0160051c01915b828110612e4157505050565b818155600101612e35565b9092508290612e2c565b91909182516001600160401b03811161138757612e7d81612e778454611286565b84612e00565b602080601f8311600114612ec057508190612eb1939495600092612eb5575b50508160011b916000199060031b1c19161790565b9055565b015190503880612e9c565b90601f19831695612ed685600052602060002090565b926000905b888210612f1357505083600195969710612efa575b505050811b019055565b015160001960f88460031b161c19169055388080612ef0565b80600185968294968601518155019501930190612edb565b6020808201908083528351809252604092604081018260408560051b8401019601946000925b858410612f62575050505050505090565b909192939495968580612fa5600193603f198682030188528b518760609163ffffffff815116845261ffff8682015116868501520151918189820152019061047a565b990194019401929594939190612f51565b9060009160005b81518110156130425760019061303c6040612fe481612fdc8588612dec565b51015161307c565b61303781612ff28588612dec565b5101519163ffffffff6130058689612dec565b515116895261ffff602091600383528a2091613021878a612dec565b5101511661ffff16600052602052604060002090565b612e56565b01612fbd565b507fbe4864a8e820971c0247f5992e2da559595f7bf076a21cb5928d443d2a13b6749192506130779060405191829182612f2b565b0390a1565b600361ffff6002830151160361308f5750565b604051639a6d49cd60e01b815260206004820152908190610bec90602483019061047a565b604090602319011261045257604051906130cd8261139f565b60243582526044356020830152565b906001600160a01b038083161561066257811615610649576105fa6131139260018060a01b03166000526006602052604060002090565b55565b1561311d57565b60405162461bcd60e51b815260206004820152601e60248201527f45786365656473206d6178207472616e73616374696f6e20616d6f756e7400006044820152606490fd5b9190820180921161277b57565b1561317657565b60405162461bcd60e51b815260206004820152601a60248201527f45786365656473206d61782077616c6c657420686f6c64696e670000000000006044820152606490fd5b156131c257565b60405162461bcd60e51b815260206004820152601c60248201527f5472616e7366657220626c6f636b656420627920636f6f6c646f776e000000006044820152606490fd5b9190820391821161277b57565b906001600160a01b038216158015613517575b61350e576001600160a01b03821660009081526011602052604090206106f29290613254905b5460ff1690565b80156134d6575b60008052601260205261328d7f7e7fa33969761a458e04f477e039a608702b4f924981d6653935a8319a08ad7b61324d565b60145460ff1690816134ac575b816134a3575b50613390575b600090156132e5575b806132bb575b50613ae8565b600f5491926132de926132d99083906001600160a01b031686613bc1565b613207565b90386132b5565b6001600160a01b03821660009081526013602052604090206133069061324d565b80613385575b1561332d5750613328613321600d5484612768565b6064900490565b6132af565b60008052601360205261335f7f8fa6efc3be94b5b348b21fea823fe8d100408cee9b7f90524494500445d8ff6c61324d565b8061337a575b156132af5750613328613321600e5484612768565b50600e541515613365565b50600d54151561330c565b6133a361339b6127a0565b841115613116565b6000805260136020526133d8611d8d7f8fa6efc3be94b5b348b21fea823fe8d100408cee9b7f90524494500445d8ff6c61324d565b61345e575b600b54806133ec575b506132a6565b60008052600c60205261342c90613425907f13649b2456f1b42fef0f0040b3aaeabcd21a76a0f3f5defd4f583839455116e85b54613162565b42116131bb565b60008052600c602052427f13649b2456f1b42fef0f0040b3aaeabcd21a76a0f3f5defd4f583839455116e855386133e6565b60008052600560205261349e613494847f05b8ccbb9d4d8fb16ea74ce3c29a41f1b461fbdaff4714a0d9a8eb05499746bc61341f565b600a54101561316f565b6133dd565b905015386132a0565b6001600160a01b03841660009081526013602052604090209091506134d09061324d565b9061329a565b506000805260116020526135097f4ad3b33220dddc71b994a52d72c06b10862965f7d926534c05c00fb7e819e7b761324d565b61325b565b6106f291613ae8565b506001613227565b91906001600160a01b038084161590811561378b575b50613782576001600160a01b03831660009081526011602052604090206106f293906135609061324d565b801561375b575b6001600160a01b03831660009081526012602052604090206135889061324d565b60145460ff169081613731575b81613728575b5061366e575b600090156135db575b806135b6575b50613bc1565b600f5491936135d4926132d99083906001600160a01b031687613bc1565b91386135b0565b6001600160a01b03821660009081526013602052604090206135fc9061324d565b80613663575b1561361c5750613617613321600d5485612768565b6135aa565b6001600160a01b038316600090815260136020526040902061363d9061324d565b80613658575b156135aa5750613617613321600e5485612768565b50600e541515613643565b50600d541515613602565b6136816136796127a0565b851115613116565b6001600160a01b03831660009081526013602052604090206136a690611d8d9061324d565b613700575b600b54806136ba575b506135a1565b6001600160a01b0384166000908152600c602052604090206136df916134259161341f565b6001600160a01b0383166000908152600c60205260409020429055386136b4565b6137236134948561341f8660018060a01b03166000526005602052604060002090565b6136ab565b9050153861359b565b6001600160a01b03841660009081526013602052604090209091506137559061324d565b90613595565b506001600160a01b038216600090815260116020526040902061377d9061324d565b613567565b6106f292613bc1565b905081161538613535565b90602011610452573590565b90602811610452576020013560c01c90565b6104b0906001600160401b037f00000000000000000000000000000000000000000000000000000000000000009116612768565b6001600160a01b0381811615613850575b8116908115612be5576007549083820180921161277b576007919091556001600160a01b031660009081526005602052604090208281540190556000600080516020613e168339815191526020604051858152a390565b61dead91506137f9565b9080602811610452576104b091369160271901906028016127d4565b604c91936104b0936040519586936001600160401b0360c01b9060c01b16602085015263ffffffff60e01b9060e01b166028840152602c8301526138c38151809260208686019101610457565b810103602c8101845201826113d5565b6138fe907f000000000000000000000000000000000000000000000000000000000000000090612780565b6001600160401b0390818111613912571690565b6024906040519063e2ce941360e01b82526004820152fd5b82511580159390613988576139859160689160405194859260208401526001600160401b0360c01b9060c01b1660408301523360488301526139758151809260208686019101610457565b81010360488101845201826113d5565b91565b50906040519160208301526001600160401b0360c01b9060c01b166040820152602881526139858161136c565b90608082820312610452576139ef9060408051936139d28561136c565b8051855260208101516139e4816129b6565b602086015201612d42565b604082015290565b613a5460809492613a709694613a0b612a9f565b506020613a188651613cd3565b950191825180613ad9575b50613a2d85612b56565b9251151592613a3d61102761267a565b602086015260408501526060840152151585830152565b6040518095819482936302637a4560e41b845260048401612d7e565b03917f00000000000000000000000000000000000000000000000000000000000000006001600160a01b03165af190811561085857600091613ab0575090565b6104b0915060803d608011613ad2575b613aca81836113d5565b8101906139b5565b503d613ac0565b613ae290613cf5565b38613a23565b6001600160a01b0381169081613b3157506007549180830180931161277b576020600080516020613e16833981519152916000946007555b8060075403600755604051908152a3565b6001600160a01b038116600090815260056020526040902054939290818510613b8f5781602091613b89600080516020613e168339815191529460009798039160018060a01b03166000526005602052604060002090565b55613b20565b60405163391434e360e21b81526001600160a01b03919091166004820152602481018590526044810191909152606490fd5b90916001600160a01b038083169283613c4a575081613c2391613bfd613bf8600080516020613e1683398151915295600754613162565b600755565b85169485613c285750613c138160075403600755565b6040519081529081906020820190565b0390a3565b6001600160a01b03166000908152600560205260409020818154019055613c13565b6001600160a01b038116600090815260056020526040902054838110613ca457918391613c9e600080516020613e1683398151915295613c2395039160018060a01b03166000526005602052604060002090565b55613bfd565b60405163391434e360e21b81526001600160a01b03929092166004830152602482015260448101839052606490fd5b803403613cdd5790565b6040516304fb820960e51b8152346004820152602490fd5b60405163393f876560e21b81526001600160a01b037f0000000000000000000000000000000000000000000000000000000000000000811691602081600481865afa90811561085857600091613dd6575b5016918215613dc45760209160009160405190848201926323b872dd60e01b84523360248401526044830152606482015260648152613d84816113ba565b519082855af1156126b5576000513d613dbb5750803b155b613da35750565b60249060405190635274afe760e01b82526004820152fd5b60011415613d9c565b6040516329b99a9560e11b8152600490fd5b613def915060203d6020116108835761087581836113d5565b38613d4656feefed6d3500546b29533b128a29e3a94d70788727f0507505ac12eaf2e578fd9cddf252ad1be2c89b69c2b068fc378daa952ba7f163c4a11628f55a4df523b3efa2646970667358221220de9d545add3f2ebedac68117aaa5006a66b9467bf92b3f87c80a32ba3e1a42b464736f6c63430008160033f3f7a9fe364faab93b216da50a3214154f22a0a2b415b23a84c8169e8b636ee36e1540171b6c0c960b71a7020d9f60077f6af931a8bbf590da0223dacf75c7af",
  "devdoc": {
    "errors": {
      "ERC20InsufficientAllowance(address,uint256,uint256)": [
        {
          "details": "Indicates a failure with the `spender`s `allowance`. Used in transfers.",
          "params": {
            "allowance": "Amount of tokens a `spender` is allowed to operate with.",
            "needed": "Minimum amount required to perform a transfer.",
            "spender": "Address that may be allowed to operate on tokens without being their owner."
          }
        }
      ],
      "ERC20InsufficientBalance(address,uint256,uint256)": [
        {
          "details": "Indicates an error related to the current `balance` of a `sender`. Used in transfers.",
          "params": {
            "balance": "Current balance for the interacting account.",
            "needed": "Minimum amount required to perform a transfer.",
            "sender": "Address whose tokens are being transferred."
          }
        }
      ],
      "ERC20InvalidApprover(address)": [
        {
          "details": "Indicates a failure with the `approver` of a token to be approved. Used in approvals.",
          "params": {
            "approver": "Address initiating an approval operation."
          }
        }
      ],
      "ERC20InvalidReceiver(address)": [
        {
          "details": "Indicates a failure with the token `receiver`. Used in transfers.",
          "params": {
            "receiver": "Address to which tokens are being transferred."
          }
        }
      ],
      "ERC20InvalidSender(address)": [
        {
          "details": "Indicates a failure with the token `sender`. Used in transfers.",
          "params": {
            "sender": "Address whose tokens are being transferred."
          }
        }
      ],
      "ERC20InvalidSpender(address)": [
        {
          "details": "Indicates a failure with the `spender` to be approved. Used in approvals.",
          "params": {
            "spender": "Address that may be allowed to operate on tokens without being their owner."
          }
        }
      ],
      "OwnableInvalidOwner(address)": [
        {
          "details": "The owner is not a valid owner account. (eg. `address(0)`)"
        }
      ],
      "OwnableUnauthorizedAccount(address)": [
        {
          "details": "The caller account is not authorized to perform an operation."
        }
      ],
      "SafeERC20FailedOperation(address)": [
        {
          "details": "An operation with an ERC-20 token failed."
        }
      ]
    },
    "events": {
      "Approval(address,address,uint256)": {
        "details": "Emitted when the allowance of a `spender` for an `owner` is set by a call to {approve}. `value` is the new allowance."
      },
      "PreCrimeSet(address)": {
        "details": "Emitted when the preCrime contract address is set.",
        "params": {
          "preCrimeAddress": "The address of the preCrime contract."
        }
      },
      "Transfer(address,address,uint256)": {
        "details": "Emitted when `value` tokens are moved from one account (`from`) to another (`to`). Note that `value` may be zero."
      }
    },
    "kind": "dev",
    "methods": {
      "allowInitializePath((uint32,bytes32,uint64))": {
        "details": "This indicates to the endpoint that the OApp has enabled msgs for this particular path to be received.This defaults to assuming if a peer has been set, its initialized. Can be overridden by the OApp if there is other logic to determine this.",
        "params": {
          "origin": "The origin information containing the source endpoint and sender address."
        },
        "returns": {
          "_0": "Whether the path has been initialized."
        }
      },
      "allowance(address,address)": {
        "details": "Returns the remaining number of tokens that `spender` will be allowed to spend on behalf of `owner` through {transferFrom}. This is zero by default. This value changes when {approve} or {transferFrom} are called."
      },
      "approvalRequired()": {
        "details": "In the case of OFT where the contract IS the token, approval is NOT required.",
        "returns": {
          "_0": "requiresApproval Needs approval of the underlying token implementation."
        }
      },
      "approve(address,uint256)": {
        "details": "See {IERC20-approve}. NOTE: If `value` is the maximum `uint256`, the allowance is not updated on `transferFrom`. This is semantically equivalent to an infinite approval. Requirements: - `spender` cannot be the zero address."
      },
      "balanceOf(address)": {
        "details": "Returns the value of tokens owned by `account`."
      },
      "combineOptions(uint32,uint16,bytes)": {
        "details": "If there is an enforced lzReceive option: - {gasLimit: 200k, msg.value: 1 ether} AND a caller supplies a lzReceive option: {gasLimit: 100k, msg.value: 0.5 ether} - The resulting options will be {gasLimit: 300k, msg.value: 1.5 ether} when the message is executed on the remote lzReceive() function.This presence of duplicated options is handled off-chain in the verifier/executor.",
        "params": {
          "_eid": "The endpoint ID.",
          "_extraOptions": "Additional options passed by the caller.",
          "_msgType": "The OAPP message type."
        },
        "returns": {
          "_0": "options The combination of caller specified options AND enforced options."
        }
      },
      "decimals()": {
        "details": "Returns the number of decimals used to get its user representation. For example, if `decimals` equals `2`, a balance of `505` tokens should be displayed to a user as `5.05` (`505 / 10 ** 2`). Tokens usually opt for a value of 18, imitating the relationship between Ether and Wei. This is the default value returned by this function, unless it's overridden. NOTE: This information is only used for _display_ purposes: it in no way affects any of the arithmetic of the contract, including {IERC20-balanceOf} and {IERC20-transfer}."
      },
      "isComposeMsgSender((uint32,bytes32,uint64),bytes,address)": {
        "details": "_origin The origin information containing the source endpoint and sender address.  - srcEid: The source chain endpoint ID.  - sender: The sender address on the src chain.  - nonce: The nonce of the message._message The lzReceive payload.Applications can optionally choose to implement separate composeMsg senders that are NOT the bridging layer.The default sender IS the OAppReceiver implementer.",
        "params": {
          "_sender": "The sender address."
        },
        "returns": {
          "_0": "isSender Is a valid sender."
        }
      },
      "isPeer(uint32,bytes32)": {
        "details": "Check if the peer is considered 'trusted' by the OApp.Enables OAppPreCrimeSimulator to check whether a potential Inbound Packet is from a trusted source.",
        "params": {
          "_eid": "The endpoint ID to check.",
          "_peer": "The peer to check."
        },
        "returns": {
          "_0": "Whether the peer passed is considered 'trusted' by the OApp."
        }
      },
      "lzReceive((uint32,bytes32,uint64),bytes32,bytes,address,bytes)": {
        "details": "Entry point for receiving messages or packets from the endpoint.Entry point for receiving msg/packet from the LayerZero endpoint.",
        "params": {
          "_executor": "The address of the executor for the received message.",
          "_extraData": "Additional arbitrary data provided by the corresponding executor.",
          "_guid": "The unique identifier for the received LayerZero message.",
          "_message": "The payload of the received message.",
          "_origin": "The origin information containing the source endpoint and sender address.  - srcEid: The source chain endpoint ID.  - sender: The sender address on the src chain.  - nonce: The nonce of the message."
        }
      },
      "lzReceiveAndRevert(((uint32,bytes32,uint64),uint32,address,bytes32,uint256,address,bytes,bytes)[])": {
        "details": "Interface for pre-crime simulations. Always reverts at the end with the simulation results.WARNING: MUST revert at the end with the simulation results.Gives the preCrime implementation the ability to mock sending packets to the lzReceive function, WITHOUT actually executing them.",
        "params": {
          "_packets": "An array of InboundPacket objects representing received packets to be delivered."
        }
      },
      "lzReceiveSimulate((uint32,bytes32,uint64),bytes32,bytes,address,bytes)": {
        "details": "Is effectively an internal function because msg.sender must be address(this). Allows resetting the call stack for 'internal' calls.",
        "params": {
          "_executor": "The executor address for the packet.",
          "_extraData": "Additional data for the packet.",
          "_guid": "The unique identifier of the packet.",
          "_message": "The message payload of the packet.",
          "_origin": "The origin information containing the source endpoint and sender address.  - srcEid: The source chain endpoint ID.  - sender: The sender address on the src chain.  - nonce: The nonce of the message."
        }
      },
      "name()": {
        "details": "Returns the name of the token."
      },
      "nextNonce(uint32,bytes32)": {
        "details": "_srcEid The source endpoint ID._sender The sender address.The path nonce starts from 1. If 0 is returned it means that there is NO nonce ordered enforcement.Is required by the off-chain executor to determine the OApp expects msg execution is ordered.This is also enforced by the OApp.By default this is NOT enabled. ie. nextNonce is hardcoded to return 0.",
        "returns": {
          "nonce": "The next nonce."
        }
      },
      "oApp()": {
        "details": "Retrieves the address of the OApp contract.The simulator contract is the base contract for the OApp by default.If the simulator is a separate contract, override this function.",
        "returns": {
          "_0": "The address of the OApp contract."
        }
      },
      "oAppVersion()": {
        "returns": {
          "receiverVersion": "The version of the OAppReceiver.sol implementation.",
          "senderVersion": "The version of the OAppSender.sol implementation."
        }
      },
      "oftVersion()": {
        "details": "interfaceId: This specific interface ID is '0x02e49c2c'.version: Indicates a cross-chain compatible msg encoding with other OFTs.If a new feature is added to the OFT cross-chain msg encoding, the version will be incremented. ie. localOFT version(x,1) CAN send messages to remoteOFT version(x,1)",
        "returns": {
          "interfaceId": "The interface ID.",
          "version": "The version."
        }
      },
      "owner()": {
        "details": "Returns the address of the current owner."
      },
      "quoteOFT((uint32,bytes32,uint256,uint256,bytes,bytes,bytes))": {
        "params": {
          "_sendParam": "The parameters for the send operation."
        },
        "returns": {
          "oftFeeDetails": "The details of OFT fees.",
          "oftLimit": "The OFT limit information.",
          "oftReceipt": "The OFT receipt information."
        }
      },
      "quoteSend((uint32,bytes32,uint256,uint256,bytes,bytes,bytes),bool)": {
        "details": "MessagingFee: LayerZero msg fee  - nativeFee: The native fee.  - lzTokenFee: The lzToken fee.",
        "params": {
          "_payInLzToken": "Flag indicating whether the caller is paying in the LZ token.",
          "_sendParam": "The parameters for the send() operation."
        },
        "returns": {
          "msgFee": "The calculated LayerZero messaging fee from the send() operation."
        }
      },
      "renounceOwnership()": {
        "details": "Leaves the contract without owner. It will not be possible to call `onlyOwner` functions. Can only be called by the current owner. NOTE: Renouncing ownership will leave the contract without an owner, thereby disabling any functionality that is only available to the owner."
      },
      "send((uint32,bytes32,uint256,uint256,bytes,bytes,bytes),(uint256,uint256),address)": {
        "details": "Executes the send operation.MessagingReceipt: LayerZero msg receipt  - guid: The unique identifier for the sent message.  - nonce: The nonce of the sent message.  - fee: The LayerZero fee incurred for the message.",
        "params": {
          "_fee": "The calculated fee for the send() operation.      - nativeFee: The native fee.      - lzTokenFee: The lzToken fee.",
          "_refundAddress": "The address to receive any excess funds.",
          "_sendParam": "The parameters for the send operation."
        },
        "returns": {
          "msgReceipt": "The receipt for the send operation.",
          "oftReceipt": "The OFT receipt information."
        }
      },
      "setDelegate(address)": {
        "details": "Only the owner/admin of the OApp can call this function.Provides the ability for a delegate to set configs, on behalf of the OApp, directly on the Endpoint contract.",
        "params": {
          "_delegate": "The address of the delegate to be set."
        }
      },
      "setEnforcedOptions((uint32,uint16,bytes)[])": {
        "details": "Sets the enforced options for specific endpoint and message type combinations.Only the owner/admin of the OApp can call this function.Provides a way for the OApp to enforce things like paying for PreCrime, AND/OR minimum dst lzReceive gas amounts etc.These enforced options can vary as the potential options/execution on the remote may differ as per the msgType. eg. Amount of lzReceive() gas necessary to deliver a lzCompose() message adds overhead you dont want to pay if you are only making a standard LayerZero message ie. lzReceive() WITHOUT sendCompose().",
        "params": {
          "_enforcedOptions": "An array of EnforcedOptionParam structures specifying enforced options."
        }
      },
      "setMsgInspector(address)": {
        "details": "Sets the message inspector address for the OFT.This is an optional contract that can be used to inspect both 'message' and 'options'.Set it to address(0) to disable it, or set it to a contract address to enable it.",
        "params": {
          "_msgInspector": "The address of the message inspector."
        }
      },
      "setPeer(uint32,bytes32)": {
        "details": "Only the owner/admin of the OApp can call this function.Indicates that the peer is trusted to send LayerZero messages to this OApp.Set this to bytes32(0) to remove the peer address.Peer is a bytes32 to accommodate non-evm chains.",
        "params": {
          "_eid": "The endpoint ID.",
          "_peer": "The address of the peer to be associated with the corresponding endpoint."
        }
      },
      "setPreCrime(address)": {
        "details": "Sets the preCrime contract address.",
        "params": {
          "_preCrime": "The address of the preCrime contract."
        }
      },
      "sharedDecimals()": {
        "details": "Retrieves the shared decimals of the OFT.Sets an implicit cap on the amount of tokens, over uint64.max() will need some sort of outbound cap / totalSupply cap Lowest common decimal denominator between chains. Defaults to 6 decimal places to provide up to 18,446,744,073,709.551615 units (max uint64). For tokens exceeding this totalSupply(), they will need to override the sharedDecimals function with something smaller. ie. 4 sharedDecimals would be 1,844,674,407,370,955.1615",
        "returns": {
          "_0": "The shared decimals of the OFT."
        }
      },
      "symbol()": {
        "details": "Returns the symbol of the token, usually a shorter version of the name."
      },
      "token()": {
        "details": "Retrieves the address of the underlying ERC20 implementation.In the case of OFT, address(this) and erc20 are the same contract.",
        "returns": {
          "_0": "The address of the OFT token."
        }
      },
      "totalSupply()": {
        "details": "Returns the value of tokens in existence."
      },
      "transfer(address,uint256)": {
        "details": "See {IERC20-transfer}. Requirements: - `to` cannot be the zero address. - the caller must have a balance of at least `value`."
      },
      "transferFrom(address,address,uint256)": {
        "details": "See {IERC20-transferFrom}. Skips emitting an {Approval} event indicating an allowance update. This is not required by the ERC. See {xref-ERC20-_approve-address-address-uint256-bool-}[_approve]. NOTE: Does not update the allowance if the current allowance is the maximum `uint256`. Requirements: - `from` and `to` cannot be the zero address. - `from` must have a balance of at least `value`. - the caller must have allowance for ``from``'s tokens of at least `value`."
      },
      "transferOwnership(address)": {
        "details": "Transfers ownership of the contract to a new account (`newOwner`). Can only be called by the current owner."
      }
    },
    "version": 1
  },
  "userdoc": {
    "kind": "user",
    "methods": {
      "allowInitializePath((uint32,bytes32,uint64))": {
        "notice": "Checks if the path initialization is allowed based on the provided origin."
      },
      "approvalRequired()": {
        "notice": "Indicates whether the OFT contract requires approval of the 'token()' to send."
      },
      "combineOptions(uint32,uint16,bytes)": {
        "notice": "Combines options for a given endpoint and message type."
      },
      "endpoint()": {
        "notice": "Retrieves the LayerZero endpoint associated with the OApp."
      },
      "isComposeMsgSender((uint32,bytes32,uint64),bytes,address)": {
        "notice": "Indicates whether an address is an approved composeMsg sender to the Endpoint."
      },
      "nextNonce(uint32,bytes32)": {
        "notice": "Retrieves the next nonce for a given source endpoint and sender address."
      },
      "oAppVersion()": {
        "notice": "Retrieves the OApp version information."
      },
      "oftVersion()": {
        "notice": "Retrieves interfaceID and the version of the OFT."
      },
      "peers(uint32)": {
        "notice": "Retrieves the peer (OApp) associated with a corresponding endpoint."
      },
      "quoteOFT((uint32,bytes32,uint256,uint256,bytes,bytes,bytes))": {
        "notice": "Provides the fee breakdown and settings data for an OFT. Unused in the default implementation."
      },
      "quoteSend((uint32,bytes32,uint256,uint256,bytes,bytes,bytes),bool)": {
        "notice": "Provides a quote for the send() operation."
      },
      "setDelegate(address)": {
        "notice": "Sets the delegate address for the OApp."
      },
      "setPeer(uint32,bytes32)": {
        "notice": "Sets the peer address (OApp instance) for a corresponding endpoint."
      }
    },
    "version": 1
  },
  "storageLayout": {
    "storage": [
      {
        "astId": 3861,
        "contract": "contracts/Wancash.sol:Wancash",
        "label": "_owner",
        "offset": 0,
        "slot": "0",
        "type": "t_address"
      },
      {
        "astId": 1390,
        "contract": "contracts/Wancash.sol:Wancash",
        "label": "peers",
        "offset": 0,
        "slot": "1",
        "type": "t_mapping(t_uint32,t_bytes32)"
      },
      {
        "astId": 2166,
        "contract": "contracts/Wancash.sol:Wancash",
        "label": "preCrime",
        "offset": 0,
        "slot": "2",
        "type": "t_address"
      },
      {
        "astId": 2006,
        "contract": "contracts/Wancash.sol:Wancash",
        "label": "enforcedOptions",
        "offset": 0,
        "slot": "3",
        "type": "t_mapping(t_uint32,t_mapping(t_uint16,t_bytes_storage))"
      },
      {
        "astId": 2786,
        "contract": "contracts/Wancash.sol:Wancash",
        "label": "msgInspector",
        "offset": 0,
        "slot": "4",
        "type": "t_address"
      },
      {
        "astId": 4250,
        "contract": "contracts/Wancash.sol:Wancash",
        "label": "_balances",
        "offset": 0,
        "slot": "5",
        "type": "t_mapping(t_address,t_uint256)"
      },
      {
        "astId": 4256,
        "contract": "contracts/Wancash.sol:Wancash",
        "label": "_allowances",
        "offset": 0,
        "slot": "6",
        "type": "t_mapping(t_address,t_mapping(t_address,t_uint256))"
      },
      {
        "astId": 4258,
        "contract": "contracts/Wancash.sol:Wancash",
        "label": "_totalSupply",
        "offset": 0,
        "slot": "7",
        "type": "t_uint256"
      },
      {
        "astId": 4260,
        "contract": "contracts/Wancash.sol:Wancash",
        "label": "_name",
        "offset": 0,
        "slot": "8",
        "type": "t_string_storage"
      },
      {
        "astId": 4262,
        "contract": "contracts/Wancash.sol:Wancash",
        "label": "_symbol",
        "offset": 0,
        "slot": "9",
        "type": "t_string_storage"
      },
      {
        "astId": 5364,
        "contract": "contracts/Wancash.sol:Wancash",
        "label": "maxWalletAmount",
        "offset": 0,
        "slot": "10",
        "type": "t_uint256"
      },
      {
        "astId": 5367,
        "contract": "contracts/Wancash.sol:Wancash",
        "label": "antiBotDuration",
        "offset": 0,
        "slot": "11",
        "type": "t_uint256"
      },
      {
        "astId": 5371,
        "contract": "contracts/Wancash.sol:Wancash",
        "label": "_lastBuyTime",
        "offset": 0,
        "slot": "12",
        "type": "t_mapping(t_address,t_uint256)"
      },
      {
        "astId": 5374,
        "contract": "contracts/Wancash.sol:Wancash",
        "label": "buyTax",
        "offset": 0,
        "slot": "13",
        "type": "t_uint256"
      },
      {
        "astId": 5377,
        "contract": "contracts/Wancash.sol:Wancash",
        "label": "sellTax",
        "offset": 0,
        "slot": "14",
        "type": "t_uint256"
      },
      {
        "astId": 5379,
        "contract": "contracts/Wancash.sol:Wancash",
        "label": "treasuryAddress",
        "offset": 0,
        "slot": "15",
        "type": "t_address"
      },
      {
        "astId": 5381,
        "contract": "contracts/Wancash.sol:Wancash",
        "label": "vestingContract",
        "offset": 0,
        "slot": "16",
        "type": "t_address"
      },
      {
        "astId": 5385,
        "contract": "contracts/Wancash.sol:Wancash",
        "label": "_isExcludedFromFee",
        "offset": 0,
        "slot": "17",
        "type": "t_mapping(t_address,t_bool)"
      },
      {
        "astId": 5389,
        "contract": "contracts/Wancash.sol:Wancash",
        "label": "_isExcludedFromLimits",
        "offset": 0,
        "slot": "18",
        "type": "t_mapping(t_address,t_bool)"
      },
      {
        "astId": 5393,
        "contract": "contracts/Wancash.sol:Wancash",
        "label": "automatedMarketMakerPairs",
        "offset": 0,
        "slot": "19",
        "type": "t_mapping(t_address,t_bool)"
      },
      {
        "astId": 5440,
        "contract": "contracts/Wancash.sol:Wancash",
        "label": "limitsEnabled",
        "offset": 0,
        "slot": "20",
        "type": "t_bool"
      }
    ],
    "types": {
      "t_address": {
        "encoding": "inplace",
        "label": "address",
        "numberOfBytes": "20"
      },
      "t_bool": {
        "encoding": "inplace",
        "label": "bool",
        "numberOfBytes": "1"
      },
      "t_bytes32": {
        "encoding": "inplace",
        "label": "bytes32",
        "numberOfBytes": "32"
      },
      "t_bytes_storage": {
        "encoding": "bytes",
        "label": "bytes",
        "numberOfBytes": "32"
      },
      "t_mapping(t_address,t_bool)": {
        "encoding": "mapping",
        "key": "t_address",
        "label": "mapping(address => bool)",
        "numberOfBytes": "32",
        "value": "t_bool"
      },
      "t_mapping(t_address,t_mapping(t_address,t_uint256))": {
        "encoding": "mapping",
        "key": "t_address",
        "label": "mapping(address => mapping(address => uint256))",
        "numberOfBytes": "32",
        "value": "t_mapping(t_address,t_uint256)"
      },
      "t_mapping(t_address,t_uint256)": {
        "encoding": "mapping",
        "key": "t_address",
        "label": "mapping(address => uint256)",
        "numberOfBytes": "32",
        "value": "t_uint256"
      },
      "t_mapping(t_uint16,t_bytes_storage)": {
        "encoding": "mapping",
        "key": "t_uint16",
        "label": "mapping(uint16 => bytes)",
        "numberOfBytes": "32",
        "value": "t_bytes_storage"
      },
      "t_mapping(t_uint32,t_bytes32)": {
        "encoding": "mapping",
        "key": "t_uint32",
        "label": "mapping(uint32 => bytes32)",
        "numberOfBytes": "32",
        "value": "t_bytes32"
      },
      "t_mapping(t_uint32,t_mapping(t_uint16,t_bytes_storage))": {
        "encoding": "mapping",
        "key": "t_uint32",
        "label": "mapping(uint32 => mapping(uint16 => bytes))",
        "numberOfBytes": "32",
        "value": "t_mapping(t_uint16,t_bytes_storage)"
      },
      "t_string_storage": {
        "encoding": "bytes",
        "label": "string",
        "numberOfBytes": "32"
      },
      "t_uint16": {
        "encoding": "inplace",
        "label": "uint16",
        "numberOfBytes": "2"
      },
      "t_uint256": {
        "encoding": "inplace",
        "label": "uint256",
        "numberOfBytes": "32"
      },
      "t_uint32": {
        "encoding": "inplace",
        "label": "uint32",
        "numberOfBytes": "4"
      }
    }
  }
}