{
  "address": "0x940d05C9a723DfAAa3C96f9cE4A6531Ccb45FB0C",
  "abi": [
    {
      "inputs": [
        {
          "internalType": "string",
          "name": "_name",
          "type": "string"
        },
        {
          "internalType": "string",
          "name": "_symbol",
          "type": "string"
        },
        {
          "internalType": "address",
          "name": "_lzEndpoint",
          "type": "address"
        },
        {
          "internalType": "address",
          "name": "_delegate",
          "type": "address"
        },
        {
          "internalType": "address",
          "name": "_treasury",
          "type": "address"
        },
        {
          "internalType": "uint16",
          "name": "_mainChainId",
          "type": "uint16"
        },
        {
          "internalType": "uint256",
          "name": "_initialSupply",
          "type": "uint256"
        }
      ],
      "stateMutability": "nonpayable",
      "type": "constructor"
    },
    {
      "inputs": [
        {
          "internalType": "uint256",
          "name": "amountSD",
          "type": "uint256"
        }
      ],
      "name": "AmountSDOverflowed",
      "type": "error"
    },
    {
      "inputs": [
        {
          "internalType": "address",
          "name": "spender",
          "type": "address"
        },
        {
          "internalType": "uint256",
          "name": "allowance",
          "type": "uint256"
        },
        {
          "internalType": "uint256",
          "name": "needed",
          "type": "uint256"
        }
      ],
      "name": "ERC20InsufficientAllowance",
      "type": "error"
    },
    {
      "inputs": [
        {
          "internalType": "address",
          "name": "sender",
          "type": "address"
        },
        {
          "internalType": "uint256",
          "name": "balance",
          "type": "uint256"
        },
        {
          "internalType": "uint256",
          "name": "needed",
          "type": "uint256"
        }
      ],
      "name": "ERC20InsufficientBalance",
      "type": "error"
    },
    {
      "inputs": [
        {
          "internalType": "address",
          "name": "approver",
          "type": "address"
        }
      ],
      "name": "ERC20InvalidApprover",
      "type": "error"
    },
    {
      "inputs": [
        {
          "internalType": "address",
          "name": "receiver",
          "type": "address"
        }
      ],
      "name": "ERC20InvalidReceiver",
      "type": "error"
    },
    {
      "inputs": [
        {
          "internalType": "address",
          "name": "sender",
          "type": "address"
        }
      ],
      "name": "ERC20InvalidSender",
      "type": "error"
    },
    {
      "inputs": [
        {
          "internalType": "address",
          "name": "spender",
          "type": "address"
        }
      ],
      "name": "ERC20InvalidSpender",
      "type": "error"
    },
    {
      "inputs": [],
      "name": "InvalidDelegate",
      "type": "error"
    },
    {
      "inputs": [],
      "name": "InvalidEndpointCall",
      "type": "error"
    },
    {
      "inputs": [],
      "name": "InvalidLocalDecimals",
      "type": "error"
    },
    {
      "inputs": [
        {
          "internalType": "bytes",
          "name": "options",
          "type": "bytes"
        }
      ],
      "name": "InvalidOptions",
      "type": "error"
    },
    {
      "inputs": [],
      "name": "LzTokenUnavailable",
      "type": "error"
    },
    {
      "inputs": [
        {
          "internalType": "uint32",
          "name": "eid",
          "type": "uint32"
        }
      ],
      "name": "NoPeer",
      "type": "error"
    },
    {
      "inputs": [
        {
          "internalType": "uint256",
          "name": "msgValue",
          "type": "uint256"
        }
      ],
      "name": "NotEnoughNative",
      "type": "error"
    },
    {
      "inputs": [
        {
          "internalType": "address",
          "name": "addr",
          "type": "address"
        }
      ],
      "name": "OnlyEndpoint",
      "type": "error"
    },
    {
      "inputs": [
        {
          "internalType": "uint32",
          "name": "eid",
          "type": "uint32"
        },
        {
          "internalType": "bytes32",
          "name": "sender",
          "type": "bytes32"
        }
      ],
      "name": "OnlyPeer",
      "type": "error"
    },
    {
      "inputs": [],
      "name": "OnlySelf",
      "type": "error"
    },
    {
      "inputs": [
        {
          "internalType": "address",
          "name": "owner",
          "type": "address"
        }
      ],
      "name": "OwnableInvalidOwner",
      "type": "error"
    },
    {
      "inputs": [
        {
          "internalType": "address",
          "name": "account",
          "type": "address"
        }
      ],
      "name": "OwnableUnauthorizedAccount",
      "type": "error"
    },
    {
      "inputs": [
        {
          "internalType": "address",
          "name": "token",
          "type": "address"
        }
      ],
      "name": "SafeERC20FailedOperation",
      "type": "error"
    },
    {
      "inputs": [
        {
          "internalType": "bytes",
          "name": "result",
          "type": "bytes"
        }
      ],
      "name": "SimulationResult",
      "type": "error"
    },
    {
      "inputs": [
        {
          "internalType": "uint256",
          "name": "amountLD",
          "type": "uint256"
        },
        {
          "internalType": "uint256",
          "name": "minAmountLD",
          "type": "uint256"
        }
      ],
      "name": "SlippageExceeded",
      "type": "error"
    },
    {
      "anonymous": false,
      "inputs": [
        {
          "indexed": false,
          "internalType": "uint256",
          "name": "duration",
          "type": "uint256"
        }
      ],
      "name": "AntiBotDurationUpdated",
      "type": "event"
    },
    {
      "anonymous": false,
      "inputs": [
        {
          "indexed": true,
          "internalType": "address",
          "name": "owner",
          "type": "address"
        },
        {
          "indexed": true,
          "internalType": "address",
          "name": "spender",
          "type": "address"
        },
        {
          "indexed": false,
          "internalType": "uint256",
          "name": "value",
          "type": "uint256"
        }
      ],
      "name": "Approval",
      "type": "event"
    },
    {
      "anonymous": false,
      "inputs": [
        {
          "components": [
            {
              "internalType": "uint32",
              "name": "eid",
              "type": "uint32"
            },
            {
              "internalType": "uint16",
              "name": "msgType",
              "type": "uint16"
            },
            {
              "internalType": "bytes",
              "name": "options",
              "type": "bytes"
            }
          ],
          "indexed": false,
          "internalType": "struct EnforcedOptionParam[]",
          "name": "_enforcedOptions",
          "type": "tuple[]"
        }
      ],
      "name": "EnforcedOptionSet",
      "type": "event"
    },
    {
      "anonymous": false,
      "inputs": [
        {
          "indexed": true,
          "internalType": "address",
          "name": "account",
          "type": "address"
        },
        {
          "indexed": false,
          "internalType": "bool",
          "name": "isExcluded",
          "type": "bool"
        }
      ],
      "name": "ExcludeFromFee",
      "type": "event"
    },
    {
      "anonymous": false,
      "inputs": [
        {
          "indexed": false,
          "internalType": "uint256",
          "name": "maxTx",
          "type": "uint256"
        },
        {
          "indexed": false,
          "internalType": "uint256",
          "name": "maxWallet",
          "type": "uint256"
        }
      ],
      "name": "LimitsUpdated",
      "type": "event"
    },
    {
      "anonymous": false,
      "inputs": [
        {
          "indexed": false,
          "internalType": "address",
          "name": "inspector",
          "type": "address"
        }
      ],
      "name": "MsgInspectorSet",
      "type": "event"
    },
    {
      "anonymous": false,
      "inputs": [
        {
          "indexed": true,
          "internalType": "bytes32",
          "name": "guid",
          "type": "bytes32"
        },
        {
          "indexed": false,
          "internalType": "uint32",
          "name": "srcEid",
          "type": "uint32"
        },
        {
          "indexed": true,
          "internalType": "address",
          "name": "toAddress",
          "type": "address"
        },
        {
          "indexed": false,
          "internalType": "uint256",
          "name": "amountReceivedLD",
          "type": "uint256"
        }
      ],
      "name": "OFTReceived",
      "type": "event"
    },
    {
      "anonymous": false,
      "inputs": [
        {
          "indexed": true,
          "internalType": "bytes32",
          "name": "guid",
          "type": "bytes32"
        },
        {
          "indexed": false,
          "internalType": "uint32",
          "name": "dstEid",
          "type": "uint32"
        },
        {
          "indexed": true,
          "internalType": "address",
          "name": "fromAddress",
          "type": "address"
        },
        {
          "indexed": false,
          "internalType": "uint256",
          "name": "amountSentLD",
          "type": "uint256"
        },
        {
          "indexed": false,
          "internalType": "uint256",
          "name": "amountReceivedLD",
          "type": "uint256"
        }
      ],
      "name": "OFTSent",
      "type": "event"
    },
    {
      "anonymous": false,
      "inputs": [
        {
          "indexed": true,
          "internalType": "address",
          "name": "previousOwner",
          "type": "address"
        },
        {
          "indexed": true,
          "internalType": "address",
          "name": "newOwner",
          "type": "address"
        }
      ],
      "name": "OwnershipTransferred",
      "type": "event"
    },
    {
      "anonymous": false,
      "inputs": [
        {
          "indexed": false,
          "internalType": "uint32",
          "name": "eid",
          "type": "uint32"
        },
        {
          "indexed": false,
          "internalType": "bytes32",
          "name": "peer",
          "type": "bytes32"
        }
      ],
      "name": "PeerSet",
      "type": "event"
    },
    {
      "anonymous": false,
      "inputs": [
        {
          "indexed": false,
          "internalType": "address",
          "name": "preCrimeAddress",
          "type": "address"
        }
      ],
      "name": "PreCrimeSet",
      "type": "event"
    },
    {
      "anonymous": false,
      "inputs": [
        {
          "indexed": true,
          "internalType": "address",
          "name": "pair",
          "type": "address"
        },
        {
          "indexed": true,
          "internalType": "bool",
          "name": "value",
          "type": "bool"
        }
      ],
      "name": "SetAutomatedMarketMakerPair",
      "type": "event"
    },
    {
      "anonymous": false,
      "inputs": [
        {
          "indexed": false,
          "internalType": "uint256",
          "name": "buyTax",
          "type": "uint256"
        },
        {
          "indexed": false,
          "internalType": "uint256",
          "name": "sellTax",
          "type": "uint256"
        }
      ],
      "name": "TaxesUpdated",
      "type": "event"
    },
    {
      "anonymous": false,
      "inputs": [
        {
          "indexed": true,
          "internalType": "address",
          "name": "from",
          "type": "address"
        },
        {
          "indexed": true,
          "internalType": "address",
          "name": "to",
          "type": "address"
        },
        {
          "indexed": false,
          "internalType": "uint256",
          "name": "value",
          "type": "uint256"
        }
      ],
      "name": "Transfer",
      "type": "event"
    },
    {
      "anonymous": false,
      "inputs": [
        {
          "indexed": true,
          "internalType": "address",
          "name": "newTreasury",
          "type": "address"
        }
      ],
      "name": "TreasuryAddressUpdated",
      "type": "event"
    },
    {
      "anonymous": false,
      "inputs": [
        {
          "indexed": true,
          "internalType": "address",
          "name": "wallet",
          "type": "address"
        },
        {
          "indexed": false,
          "internalType": "uint256",
          "name": "amount",
          "type": "uint256"
        }
      ],
      "name": "VestingWalletDeployed",
      "type": "event"
    },
    {
      "inputs": [],
      "name": "SEND",
      "outputs": [
        {
          "internalType": "uint16",
          "name": "",
          "type": "uint16"
        }
      ],
      "stateMutability": "view",
      "type": "function"
    },
    {
      "inputs": [],
      "name": "SEND_AND_CALL",
      "outputs": [
        {
          "internalType": "uint16",
          "name": "",
          "type": "uint16"
        }
      ],
      "stateMutability": "view",
      "type": "function"
    },
    {
      "inputs": [
        {
          "internalType": "address",
          "name": "",
          "type": "address"
        }
      ],
      "name": "_isExcludedFromFee",
      "outputs": [
        {
          "internalType": "bool",
          "name": "",
          "type": "bool"
        }
      ],
      "stateMutability": "view",
      "type": "function"
    },
    {
      "inputs": [
        {
          "internalType": "address",
          "name": "",
          "type": "address"
        }
      ],
      "name": "_lastBuyTime",
      "outputs": [
        {
          "internalType": "uint256",
          "name": "",
          "type": "uint256"
        }
      ],
      "stateMutability": "view",
      "type": "function"
    },
    {
      "inputs": [
        {
          "components": [
            {
              "internalType": "uint32",
              "name": "srcEid",
              "type": "uint32"
            },
            {
              "internalType": "bytes32",
              "name": "sender",
              "type": "bytes32"
            },
            {
              "internalType": "uint64",
              "name": "nonce",
              "type": "uint64"
            }
          ],
          "internalType": "struct Origin",
          "name": "origin",
          "type": "tuple"
        }
      ],
      "name": "allowInitializePath",
      "outputs": [
        {
          "internalType": "bool",
          "name": "",
          "type": "bool"
        }
      ],
      "stateMutability": "view",
      "type": "function"
    },
    {
      "inputs": [
        {
          "internalType": "address",
          "name": "owner",
          "type": "address"
        },
        {
          "internalType": "address",
          "name": "spender",
          "type": "address"
        }
      ],
      "name": "allowance",
      "outputs": [
        {
          "internalType": "uint256",
          "name": "",
          "type": "uint256"
        }
      ],
      "stateMutability": "view",
      "type": "function"
    },
    {
      "inputs": [],
      "name": "antiBotDuration",
      "outputs": [
        {
          "internalType": "uint256",
          "name": "",
          "type": "uint256"
        }
      ],
      "stateMutability": "view",
      "type": "function"
    },
    {
      "inputs": [],
      "name": "approvalRequired",
      "outputs": [
        {
          "internalType": "bool",
          "name": "",
          "type": "bool"
        }
      ],
      "stateMutability": "pure",
      "type": "function"
    },
    {
      "inputs": [
        {
          "internalType": "address",
          "name": "spender",
          "type": "address"
        },
        {
          "internalType": "uint256",
          "name": "value",
          "type": "uint256"
        }
      ],
      "name": "approve",
      "outputs": [
        {
          "internalType": "bool",
          "name": "",
          "type": "bool"
        }
      ],
      "stateMutability": "nonpayable",
      "type": "function"
    },
    {
      "inputs": [
        {
          "internalType": "address",
          "name": "",
          "type": "address"
        }
      ],
      "name": "automatedMarketMakerPairs",
      "outputs": [
        {
          "internalType": "bool",
          "name": "",
          "type": "bool"
        }
      ],
      "stateMutability": "view",
      "type": "function"
    },
    {
      "inputs": [
        {
          "internalType": "address",
          "name": "account",
          "type": "address"
        }
      ],
      "name": "balanceOf",
      "outputs": [
        {
          "internalType": "uint256",
          "name": "",
          "type": "uint256"
        }
      ],
      "stateMutability": "view",
      "type": "function"
    },
    {
      "inputs": [],
      "name": "buyTax",
      "outputs": [
        {
          "internalType": "uint256",
          "name": "",
          "type": "uint256"
        }
      ],
      "stateMutability": "view",
      "type": "function"
    },
    {
      "inputs": [
        {
          "internalType": "uint32",
          "name": "_eid",
          "type": "uint32"
        },
        {
          "internalType": "uint16",
          "name": "_msgType",
          "type": "uint16"
        },
        {
          "internalType": "bytes",
          "name": "_extraOptions",
          "type": "bytes"
        }
      ],
      "name": "combineOptions",
      "outputs": [
        {
          "internalType": "bytes",
          "name": "",
          "type": "bytes"
        }
      ],
      "stateMutability": "view",
      "type": "function"
    },
    {
      "inputs": [],
      "name": "decimalConversionRate",
      "outputs": [
        {
          "internalType": "uint256",
          "name": "",
          "type": "uint256"
        }
      ],
      "stateMutability": "view",
      "type": "function"
    },
    {
      "inputs": [],
      "name": "decimals",
      "outputs": [
        {
          "internalType": "uint8",
          "name": "",
          "type": "uint8"
        }
      ],
      "stateMutability": "view",
      "type": "function"
    },
    {
      "inputs": [],
      "name": "endpoint",
      "outputs": [
        {
          "internalType": "contract ILayerZeroEndpointV2",
          "name": "",
          "type": "address"
        }
      ],
      "stateMutability": "view",
      "type": "function"
    },
    {
      "inputs": [
        {
          "internalType": "uint32",
          "name": "eid",
          "type": "uint32"
        },
        {
          "internalType": "uint16",
          "name": "msgType",
          "type": "uint16"
        }
      ],
      "name": "enforcedOptions",
      "outputs": [
        {
          "internalType": "bytes",
          "name": "enforcedOption",
          "type": "bytes"
        }
      ],
      "stateMutability": "view",
      "type": "function"
    },
    {
      "inputs": [
        {
          "internalType": "address",
          "name": "account",
          "type": "address"
        },
        {
          "internalType": "bool",
          "name": "excluded",
          "type": "bool"
        }
      ],
      "name": "excludeFromFee",
      "outputs": [],
      "stateMutability": "nonpayable",
      "type": "function"
    },
    {
      "inputs": [
        {
          "components": [
            {
              "internalType": "uint32",
              "name": "srcEid",
              "type": "uint32"
            },
            {
              "internalType": "bytes32",
              "name": "sender",
              "type": "bytes32"
            },
            {
              "internalType": "uint64",
              "name": "nonce",
              "type": "uint64"
            }
          ],
          "internalType": "struct Origin",
          "name": "",
          "type": "tuple"
        },
        {
          "internalType": "bytes",
          "name": "",
          "type": "bytes"
        },
        {
          "internalType": "address",
          "name": "_sender",
          "type": "address"
        }
      ],
      "name": "isComposeMsgSender",
      "outputs": [
        {
          "internalType": "bool",
          "name": "",
          "type": "bool"
        }
      ],
      "stateMutability": "view",
      "type": "function"
    },
    {
      "inputs": [
        {
          "internalType": "uint32",
          "name": "_eid",
          "type": "uint32"
        },
        {
          "internalType": "bytes32",
          "name": "_peer",
          "type": "bytes32"
        }
      ],
      "name": "isPeer",
      "outputs": [
        {
          "internalType": "bool",
          "name": "",
          "type": "bool"
        }
      ],
      "stateMutability": "view",
      "type": "function"
    },
    {
      "inputs": [
        {
          "components": [
            {
              "internalType": "uint32",
              "name": "srcEid",
              "type": "uint32"
            },
            {
              "internalType": "bytes32",
              "name": "sender",
              "type": "bytes32"
            },
            {
              "internalType": "uint64",
              "name": "nonce",
              "type": "uint64"
            }
          ],
          "internalType": "struct Origin",
          "name": "_origin",
          "type": "tuple"
        },
        {
          "internalType": "bytes32",
          "name": "_guid",
          "type": "bytes32"
        },
        {
          "internalType": "bytes",
          "name": "_message",
          "type": "bytes"
        },
        {
          "internalType": "address",
          "name": "_executor",
          "type": "address"
        },
        {
          "internalType": "bytes",
          "name": "_extraData",
          "type": "bytes"
        }
      ],
      "name": "lzReceive",
      "outputs": [],
      "stateMutability": "payable",
      "type": "function"
    },
    {
      "inputs": [
        {
          "components": [
            {
              "components": [
                {
                  "internalType": "uint32",
                  "name": "srcEid",
                  "type": "uint32"
                },
                {
                  "internalType": "bytes32",
                  "name": "sender",
                  "type": "bytes32"
                },
                {
                  "internalType": "uint64",
                  "name": "nonce",
                  "type": "uint64"
                }
              ],
              "internalType": "struct Origin",
              "name": "origin",
              "type": "tuple"
            },
            {
              "internalType": "uint32",
              "name": "dstEid",
              "type": "uint32"
            },
            {
              "internalType": "address",
              "name": "receiver",
              "type": "address"
            },
            {
              "internalType": "bytes32",
              "name": "guid",
              "type": "bytes32"
            },
            {
              "internalType": "uint256",
              "name": "value",
              "type": "uint256"
            },
            {
              "internalType": "address",
              "name": "executor",
              "type": "address"
            },
            {
              "internalType": "bytes",
              "name": "message",
              "type": "bytes"
            },
            {
              "internalType": "bytes",
              "name": "extraData",
              "type": "bytes"
            }
          ],
          "internalType": "struct InboundPacket[]",
          "name": "_packets",
          "type": "tuple[]"
        }
      ],
      "name": "lzReceiveAndRevert",
      "outputs": [],
      "stateMutability": "payable",
      "type": "function"
    },
    {
      "inputs": [
        {
          "components": [
            {
              "internalType": "uint32",
              "name": "srcEid",
              "type": "uint32"
            },
            {
              "internalType": "bytes32",
              "name": "sender",
              "type": "bytes32"
            },
            {
              "internalType": "uint64",
              "name": "nonce",
              "type": "uint64"
            }
          ],
          "internalType": "struct Origin",
          "name": "_origin",
          "type": "tuple"
        },
        {
          "internalType": "bytes32",
          "name": "_guid",
          "type": "bytes32"
        },
        {
          "internalType": "bytes",
          "name": "_message",
          "type": "bytes"
        },
        {
          "internalType": "address",
          "name": "_executor",
          "type": "address"
        },
        {
          "internalType": "bytes",
          "name": "_extraData",
          "type": "bytes"
        }
      ],
      "name": "lzReceiveSimulate",
      "outputs": [],
      "stateMutability": "payable",
      "type": "function"
    },
    {
      "inputs": [],
      "name": "mainChainId",
      "outputs": [
        {
          "internalType": "uint16",
          "name": "",
          "type": "uint16"
        }
      ],
      "stateMutability": "view",
      "type": "function"
    },
    {
      "inputs": [],
      "name": "maxTxAmount",
      "outputs": [
        {
          "internalType": "uint256",
          "name": "",
          "type": "uint256"
        }
      ],
      "stateMutability": "view",
      "type": "function"
    },
    {
      "inputs": [],
      "name": "maxWalletAmount",
      "outputs": [
        {
          "internalType": "uint256",
          "name": "",
          "type": "uint256"
        }
      ],
      "stateMutability": "view",
      "type": "function"
    },
    {
      "inputs": [
        {
          "internalType": "address",
          "name": "_to",
          "type": "address"
        },
        {
          "internalType": "uint256",
          "name": "_amount",
          "type": "uint256"
        }
      ],
      "name": "mint",
      "outputs": [],
      "stateMutability": "nonpayable",
      "type": "function"
    },
    {
      "inputs": [],
      "name": "msgInspector",
      "outputs": [
        {
          "internalType": "address",
          "name": "",
          "type": "address"
        }
      ],
      "stateMutability": "view",
      "type": "function"
    },
    {
      "inputs": [],
      "name": "name",
      "outputs": [
        {
          "internalType": "string",
          "name": "",
          "type": "string"
        }
      ],
      "stateMutability": "view",
      "type": "function"
    },
    {
      "inputs": [
        {
          "internalType": "uint32",
          "name": "",
          "type": "uint32"
        },
        {
          "internalType": "bytes32",
          "name": "",
          "type": "bytes32"
        }
      ],
      "name": "nextNonce",
      "outputs": [
        {
          "internalType": "uint64",
          "name": "nonce",
          "type": "uint64"
        }
      ],
      "stateMutability": "view",
      "type": "function"
    },
    {
      "inputs": [],
      "name": "oApp",
      "outputs": [
        {
          "internalType": "address",
          "name": "",
          "type": "address"
        }
      ],
      "stateMutability": "view",
      "type": "function"
    },
    {
      "inputs": [],
      "name": "oAppVersion",
      "outputs": [
        {
          "internalType": "uint64",
          "name": "senderVersion",
          "type": "uint64"
        },
        {
          "internalType": "uint64",
          "name": "receiverVersion",
          "type": "uint64"
        }
      ],
      "stateMutability": "pure",
      "type": "function"
    },
    {
      "inputs": [],
      "name": "oftVersion",
      "outputs": [
        {
          "internalType": "bytes4",
          "name": "interfaceId",
          "type": "bytes4"
        },
        {
          "internalType": "uint64",
          "name": "version",
          "type": "uint64"
        }
      ],
      "stateMutability": "pure",
      "type": "function"
    },
    {
      "inputs": [],
      "name": "owner",
      "outputs": [
        {
          "internalType": "address",
          "name": "",
          "type": "address"
        }
      ],
      "stateMutability": "view",
      "type": "function"
    },
    {
      "inputs": [
        {
          "internalType": "uint32",
          "name": "eid",
          "type": "uint32"
        }
      ],
      "name": "peers",
      "outputs": [
        {
          "internalType": "bytes32",
          "name": "peer",
          "type": "bytes32"
        }
      ],
      "stateMutability": "view",
      "type": "function"
    },
    {
      "inputs": [],
      "name": "preCrime",
      "outputs": [
        {
          "internalType": "address",
          "name": "",
          "type": "address"
        }
      ],
      "stateMutability": "view",
      "type": "function"
    },
    {
      "inputs": [
        {
          "components": [
            {
              "internalType": "uint32",
              "name": "dstEid",
              "type": "uint32"
            },
            {
              "internalType": "bytes32",
              "name": "to",
              "type": "bytes32"
            },
            {
              "internalType": "uint256",
              "name": "amountLD",
              "type": "uint256"
            },
            {
              "internalType": "uint256",
              "name": "minAmountLD",
              "type": "uint256"
            },
            {
              "internalType": "bytes",
              "name": "extraOptions",
              "type": "bytes"
            },
            {
              "internalType": "bytes",
              "name": "composeMsg",
              "type": "bytes"
            },
            {
              "internalType": "bytes",
              "name": "oftCmd",
              "type": "bytes"
            }
          ],
          "internalType": "struct SendParam",
          "name": "_sendParam",
          "type": "tuple"
        }
      ],
      "name": "quoteOFT",
      "outputs": [
        {
          "components": [
            {
              "internalType": "uint256",
              "name": "minAmountLD",
              "type": "uint256"
            },
            {
              "internalType": "uint256",
              "name": "maxAmountLD",
              "type": "uint256"
            }
          ],
          "internalType": "struct OFTLimit",
          "name": "oftLimit",
          "type": "tuple"
        },
        {
          "components": [
            {
              "internalType": "int256",
              "name": "feeAmountLD",
              "type": "int256"
            },
            {
              "internalType": "string",
              "name": "description",
              "type": "string"
            }
          ],
          "internalType": "struct OFTFeeDetail[]",
          "name": "oftFeeDetails",
          "type": "tuple[]"
        },
        {
          "components": [
            {
              "internalType": "uint256",
              "name": "amountSentLD",
              "type": "uint256"
            },
            {
              "internalType": "uint256",
              "name": "amountReceivedLD",
              "type": "uint256"
            }
          ],
          "internalType": "struct OFTReceipt",
          "name": "oftReceipt",
          "type": "tuple"
        }
      ],
      "stateMutability": "view",
      "type": "function"
    },
    {
      "inputs": [
        {
          "components": [
            {
              "internalType": "uint32",
              "name": "dstEid",
              "type": "uint32"
            },
            {
              "internalType": "bytes32",
              "name": "to",
              "type": "bytes32"
            },
            {
              "internalType": "uint256",
              "name": "amountLD",
              "type": "uint256"
            },
            {
              "internalType": "uint256",
              "name": "minAmountLD",
              "type": "uint256"
            },
            {
              "internalType": "bytes",
              "name": "extraOptions",
              "type": "bytes"
            },
            {
              "internalType": "bytes",
              "name": "composeMsg",
              "type": "bytes"
            },
            {
              "internalType": "bytes",
              "name": "oftCmd",
              "type": "bytes"
            }
          ],
          "internalType": "struct SendParam",
          "name": "_sendParam",
          "type": "tuple"
        },
        {
          "internalType": "bool",
          "name": "_payInLzToken",
          "type": "bool"
        }
      ],
      "name": "quoteSend",
      "outputs": [
        {
          "components": [
            {
              "internalType": "uint256",
              "name": "nativeFee",
              "type": "uint256"
            },
            {
              "internalType": "uint256",
              "name": "lzTokenFee",
              "type": "uint256"
            }
          ],
          "internalType": "struct MessagingFee",
          "name": "msgFee",
          "type": "tuple"
        }
      ],
      "stateMutability": "view",
      "type": "function"
    },
    {
      "inputs": [],
      "name": "renounceOwnership",
      "outputs": [],
      "stateMutability": "nonpayable",
      "type": "function"
    },
    {
      "inputs": [],
      "name": "sellTax",
      "outputs": [
        {
          "internalType": "uint256",
          "name": "",
          "type": "uint256"
        }
      ],
      "stateMutability": "view",
      "type": "function"
    },
    {
      "inputs": [
        {
          "components": [
            {
              "internalType": "uint32",
              "name": "dstEid",
              "type": "uint32"
            },
            {
              "internalType": "bytes32",
              "name": "to",
              "type": "bytes32"
            },
            {
              "internalType": "uint256",
              "name": "amountLD",
              "type": "uint256"
            },
            {
              "internalType": "uint256",
              "name": "minAmountLD",
              "type": "uint256"
            },
            {
              "internalType": "bytes",
              "name": "extraOptions",
              "type": "bytes"
            },
            {
              "internalType": "bytes",
              "name": "composeMsg",
              "type": "bytes"
            },
            {
              "internalType": "bytes",
              "name": "oftCmd",
              "type": "bytes"
            }
          ],
          "internalType": "struct SendParam",
          "name": "_sendParam",
          "type": "tuple"
        },
        {
          "components": [
            {
              "internalType": "uint256",
              "name": "nativeFee",
              "type": "uint256"
            },
            {
              "internalType": "uint256",
              "name": "lzTokenFee",
              "type": "uint256"
            }
          ],
          "internalType": "struct MessagingFee",
          "name": "_fee",
          "type": "tuple"
        },
        {
          "internalType": "address",
          "name": "_refundAddress",
          "type": "address"
        }
      ],
      "name": "send",
      "outputs": [
        {
          "components": [
            {
              "internalType": "bytes32",
              "name": "guid",
              "type": "bytes32"
            },
            {
              "internalType": "uint64",
              "name": "nonce",
              "type": "uint64"
            },
            {
              "components": [
                {
                  "internalType": "uint256",
                  "name": "nativeFee",
                  "type": "uint256"
                },
                {
                  "internalType": "uint256",
                  "name": "lzTokenFee",
                  "type": "uint256"
                }
              ],
              "internalType": "struct MessagingFee",
              "name": "fee",
              "type": "tuple"
            }
          ],
          "internalType": "struct MessagingReceipt",
          "name": "msgReceipt",
          "type": "tuple"
        },
        {
          "components": [
            {
              "internalType": "uint256",
              "name": "amountSentLD",
              "type": "uint256"
            },
            {
              "internalType": "uint256",
              "name": "amountReceivedLD",
              "type": "uint256"
            }
          ],
          "internalType": "struct OFTReceipt",
          "name": "oftReceipt",
          "type": "tuple"
        }
      ],
      "stateMutability": "payable",
      "type": "function"
    },
    {
      "inputs": [
        {
          "internalType": "uint256",
          "name": "_duration",
          "type": "uint256"
        }
      ],
      "name": "setAntiBotDuration",
      "outputs": [],
      "stateMutability": "nonpayable",
      "type": "function"
    },
    {
      "inputs": [
        {
          "internalType": "address",
          "name": "pair",
          "type": "address"
        },
        {
          "internalType": "bool",
          "name": "value",
          "type": "bool"
        }
      ],
      "name": "setAutomatedMarketMakerPair",
      "outputs": [],
      "stateMutability": "nonpayable",
      "type": "function"
    },
    {
      "inputs": [
        {
          "internalType": "address",
          "name": "_delegate",
          "type": "address"
        }
      ],
      "name": "setDelegate",
      "outputs": [],
      "stateMutability": "nonpayable",
      "type": "function"
    },
    {
      "inputs": [
        {
          "components": [
            {
              "internalType": "uint32",
              "name": "eid",
              "type": "uint32"
            },
            {
              "internalType": "uint16",
              "name": "msgType",
              "type": "uint16"
            },
            {
              "internalType": "bytes",
              "name": "options",
              "type": "bytes"
            }
          ],
          "internalType": "struct EnforcedOptionParam[]",
          "name": "_enforcedOptions",
          "type": "tuple[]"
        }
      ],
      "name": "setEnforcedOptions",
      "outputs": [],
      "stateMutability": "nonpayable",
      "type": "function"
    },
    {
      "inputs": [
        {
          "internalType": "address",
          "name": "_msgInspector",
          "type": "address"
        }
      ],
      "name": "setMsgInspector",
      "outputs": [],
      "stateMutability": "nonpayable",
      "type": "function"
    },
    {
      "inputs": [
        {
          "internalType": "uint32",
          "name": "_eid",
          "type": "uint32"
        },
        {
          "internalType": "bytes32",
          "name": "_peer",
          "type": "bytes32"
        }
      ],
      "name": "setPeer",
      "outputs": [],
      "stateMutability": "nonpayable",
      "type": "function"
    },
    {
      "inputs": [
        {
          "internalType": "address",
          "name": "_preCrime",
          "type": "address"
        }
      ],
      "name": "setPreCrime",
      "outputs": [],
      "stateMutability": "nonpayable",
      "type": "function"
    },
    {
      "inputs": [
        {
          "internalType": "uint256",
          "name": "_buyTax",
          "type": "uint256"
        },
        {
          "internalType": "uint256",
          "name": "_sellTax",
          "type": "uint256"
        }
      ],
      "name": "setTaxes",
      "outputs": [],
      "stateMutability": "nonpayable",
      "type": "function"
    },
    {
      "inputs": [
        {
          "internalType": "address",
          "name": "_treasury",
          "type": "address"
        }
      ],
      "name": "setTreasuryAddress",
      "outputs": [],
      "stateMutability": "nonpayable",
      "type": "function"
    },
    {
      "inputs": [],
      "name": "sharedDecimals",
      "outputs": [
        {
          "internalType": "uint8",
          "name": "",
          "type": "uint8"
        }
      ],
      "stateMutability": "view",
      "type": "function"
    },
    {
      "inputs": [],
      "name": "symbol",
      "outputs": [
        {
          "internalType": "string",
          "name": "",
          "type": "string"
        }
      ],
      "stateMutability": "view",
      "type": "function"
    },
    {
      "inputs": [],
      "name": "token",
      "outputs": [
        {
          "internalType": "address",
          "name": "",
          "type": "address"
        }
      ],
      "stateMutability": "view",
      "type": "function"
    },
    {
      "inputs": [],
      "name": "totalSupply",
      "outputs": [
        {
          "internalType": "uint256",
          "name": "",
          "type": "uint256"
        }
      ],
      "stateMutability": "view",
      "type": "function"
    },
    {
      "inputs": [
        {
          "internalType": "address",
          "name": "to",
          "type": "address"
        },
        {
          "internalType": "uint256",
          "name": "value",
          "type": "uint256"
        }
      ],
      "name": "transfer",
      "outputs": [
        {
          "internalType": "bool",
          "name": "",
          "type": "bool"
        }
      ],
      "stateMutability": "nonpayable",
      "type": "function"
    },
    {
      "inputs": [
        {
          "internalType": "address",
          "name": "from",
          "type": "address"
        },
        {
          "internalType": "address",
          "name": "to",
          "type": "address"
        },
        {
          "internalType": "uint256",
          "name": "value",
          "type": "uint256"
        }
      ],
      "name": "transferFrom",
      "outputs": [
        {
          "internalType": "bool",
          "name": "",
          "type": "bool"
        }
      ],
      "stateMutability": "nonpayable",
      "type": "function"
    },
    {
      "inputs": [
        {
          "internalType": "address",
          "name": "newOwner",
          "type": "address"
        }
      ],
      "name": "transferOwnership",
      "outputs": [],
      "stateMutability": "nonpayable",
      "type": "function"
    },
    {
      "inputs": [],
      "name": "treasuryAddress",
      "outputs": [
        {
          "internalType": "address",
          "name": "",
          "type": "address"
        }
      ],
      "stateMutability": "view",
      "type": "function"
    },
    {
      "inputs": [],
      "name": "vestingWallet",
      "outputs": [
        {
          "internalType": "address",
          "name": "",
          "type": "address"
        }
      ],
      "stateMutability": "view",
      "type": "function"
    }
  ],
  "transactionHash": "0xab8021e3fff6ed37c3be5839ecf9ee00fc9313935fd7d01a746cc0d631428306",
  "args": [
    "Wancash",
    "WCH",
    "0x6EDCE65403992e310A62460808c4b910D972f10f",
    "0x7b97A7a3688ab41e5129D5b252de0c332697813d",
    "0x7b97A7a3688ab41e5129D5b252de0c332697813d",
    97,
    "2100000000000000000000000000"
  ],
  "numDeployments": 4,
  "solcInputHash": "6d3c0607916c4be1703e5fe5c139f14f",
  "bytecode": "0x60e08060405234620006fd5760009062004bd9803803809162000023828562000702565b833981019060e081830312620006f95780516001600160401b038111620006f55782620000529183016200073c565b602082015190926001600160401b038211620006f157620000759183016200073c565b906200008460408201620007b2565b906200009360608201620007b2565b92620000a260808301620007b2565b9060a08301519261ffff84168403620006d45760c00151956001600160a01b03861615620006d85787546001600160a01b038781166001600160a01b0319831681178b5591167f8be0079c531659141344cd1fd0a4f28419497f9722a3daafe3b4186f6b6457e08a80a36001600160a01b03851660808190523b15620006d45760405163ca5eb5e160e01b81526001600160a01b03878116600483015289908290602490829084908b165af18015620006c95762000698575b5064e8d4a5100060a0528051906001600160401b0382116200068457600854600181811c9116801562000679575b602082101462000665579081601f84931162000606575b50602090601f83116001146200058a578a926200057e575b50508160011b916000199060031b1c1916176008555b8051906001600160401b0382116200045757600954600181811c9116801562000573575b60208210146200055f57601f81116200050c575b50602090601f83116001146200048d5761ffff9493929189918362000481575b50508160011b916000199060031b1c1916176009555b6028600c556003600e556005600f5560c0829052601080546001600160a01b0319166001600160a01b03928316908117909155858216885260126020526040808920805460ff199081166001908117909255308b52828b208054821683179055969093168952808920805487168417905590885280882080548616831790558780528720805485169091179055469116146200034b575b60405161398d908162000845823960805181818161097801528181610ef5015281816112ac01528181611e4001528181611f7b01528181613596015261382e015260a051818181610e3f0152818161167101528181611cf2015281816125f101528181612d2201526133fb015260c0518161084e0152f35b8260011c908184039384116200046b576040516109c7808201906001600160401b0382118383101762000457576060918391620041d283396001600160a01b0387168152426001600160401b031660208201526309450c00604082015203019086f080156200044c57601180546001600160a01b031981166001600160a01b039384169081178355908816178752601260205260409096208054909216600117909155935462000442946200040391839116620007c7565b6011546040519182526001600160a01b0316907f813a45e8a1c800ea979a3e32775249867a87e8d9b0566fc3027d1643a067977f90602090a2620007c7565b38808080620002d3565b6040513d87823e3d90fd5b634e487b7160e01b88526041600452602488fd5b634e487b7160e01b600052601160045260246000fd5b01519050388062000226565b6009895260008051602062004bb98339815191529190895b601f1985168110620004f3575091839160019361ffff979695601f19811610620004d9575b505050811b016009556200023c565b015160001960f88460031b161c19169055388080620004ca565b91926020600181928685015181550194019201620004a5565b6009895260008051602062004bb9833981519152601f840160051c81016020851062000557575b601f830160051c820181106200054b57505062000206565b8a815560010162000533565b508062000533565b634e487b7160e01b89526022600452602489fd5b90607f1690620001f2565b015190503880620001b8565b60088b528a935060008051602062004b9983398151915291905b601f1984168510620005ea576001945083601f19811610620005d0575b505050811b01600855620001ce565b015160001960f88460031b161c19169055388080620005c1565b81810151835560209485019460019093019290910190620005a4565b60088b5290915060008051602062004b99833981519152601f840160051c8101602085106200065d575b90849392915b601f830160051c820181106200064e575050620001a0565b8c815585945060010162000636565b508062000630565b634e487b7160e01b8a52602260045260248afd5b90607f169062000189565b634e487b7160e01b89526041600452602489fd5b9097906001600160401b038111620006b55760405296386200015b565b634e487b7160e01b82526041600452602482fd5b6040513d8b823e3d90fd5b8780fd5b604051631e4fbdf760e01b815260048101899052602490fd5b8480fd5b8380fd5b8280fd5b600080fd5b601f909101601f19168101906001600160401b038211908210176200072657604052565b634e487b7160e01b600052604160045260246000fd5b919080601f84011215620006fd5782516001600160401b0381116200072657602090604051926200077783601f19601f850116018562000702565b818452828287010111620006fd5760005b8181106200079e57508260009394955001015290565b858101830151848201840152820162000788565b51906001600160a01b0382168203620006fd57565b6001600160a01b03169081156200082b57600754908082018092116200046b5760207fddf252ad1be2c89b69c2b068fc378daa952ba7f163c4a11628f55a4df523b3ef916000936007558484526005825260408420818154019055604051908152a3565b60405163ec442f0560e01b815260006004820152602490fdfe6080604052600436101561001257600080fd5b60003560e01c806306fdde03146103c2578063095ea7b3146103bd5780630a5ab11d146103b85780630d35b415146103b35780630f45ad43146103ae5780631069fdd4146103a9578063111ecdad146103a457806313137d651461039f578063134d4f251461039a578063156a0d0f1461039557806317442b701461039057806318160ddd1461038b5780631f5e13341461038657806323b872dd14610381578063313ce5671461037c5780633400288b1461037757806338d16f48146103725780633b6f743b1461036d57806340c10f191461036857806348df0dec146103635780634f7041a51461035e57806352ae2879146102aa5780635535d461146103595780635a0dfe4d146103545780635e280f111461034f5780636605bfda1461034a5780636fc1b31e1461034557806370a0823114610340578063715018a61461033b578063768dc710146103365780637d25a05e1461033157806382413eac1461032c578063857749b0146103275780638c0b5e22146103225780638da5cb5b1461031d57806395d89b4114610318578063963efcaa146103135780639a7a23d61461030e5780639f68b96414610309578063a9059cbb14610304578063aa4bde28146102ff578063b62496f5146102fa578063b731ea0a146102f5578063b98bd070146102f0578063bb0b6a53146102eb578063bc70b354146102e6578063bd815db0146102e1578063c5f956af146102dc578063c647b20e146102d7578063c7c7f5b3146102d2578063ca5eb5e1146102cd578063cc1776d3146102c8578063d045a0dc146102c3578063d4243885146102be578063dd62ed3e146102b9578063df8408fe146102b4578063f2fde38b146102af578063fc0c546a146102aa5763ff7bd03d146102a557600080fd5b6121ed565b611024565b612161565b6120f5565b612092565b612022565b611ec6565b611ea8565b611e0f565b611c74565b611b6d565b611b44565b6119f1565b61199d565b611962565b611887565b611812565b6117d0565b6117b2565b61177d565b611761565b6116b9565b611659565b6115b1565b611588565b61156a565b61154e565b6114f0565b6114c9565b611487565b61142c565b6113ef565b61137f565b6112db565b611296565b61124e565b6111cf565b611006565b610fc9565b610f9e565b610de2565b610d49565b610cc2565b610c98565b610be3565b610bc7565b610ba9565b610b87565b610b60565b610b44565b61095d565b610890565b610872565b610833565b6106dc565b6105fb565b61052d565b610433565b60009103126103d257565b600080fd5b60005b8381106103ea5750506000910152565b81810151838201526020016103da565b90602091610413815180928185528580860191016103d7565b601f01601f1916010190565b9060206104309281815201906103fa565b90565b346103d257600080600319360112610519576040519080600854906104578261105f565b808552916020916001918281169081156104ec5750600114610494575b61049086610484818803826111ae565b6040519182918261041f565b0390f35b9350600884527ff3f7a9fe364faab93b216da50a3214154f22a0a2b415b23a84c8169e8b636ee35b8385106104d9575050505081016020016104848261049038610474565b80548686018401529382019381016104bc565b90508695506104909693506020925061048494915060ff191682840152151560051b820101929338610474565b80fd5b6001600160a01b038116036103d257565b346103d25760403660031901126103d25760043561054a8161051c565b60243533156105e2576001600160a01b0382169182156105c9573360009081526006602052604090208291610591915b9060018060a01b0316600052602052604060002090565b556040519081527f8c5be1e5ebec7d5bd14f71427d1e84f3dd0314c0f7b2291e5b200ac8c7c3b92560203392a3602060405160018152f35b604051634a1406b160e11b815260006004820152602490fd5b60405163e602df0560e01b815260006004820152602490fd5b346103d25760003660031901126103d2576011546040516001600160a01b039091168152602090f35b908160e09103126103d25790565b93929161064d8560a081019360208091805184520151910152565b60409160a06040870152815180915260c086019160c08260051b880101936020809201936000915b84831061069d5750505050505090606061069b9294019060208091805184520151910152565b565b90919293949584806106cc6001938d60bf1990820301875285838c5180518452015191818582015201906103fa565b9801930193019194939290610675565b346103d2576020806003193601126103d2576004356001600160401b0381116103d25761070d903690600401610624565b9061071661224d565b5061071f61224d565b50604051637e062a3560e11b8152908082600481305afa918215610801576004928291600091610806575b506040516318160ddd60e01b815293849182906001600160a01b03165afa918215610801576000926107ce575b5061049090610784612233565b9260008452818401526107b26107986122ad565b946107a2816122d0565b50604060608201359101356125e8565b90916107bc612233565b92835282015260405193849384610632565b8192506107f390610490923d85116107fa575b6107eb81836111ae565b810190612287565b9190610777565b503d6107e1565b61227b565b6108269150823d841161082c575b61081e81836111ae565b810190612266565b3861074a565b503d610814565b346103d25760003660031901126103d257602060405161ffff7f0000000000000000000000000000000000000000000000000000000000000000168152f35b346103d25760003660031901126103d2576020600c54604051908152f35b346103d25760003660031901126103d2576004546040516001600160a01b039091168152602090f35b60609060031901126103d257600490565b9181601f840112156103d2578235916001600160401b0383116103d257602083818601950101116103d257565b600319810160e081126103d2576060136103d257600491606435916001600160401b03906084358281116103d25781610932916004016108ca565b9390939260a4356109428161051c565b9260c4359182116103d257610959916004016108ca565b9091565b610966366108f7565b50929492506001600160a01b039190507f00000000000000000000000000000000000000000000000000000000000000008216338103610b2c5783356109ab81610cb4565b6109b481612645565b906020860135809203610af75750506109dc6109d08388612cf6565b6001600160a01b031690565b91610a026109f26109ed838a612d02565b612d14565b6109fb876122d0565b5084612d48565b809760288311610a53575b50505050610a4e610a2c600080516020613918833981519152946122d0565b956040519384931696836020909392919363ffffffff60408201951681520152565b0390a3005b90610a7e9291610a78610a6860408a0161267d565b93610a728a6122d0565b92612d6c565b92612d88565b90803b156103d257604051633e5ac80960e11b8152916000918391829084908290610aae908c8a60048501612687565b03925af180156108015760008051602061391883398151915294610a4e92610a2c92610ade575b88919650610a0d565b80610aeb610af192611165565b806103c7565b38610ad5565b610b0081610cb4565b60405163309afaf360e21b815263ffffffff9190911660048201526024810191909152604490fd5b0390fd5b6040516391ac5e4f60e01b8152336004820152602490fd5b346103d25760003660031901126103d257602060405160028152f35b346103d25760003660031901126103d2576040805162b9270b60e21b815260016020820152f35b346103d25760003660031901126103d257604080516001815260026020820152f35b346103d25760003660031901126103d2576020600754604051908152f35b346103d25760003660031901126103d257602060405160018152f35b346103d25760603660031901126103d257600435610c008161051c565b602435610c0c8161051c565b6001600160a01b03821660009081526006602090815260408083203384529091529020604435919054926000198410610c56575b610c4a93506126b2565b60405160018152602090f35b828410610c7257610c6d83610c4a95033383612c4c565b610c40565b604051637dc7a0d960e11b81523360048201526024810185905260448101849052606490fd5b346103d25760003660031901126103d257602060405160128152f35b63ffffffff8116036103d257565b346103d25760403660031901126103d2577f238399d427b947898edb290f5ff0f9109849b1c3ba196a42e35f00c50a54b98b600435610d0081610cb4565b60243590610d0c612706565b63ffffffff8116600052600160205281604060002055610d44604051928392836020909392919363ffffffff60408201951681520152565b0390a1005b346103d25760203660031901126103d257600435610d65612706565b6102588111610d9f576020817ffdf5192c699588f75d62f711327755217e8831de7ddbda02acc656e5f4061fb292600c55604051908152a1005b60405162461bcd60e51b81526020600482015260116024820152704475726174696f6e20746f6f206c6f6e6760781b6044820152606490fd5b801515036103d257565b346103d2576040806003193601126103d2576004356001600160401b0381116103d257610e13903690600401610624565b90602435610e2081610dd8565b610e2861224d565b506060830135833593610e3a85610cb4565b610e707f0000000000000000000000000000000000000000000000000000000000000000610e6b8187850135612c9c565b612ce3565b91808310610f7e57508392610e8c610ef19693610ed69361276c565b90610e9685610cb4565b610e9e61224d565b50610ea885612645565b610ebf610eb3612240565b63ffffffff9097168752565b602086015285850152606084015215156080830152565b815180948192631bb8518b60e31b8352309060048401612886565b03817f00000000000000000000000000000000000000000000000000000000000000006001600160a01b03165afa9081156108015761049092600092610f4f575b505191829182815181526020918201519181019190915260400190565b81610f709293503d8411610f77575b610f6881836111ae565b810190612872565b9038610f32565b503d610f5e565b84516371c4efed60e01b8152600481018490526024810191909152604490fd5b346103d25760403660031901126103d257610fc7600435610fbe8161051c565b602435906128f4565b005b346103d25760203660031901126103d257600435610fe68161051c565b60018060a01b0316600052600d6020526020604060002054604051908152f35b346103d25760003660031901126103d2576020600e54604051908152f35b346103d25760003660031901126103d2576020604051308152f35b6024359061ffff821682036103d257565b359061ffff821682036103d257565b90600182811c9216801561108f575b602083101461107957565b634e487b7160e01b600052602260045260246000fd5b91607f169161106e565b8054600093926110a88261105f565b9182825260209360019160018116908160001461111057506001146110cf575b5050505050565b90939495506000929192528360002092846000945b8386106110fc575050505001019038808080806110c8565b8054858701830152940193859082016110e4565b60ff19168685015250505090151560051b0101915038808080806110c8565b634e487b7160e01b600052604160045260246000fd5b606081019081106001600160401b0382111761116057604052565b61112f565b6001600160401b03811161116057604052565b604081019081106001600160401b0382111761116057604052565b60a081019081106001600160401b0382111761116057604052565b90601f801991011681019081106001600160401b0382111761116057604052565b346103d25760403660031901126103d25761049061123361123a6112276004356111f881610cb4565b63ffffffff61120561103f565b9116600052600360205260406000209061ffff16600052602052604060002090565b60405192838092611099565b03826111ae565b6040519182916020835260208301906103fa565b346103d25760403660031901126103d257602061128c60043561127081610cb4565b6024359063ffffffff1660005260016020526040600020541490565b6040519015158152f35b346103d25760003660031901126103d2576040517f00000000000000000000000000000000000000000000000000000000000000006001600160a01b03168152602090f35b346103d25760203660031901126103d2576004356112f88161051c565b611300612706565b6001600160a01b0316801561134857601080546001600160a01b031916821790557fb6a5e89655cf506139085f051af608195ed056f8dc550b180a1c38d401e2b6c4600080a2005b60405162461bcd60e51b815260206004820152600f60248201526e496e76616c6964206164647265737360881b6044820152606490fd5b346103d25760203660031901126103d2577ff0be4f1e87349231d80c36b33f9e8639658eeaf474014dee15a3e6a4d441419760206004356113bf8161051c565b6113c7612706565b600480546001600160a01b0319166001600160a01b03929092169182179055604051908152a1005b346103d25760203660031901126103d25760043561140c8161051c565b60018060a01b031660005260056020526020604060002054604051908152f35b346103d25760008060031936011261051957611446612706565b80546001600160a01b03198116825581906001600160a01b03167f8be0079c531659141344cd1fd0a4f28419497f9722a3daafe3b4186f6b6457e08280a380f35b346103d25760203660031901126103d2576004356114a48161051c565b60018060a01b03166000526012602052602060ff604060002054166040519015158152f35b346103d25760403660031901126103d2576114e5600435610cb4565b602060405160008152f35b346103d25760a03660031901126103d25761150a366108b9565b506064356001600160401b0381116103d25761152a9036906004016108ca565b5050602060843561153a8161051c565b6040516001600160a01b0390911630148152f35b346103d25760003660031901126103d257602060405160068152f35b346103d25760003660031901126103d2576020600a54604051908152f35b346103d25760003660031901126103d2576000546040516001600160a01b039091168152602090f35b346103d257600080600319360112610519576040519080600954906115d58261105f565b808552916020916001918281169081156104ec57506001146116015761049086610484818803826111ae565b9350600984527f6e1540171b6c0c960b71a7020d9f60077f6af931a8bbf590da0223dacf75c7af5b838510611646575050505081016020016104848261049038610474565b8054868601840152938201938101611629565b346103d25760003660031901126103d25760206040517f00000000000000000000000000000000000000000000000000000000000000008152f35b60409060031901126103d2576004356116ac8161051c565b9060243561043081610dd8565b346103d2576116c736611694565b906116d0612706565b6001600160a01b0316801561172d57600091818352601360205261170381604085209060ff801983541691151516179055565b1515907fffa9187bf1f18bf477bd0ea1bcbb64e93b6a98132473929edfce215cd9b16fab8380a380f35b60405162461bcd60e51b815260206004820152600c60248201526b24b73b30b634b2103830b4b960a11b6044820152606490fd5b346103d25760003660031901126103d257602060405160008152f35b346103d25760403660031901126103d2576117a760043561179d8161051c565b60243590336126b2565b602060405160018152f35b346103d25760003660031901126103d2576020600b54604051908152f35b346103d25760203660031901126103d2576004356117ed8161051c565b60018060a01b03166000526013602052602060ff604060002054166040519015158152f35b346103d25760003660031901126103d2576002546040516001600160a01b039091168152602090f35b9060206003198301126103d2576004356001600160401b03928382116103d257806023830112156103d25781600401359384116103d25760248460051b830101116103d2576024019190565b346103d2576118953661183b565b9061189e612706565b6118a782612296565b9060406118b760405193846111ae565b8383526020938484019060051b8301923684116103d25780915b8483106118e157610fc786612b26565b6001600160401b039083358281116103d2578301916060833603126103d25785519261190c84611145565b803561191781610cb4565b84526119248a8201611050565b8a850152868101359182116103d257019036601f830112156103d25788926119538493369085813591016122f5565b878201528152019201916118d1565b346103d25760203660031901126103d25763ffffffff60043561198481610cb4565b1660005260016020526020604060002054604051908152f35b346103d25760603660031901126103d2576004356119ba81610cb4565b6119c261103f565b604435906001600160401b0382116103d257610490926119e961123a9336906004016108ca565b9290916123b7565b6119fa3661183b565b60005b818110611a6957604051638e9e709960e01b8152600081600481335afa801561080157610b2891600091611a46575b50604051638351eea760e01b81529182916004830161041f565b611a6391503d806000833e611a5b81836111ae565b810190612562565b82611a2c565b611a74818385612473565b90611aa6611aa2611a84846122d0565b60208501359063ffffffff1660005260016020526040600020541490565b1590565b611b3b57611ab861010083018361249b565b92611ac560e082016124cd565b90611ad461012082018261249b565b959095303b156103d257600094611b0a60c092604051998a9788968795633411683760e21b875260a08a01358a600489016124e8565b03920135305af191821561080157600192611b28575b505b016119fd565b80610aeb611b3592611165565b38611b20565b60019150611b22565b346103d25760003660031901126103d2576010546040516001600160a01b039091168152602090f35b346103d25760403660031901126103d257600435602435611b8c612706565b601482111580611c18575b15611be257817f35d461df023e70886ad5e68610133ecb7d637c2263453f6ea50daf699cb31ed492600e5581600f55610d446040519283928360209093929193604081019481520152565b60405162461bcd60e51b815260206004820152600e60248201526d0a8c2f0cae640e8dede40d0d2ced60931b6044820152606490fd5b506014811115611b97565b91608061069b929493611c63604060c0830197805184526001600160401b0360208201511660208501520151604083019060208091805184520151910152565b019060208091805184520151910152565b60803660031901126103d2576004356001600160401b0381116103d257611c9f903690600401610624565b6040806023193601126103d25760643590611cb98261051c565b611cc16125c0565b50611cca61224d565b50611cd36125c0565b50611cdc61224d565b50606083013591611ced8435610cb4565b611d1e7f0000000000000000000000000000000000000000000000000000000000000000610e6b8185880135612c9c565b92808410611def57503315611dd75790611d6261049092611d3f8533612ee3565b611d49858761276c565b611d52886122d0565b91611d5c36612c24565b92613519565b92611d6b612233565b948186528160208701527f85496b760a4b7f8d66384b9df21b381f5d1b1e79f229a47aaf4c232edc2fe59a611dca611da48751936122d0565b9385519181839233978460409194939263ffffffff606083019616825260208201520152565b0390a35192839283611c23565b8151634b637e8f60e11b815260006004820152602490fd5b82516371c4efed60e01b8152600481018590526024810191909152604490fd5b346103d2576000602036600319011261051957600435611e2e8161051c565b611e36612706565b6001600160a01b037f0000000000000000000000000000000000000000000000000000000000000000811691839190833b15611ea45760249083604051958694859363ca5eb5e160e01b85521660048401525af1801561080157611e98575080f35b611ea190611165565b80f35b8280fd5b346103d25760003660031901126103d2576020600f54604051908152f35b611ecf366108f7565b505050929030330361201057611ee86109d08583612cf6565b93611f09611ef96109ed8385612d02565b611f02856122d0565b5086612d48565b9160288211611f59575b5050611f2d600080516020613918833981519152926122d0565b6040805163ffffffff909216825260208201929092526001600160a01b03909416939081908101610a4e565b9082611f7892610a78611f6e6040880161267d565b93610a72886122d0565b917f00000000000000000000000000000000000000000000000000000000000000006001600160a01b0316803b156103d257604051633e5ac80960e11b8152936000918591829084908290611fd2908b8d60048501612687565b03925af19081156108015760008051602061391883398151915293611f2d92611ffd575b5092611f13565b80610aeb61200a92611165565b38611ff6565b60405163029a949d60e31b8152600490fd5b346103d25760203660031901126103d2577fd48d879cef83a1c0bdda516f27b13ddb1b3f8bbac1c9e1511bb2a659c242776060206004356120628161051c565b61206a612706565b600280546001600160a01b0319166001600160a01b03929092169182179055604051908152a1005b346103d25760403660031901126103d25760206120ec6004356120b48161051c565b602435906120c18261051c565b60018060a01b03166000526006835260406000209060018060a01b0316600052602052604060002090565b54604051908152f35b346103d25760207fd5144d2a6c8ff9b87b7a40852df5102cab2ce561c06b56cc6fe7ccf1fa7f8c2d61212636611694565b9290612130612706565b6001600160a01b031660008181526012835260409020805460ff191660ff86151516179055926040519015158152a2005b346103d25760203660031901126103d25760043561217e8161051c565b612186612706565b6001600160a01b0390811680156121d457600080546001600160a01b03198116831782559092167f8be0079c531659141344cd1fd0a4f28419497f9722a3daafe3b4186f6b6457e08380a380f35b604051631e4fbdf760e01b815260006004820152602490fd5b346103d25760603660031901126103d2576020612209366108b9565b63ffffffff813561221981610cb4565b166000526001825260406000205482604051920135148152f35b6040519061069b82611178565b6040519061069b82611193565b6040519061225a82611178565b60006020838281520152565b908160209103126103d257516104308161051c565b6040513d6000823e3d90fd5b908160209103126103d2575190565b6001600160401b0381116111605760051b60200190565b604051602081018181106001600160401b03821117611160576040526000815290565b3561043081610cb4565b6001600160401b03811161116057601f01601f191660200190565b929192612301826122da565b9161230f60405193846111ae565b8294818452818301116103d2578281602093846000960137010152565b90929192836002116103d25783116103d257600201916001190190565b6020908361069b93959495604051968361236c89955180928880890191016103d7565b84019185830137016000838201520380855201836111ae565b908060209392818452848401376000828201840152601f01601f1916010190565b916020610430938181520191612385565b6112276112339263ffffffff6123ec939795969716600052600360205260406000209061ffff16600052602052604060002090565b80511561244f578315612449576002841015612420575050610b28604051928392639a6d49cd60e01b8452600484016123a6565b909280612443916104309461243e6124393684846122f5565b612bec565b61232c565b91612349565b92509050565b5091906104309136916122f5565b634e487b7160e01b600052603260045260246000fd5b91908110156124965760051b8101359061013e19813603018212156103d2570190565b61245d565b903590601e19813603018212156103d257018035906001600160401b0382116103d2576020019181360383136103d257565b356104308161051c565b6001600160401b038116036103d257565b929093612544926001600160401b0360406104309a98999763ffffffff813561251081610cb4565b168852602081013560208901520135612528816124d7565b166040860152606085015260e0608085015260e0840191612385565b6001600160a01b0390941660a082015280840360c090910152612385565b6020818303126103d2578051906001600160401b0382116103d2570181601f820112156103d2578051612594816122da565b926125a260405194856111ae565b818452602082840101116103d25761043091602080850191016103d7565b604051906125cd82611145565b81600081526000602082015260406125e361224d565b910152565b61261790610e6b7f00000000000000000000000000000000000000000000000000000000000000008092612c9c565b9182918084106126245750565b6040516371c4efed60e01b8152600481018590526024810191909152604490fd5b63ffffffff16806000526001602052604060002054908115612665575090565b6024906040519063f6ff4fb760e01b82526004820152fd5b35610430816124d7565b610430939260809260018060a01b0316825260208201526000604082015281606082015201906103fa565b91906001600160a01b03808416156126ed578116156126d45761069b926131b5565b60405163ec442f0560e01b815260006004820152602490fd5b604051634b637e8f60e11b815260006004820152602490fd5b6000546001600160a01b0316330361271a57565b60405163118cdaa760e01b8152336004820152602490fd5b908160209103126103d2575161043081610dd8565b909161275e610430936040845260408401906103fa565b9160208184039101526103fa565b909161279f61277d6127c6946133f5565b61279461278d60a086018661249b565b36916122f5565b90602085013561344c565b9390928394600014612842576002905b6119e96127bb826122d0565b91608081019061249b565b60045490926001600160a01b039091169083826127e257505050565b60405163043a78eb60e01b8152926020928492839182916128069160048401612747565b03915afa8015610801576128175750565b6128389060203d60201161283b575b61283081836111ae565b810190612732565b50565b503d612826565b6001906127af565b91908260409103126103d25760405161286281611178565b6020808294805184520151910152565b906040828203126103d2576104309161284a565b906020909392936040835263ffffffff815116604084015281810151606084015260806128da6128c4604084015160a08488015260e08701906103fa565b6060840151868203603f190160a08801526103fa565b910151151560c08401526001600160a01b03909416910152565b6001600160a01b038116919082156126d45760075490828201809211612957576000926129486020926000805160206139388339815191529460075560018060a01b03166000526005602052604060002090565b818154019055604051908152a3565b612c86565b80518210156124965760209160051b010190565b90601f811161297e57505050565b6000916000526020600020906020601f850160051c830194106129bc575b601f0160051c01915b8281106129b157505050565b8181556001016129a5565b909250829061299c565b91909182516001600160401b038111611160576129ed816129e7845461105f565b84612970565b602080601f8311600114612a3057508190612a21939495600092612a25575b50508160011b916000199060031b1c19161790565b9055565b015190503880612a0c565b90601f19831695612a4685600052602060002090565b926000905b888210612a8357505083600195969710612a6a575b505050811b019055565b015160001960f88460031b161c19169055388080612a60565b80600185968294968601518155019501930190612a4b565b6020808201908083528351809252604092604081018260408560051b8401019601946000925b858410612ad2575050505050505090565b909192939495968580612b15600193603f198682030188528b518760609163ffffffff815116845261ffff868201511686850152015191818982015201906103fa565b990194019401929594939190612ac1565b9060009160005b8151811015612bb257600190612bac6040612b5481612b4c858861295c565b510151612bec565b612ba781612b62858861295c565b5101519163ffffffff612b75868961295c565b515116895261ffff602091600383528a2091612b91878a61295c565b5101511661ffff16600052602052604060002090565b6129c6565b01612b2d565b507fbe4864a8e820971c0247f5992e2da559595f7bf076a21cb5928d443d2a13b674919250612be79060405191829182612a9b565b0390a1565b600361ffff60028301511603612bff5750565b604051639a6d49cd60e01b815260206004820152908190610b289060248301906103fa565b60409060231901126103d25760405190612c3d82611178565b60243582526044356020830152565b906001600160a01b03808316156105e2578116156105c95761057a612c839260018060a01b03166000526006602052604060002090565b55565b634e487b7160e01b600052601160045260246000fd5b8115612ca6570490565b634e487b7160e01b600052601260045260246000fd5b908115600183800414171561295757565b9060058202918083046005149015171561295757565b8181029291811591840414171561295757565b906020116103d2573590565b906028116103d2576020013560c01c90565b610430906001600160401b037f00000000000000000000000000000000000000000000000000000000000000009116612ce3565b816001600160a01b03821615612d62575b610430916128f4565b61dead9150612d59565b90806028116103d25761043091369160271901906028016122f5565b604c9193610430936040519586936001600160401b0360c01b9060c01b16602085015263ffffffff60e01b9060e01b166028840152602c830152612dd581518092602086860191016103d7565b810103602c8101845201826111ae565b15612dec57565b60405162461bcd60e51b815260206004820152601e60248201527f45786365656473206d6178207472616e73616374696f6e20616d6f756e7400006044820152606490fd5b9190820180921161295757565b15612e4557565b60405162461bcd60e51b815260206004820152601a60248201527f45786365656473206d61782077616c6c657420686f6c64696e670000000000006044820152606490fd5b15612e9157565b60405162461bcd60e51b815260206004820152601c60248201527f5472616e7366657220626c6f636b656420627920636f6f6c646f776e000000006044820152606490fd5b9190820391821161295757565b906001600160a01b0382161580156131ad575b6131a45761069b91600754612f21612f13612f1b612f1384612cbc565b6103e8900490565b92612ccd565b6001600160a01b0383166000908152601260205260409020612f45905b5460ff1690565b801561316c575b15918261303f575b5050600090612f94575b80612f6a575b5061360a565b6010549192612f8d92612f889083906001600160a01b0316866136e3565b612ed6565b9038612f64565b6001600160a01b0382166000908152601360205260409020612fb590612f3e565b80613034575b15612fdc5750612fd7612fd0600e5484612ce3565b6064900490565b612f5e565b60008052601360205261300e7f8fa6efc3be94b5b348b21fea823fe8d100408cee9b7f90524494500445d8ff6c612f3e565b80613029575b15612f5e5750612fd7612fd0600f5484612ce3565b50600f541515613014565b50600e541515612fbb565b61304b90851115612de5565b600080526013602052613080611aa27f8fa6efc3be94b5b348b21fea823fe8d100408cee9b7f90524494500445d8ff6c612f3e565b613126575b506001600160a01b03821660009081526013602052604090206130a790612f3e565b6130b3575b3880612f54565b60008052600d6020526130f56130ee7f81955a0a11e65eac625c29e8882660bae4e165a75d72780094acae8ece9a29ee5b54600c5490612e31565b4211612e8a565b60008052600d602052427f81955a0a11e65eac625c29e8882660bae4e165a75d72780094acae8ece9a29ee556130ac565b6000805260056020526131669061315f857f05b8ccbb9d4d8fb16ea74ce3c29a41f1b461fbdaff4714a0d9a8eb05499746bc5b54612e31565b1115612e3e565b38613085565b5060008052601260205261319f7f7e7fa33969761a458e04f477e039a608702b4f924981d6653935a8319a08ad7b612f3e565b612f4c565b61069b9161360a565b506001612ef6565b91906001600160a01b03808416159081156133ea575b506133e15761069b926007546131e9612f13612f1b612f1384612cbc565b6001600160a01b038316600090815260126020526040902061320a90612f3e565b80156133ba575b1591826132e7575b5050600090613254575b8061322f575b506136e3565b601054919361324d92612f889083906001600160a01b0316876136e3565b9138613229565b6001600160a01b038216600090815260136020526040902061327590612f3e565b806132dc575b156132955750613290612fd0600e5485612ce3565b613223565b6001600160a01b03831660009081526013602052604090206132b690612f3e565b806132d1575b156132235750613290612fd0600f5485612ce3565b50600f5415156132bc565b50600e54151561327b565b6132f390861115612de5565b6001600160a01b038416600090815260136020526040902061331890611aa290612f3e565b613390575b506001600160a01b038216600090815260136020526040902061333f90612f3e565b61334b575b3880613219565b6001600160a01b0383166000908152600d60205260409020613370906130ee906130e4565b6001600160a01b0383166000908152600d60205260409020429055613344565b6133b49061315f866131598760018060a01b03166000526005602052604060002090565b3861331d565b506001600160a01b03841660009081526012602052604090206133dc90612f3e565b613211565b61069b926136e3565b9050811615386131cb565b613420907f000000000000000000000000000000000000000000000000000000000000000090612c9c565b6001600160401b0390818111613434571690565b6024906040519063e2ce941360e01b82526004820152fd5b825115801593906134aa576134a79160689160405194859260208401526001600160401b0360c01b9060c01b16604083015233604883015261349781518092602086860191016103d7565b81010360488101845201826111ae565b91565b50906040519160208301526001600160401b0360c01b9060c01b166040820152602881526134a781611145565b906080828203126103d2576135119060408051936134f485611145565b805185526020810151613506816124d7565b60208601520161284a565b604082015290565b61357660809492613592969461352d6125c0565b50602061353a86516137f5565b9501918251806135fb575b5061354f85612645565b925115159261355f610eb3612240565b602086015260408501526060840152151585830152565b6040518095819482936302637a4560e41b845260048401612886565b03917f00000000000000000000000000000000000000000000000000000000000000006001600160a01b03165af1908115610801576000916135d2575090565b610430915060803d6080116135f4575b6135ec81836111ae565b8101906134d7565b503d6135e2565b61360490613817565b38613545565b6001600160a01b0381169081613653575060075491808301809311612957576020600080516020613938833981519152916000946007555b8060075403600755604051908152a3565b6001600160a01b0381166000908152600560205260409020549392908185106136b157816020916136ab6000805160206139388339815191529460009798039160018060a01b03166000526005602052604060002090565b55613642565b60405163391434e360e21b81526001600160a01b03919091166004820152602481018590526044810191909152606490fd5b90916001600160a01b03808316928361376c5750816137459161371f61371a60008051602061393883398151915295600754612e31565b600755565b8516948561374a57506137358160075403600755565b6040519081529081906020820190565b0390a3565b6001600160a01b03166000908152600560205260409020818154019055613735565b6001600160a01b0381166000908152600560205260409020548381106137c6579183916137c06000805160206139388339815191529561374595039160018060a01b03166000526005602052604060002090565b5561371f565b60405163391434e360e21b81526001600160a01b03929092166004830152602482015260448101839052606490fd5b8034036137ff5790565b6040516304fb820960e51b8152346004820152602490fd5b60405163393f876560e21b81526001600160a01b037f0000000000000000000000000000000000000000000000000000000000000000811691602081600481865afa908115610801576000916138f8575b50169182156138e65760209160009160405190848201926323b872dd60e01b845233602484015260448301526064820152606481526138a681611193565b519082855af11561227b576000513d6138dd5750803b155b6138c55750565b60249060405190635274afe760e01b82526004820152fd5b600114156138be565b6040516329b99a9560e11b8152600490fd5b613911915060203d60201161082c5761081e81836111ae565b3861386856feefed6d3500546b29533b128a29e3a94d70788727f0507505ac12eaf2e578fd9cddf252ad1be2c89b69c2b068fc378daa952ba7f163c4a11628f55a4df523b3efa26469706673582212208a335092779af09b78c6e767ec4cdb869f7e5925b5217b1209302c25cebfcf5664736f6c6343000816003360c0601f6109c738819003918201601f19168301916001600160401b03831184841017610109578084926060946040528339810103126101045780516001600160a01b0391828216918290036101045761006760406100606020840161011f565b920161011f565b9180156100eb57600080546001600160a01b03198116831782556040519516907f8be0079c531659141344cd1fd0a4f28419497f9722a3daafe3b4186f6b6457e09080a360805260a052610893908161013482396080518181816101d40152818161075a015261078e015260a0518181816105760152818161073701526107f00152f35b604051631e4fbdf760e01b815260006004820152602490fd5b600080fd5b634e487b7160e01b600052604160045260246000fd5b51906001600160401b03821682036101045756fe60406080815260049081361015610020575b5050361561001e57600080fd5b005b600091823560e01c9081630a17b06b1461059a5781630fb5a6b4146105555781631916558714610447578163715018a6146103ed578163810ec23b146103ae57816386d1a69f1461029d5781638da5cb5b1461027557816396132521146102565781639852595c1461021e578163a3f8eace146101f8578163be9a6555146101b3578163efbe1c1c14610196578163f2fde38b1461010b575063fbccedae036100115734610107578160031936011261010757602090610100476100fb600154916100f68367ffffffffffffffff4216926105ef565b61077f565b6106e3565b9051908152f35b5080fd5b905034610192576020366003190112610192576101266105d4565b9061012f610831565b6001600160a01b0391821692831561017c57505082546001600160a01b0319811683178455167f8be0079c531659141344cd1fd0a4f28419497f9722a3daafe3b4186f6b6457e08380a380f35b51631e4fbdf760e01b8152908101849052602490fd5b8280fd5b505034610107578160031936011261010757602090610100610728565b5050346101075781600319360112610107576020905167ffffffffffffffff7f0000000000000000000000000000000000000000000000000000000000000000168152f35b505034610107576020366003190112610107576020906101006102196105d4565b6106f0565b5050346101075760203660031901126101075760209181906001600160a01b036102466105d4565b1681526002845220549051908152f35b5050346101075781600319360112610107576020906001549051908152f35b505034610107578160031936011261010757905490516001600160a01b039091168152602090f35b90503461019257826003193601126101925760015467ffffffffffffffff92906102db6102d4826100fb4288166100f683476105ef565b80926105ef565b6001557fda9d4e5f101b8b9b1c5b76d0c5a9f7923571acfc02376aa076b75a8c080c956b60208351838152a184546001600160a01b0316478211610391578580809381935af13d15610388573d93841161037557815193610346601f8201601f191660200186610612565b84523d85602086013e5b15610359578380f35b82511561036857825160208401fd5b5163d6bda27560e01b8152fd5b634e487b7160e01b855260418352602485fd5b60609350610350565b50604492914790519263cf47918160e01b84528301526024820152fd5b5050346101075780600319360112610107576103c86105d4565b6024359267ffffffffffffffff841684036103ea57506020926101009161064a565b80fd5b83346103ea57806003193601126103ea57610406610831565b80546001600160a01b03198116825581906001600160a01b03167f8be0079c531659141344cd1fd0a4f28419497f9722a3daafe3b4186f6b6457e08280a380f35b91905034610192576020366003190112610192576104636105d4565b9061046d826106f0565b60018060a01b0380931692838652600260205282862061048e8382546105ef565b9055837fc0e523490dd523c33b1878c9eb14ff46991e3f5b2cd33710918618f2a39cba1b60208551858152a285541690825190602082019263a9059cbb60e01b845260248301526044820152604481526080810181811067ffffffffffffffff8211176105425783525160209186919082865af1156105395783513d6105305750813b155b61051b578380f35b51635274afe760e01b81529182015260249150fd5b60011415610513565b513d84823e3d90fd5b634e487b7160e01b875260418652602487fd5b5050346101075781600319360112610107576020905167ffffffffffffffff7f0000000000000000000000000000000000000000000000000000000000000000168152f35b90503461019257602036600319011261019257359167ffffffffffffffff831683036103ea57506101006020926100f647600154906105ef565b600435906001600160a01b03821682036105ea57565b600080fd5b919082018092116105fc57565b634e487b7160e01b600052601160045260246000fd5b90601f8019910116810190811067ffffffffffffffff82111761063457604052565b634e487b7160e01b600052604160045260246000fd5b6040516370a0823160e01b81523060048201526001600160a01b03919091169190602081602481865afa9081156106d7576000916106a3575b506100f6906106a0936000526002602052604060002054906105ef565b90565b90506020813d6020116106cf575b816106be60209383610612565b810103126105ea57516106a0610683565b3d91506106b1565b6040513d6000823e3d90fd5b919082039182116105fc57565b6106a09061070867ffffffffffffffff42168261064a565b6001600160a01b03909116600090815260026020526040902054906106e3565b6106a067ffffffffffffffff807f000000000000000000000000000000000000000000000000000000000000000016907f0000000000000000000000000000000000000000000000000000000000000000166105ef565b9067ffffffffffffffff9081167f00000000000000000000000000000000000000000000000000000000000000008216808210156107c05750505050600090565b6107c8610728565b82106107d45750505090565b6107dd916106e3565b918281029281840414901517156105fc577f00000000000000000000000000000000000000000000000000000000000000001690811561081b570490565b634e487b7160e01b600052601260045260246000fd5b6000546001600160a01b0316330361084557565b60405163118cdaa760e01b8152336004820152602490fdfea2646970667358221220469521522d7cf0eb5e65299a900f534606811e437b13b6893e17827512095ebe64736f6c63430008160033f3f7a9fe364faab93b216da50a3214154f22a0a2b415b23a84c8169e8b636ee36e1540171b6c0c960b71a7020d9f60077f6af931a8bbf590da0223dacf75c7af",
  "devdoc": {
    "errors": {
      "ERC20InsufficientAllowance(address,uint256,uint256)": [
        {
          "details": "Indicates a failure with the `spender`s `allowance`. Used in transfers.",
          "params": {
            "allowance": "Amount of tokens a `spender` is allowed to operate with.",
            "needed": "Minimum amount required to perform a transfer.",
            "spender": "Address that may be allowed to operate on tokens without being their owner."
          }
        }
      ],
      "ERC20InsufficientBalance(address,uint256,uint256)": [
        {
          "details": "Indicates an error related to the current `balance` of a `sender`. Used in transfers.",
          "params": {
            "balance": "Current balance for the interacting account.",
            "needed": "Minimum amount required to perform a transfer.",
            "sender": "Address whose tokens are being transferred."
          }
        }
      ],
      "ERC20InvalidApprover(address)": [
        {
          "details": "Indicates a failure with the `approver` of a token to be approved. Used in approvals.",
          "params": {
            "approver": "Address initiating an approval operation."
          }
        }
      ],
      "ERC20InvalidReceiver(address)": [
        {
          "details": "Indicates a failure with the token `receiver`. Used in transfers.",
          "params": {
            "receiver": "Address to which tokens are being transferred."
          }
        }
      ],
      "ERC20InvalidSender(address)": [
        {
          "details": "Indicates a failure with the token `sender`. Used in transfers.",
          "params": {
            "sender": "Address whose tokens are being transferred."
          }
        }
      ],
      "ERC20InvalidSpender(address)": [
        {
          "details": "Indicates a failure with the `spender` to be approved. Used in approvals.",
          "params": {
            "spender": "Address that may be allowed to operate on tokens without being their owner."
          }
        }
      ],
      "OwnableInvalidOwner(address)": [
        {
          "details": "The owner is not a valid owner account. (eg. `address(0)`)"
        }
      ],
      "OwnableUnauthorizedAccount(address)": [
        {
          "details": "The caller account is not authorized to perform an operation."
        }
      ],
      "SafeERC20FailedOperation(address)": [
        {
          "details": "An operation with an ERC-20 token failed."
        }
      ]
    },
    "events": {
      "Approval(address,address,uint256)": {
        "details": "Emitted when the allowance of a `spender` for an `owner` is set by a call to {approve}. `value` is the new allowance."
      },
      "PreCrimeSet(address)": {
        "details": "Emitted when the preCrime contract address is set.",
        "params": {
          "preCrimeAddress": "The address of the preCrime contract."
        }
      },
      "Transfer(address,address,uint256)": {
        "details": "Emitted when `value` tokens are moved from one account (`from`) to another (`to`). Note that `value` may be zero."
      }
    },
    "kind": "dev",
    "methods": {
      "allowInitializePath((uint32,bytes32,uint64))": {
        "details": "This indicates to the endpoint that the OApp has enabled msgs for this particular path to be received.This defaults to assuming if a peer has been set, its initialized. Can be overridden by the OApp if there is other logic to determine this.",
        "params": {
          "origin": "The origin information containing the source endpoint and sender address."
        },
        "returns": {
          "_0": "Whether the path has been initialized."
        }
      },
      "allowance(address,address)": {
        "details": "Returns the remaining number of tokens that `spender` will be allowed to spend on behalf of `owner` through {transferFrom}. This is zero by default. This value changes when {approve} or {transferFrom} are called."
      },
      "approvalRequired()": {
        "details": "In the case of OFT where the contract IS the token, approval is NOT required.",
        "returns": {
          "_0": "requiresApproval Needs approval of the underlying token implementation."
        }
      },
      "approve(address,uint256)": {
        "details": "See {IERC20-approve}. NOTE: If `value` is the maximum `uint256`, the allowance is not updated on `transferFrom`. This is semantically equivalent to an infinite approval. Requirements: - `spender` cannot be the zero address."
      },
      "balanceOf(address)": {
        "details": "Returns the value of tokens owned by `account`."
      },
      "combineOptions(uint32,uint16,bytes)": {
        "details": "If there is an enforced lzReceive option: - {gasLimit: 200k, msg.value: 1 ether} AND a caller supplies a lzReceive option: {gasLimit: 100k, msg.value: 0.5 ether} - The resulting options will be {gasLimit: 300k, msg.value: 1.5 ether} when the message is executed on the remote lzReceive() function.This presence of duplicated options is handled off-chain in the verifier/executor.",
        "params": {
          "_eid": "The endpoint ID.",
          "_extraOptions": "Additional options passed by the caller.",
          "_msgType": "The OAPP message type."
        },
        "returns": {
          "_0": "options The combination of caller specified options AND enforced options."
        }
      },
      "decimals()": {
        "details": "Returns the number of decimals used to get its user representation. For example, if `decimals` equals `2`, a balance of `505` tokens should be displayed to a user as `5.05` (`505 / 10 ** 2`). Tokens usually opt for a value of 18, imitating the relationship between Ether and Wei. This is the default value returned by this function, unless it's overridden. NOTE: This information is only used for _display_ purposes: it in no way affects any of the arithmetic of the contract, including {IERC20-balanceOf} and {IERC20-transfer}."
      },
      "isComposeMsgSender((uint32,bytes32,uint64),bytes,address)": {
        "details": "_origin The origin information containing the source endpoint and sender address.  - srcEid: The source chain endpoint ID.  - sender: The sender address on the src chain.  - nonce: The nonce of the message._message The lzReceive payload.Applications can optionally choose to implement separate composeMsg senders that are NOT the bridging layer.The default sender IS the OAppReceiver implementer.",
        "params": {
          "_sender": "The sender address."
        },
        "returns": {
          "_0": "isSender Is a valid sender."
        }
      },
      "isPeer(uint32,bytes32)": {
        "details": "Check if the peer is considered 'trusted' by the OApp.Enables OAppPreCrimeSimulator to check whether a potential Inbound Packet is from a trusted source.",
        "params": {
          "_eid": "The endpoint ID to check.",
          "_peer": "The peer to check."
        },
        "returns": {
          "_0": "Whether the peer passed is considered 'trusted' by the OApp."
        }
      },
      "lzReceive((uint32,bytes32,uint64),bytes32,bytes,address,bytes)": {
        "details": "Entry point for receiving messages or packets from the endpoint.Entry point for receiving msg/packet from the LayerZero endpoint.",
        "params": {
          "_executor": "The address of the executor for the received message.",
          "_extraData": "Additional arbitrary data provided by the corresponding executor.",
          "_guid": "The unique identifier for the received LayerZero message.",
          "_message": "The payload of the received message.",
          "_origin": "The origin information containing the source endpoint and sender address.  - srcEid: The source chain endpoint ID.  - sender: The sender address on the src chain.  - nonce: The nonce of the message."
        }
      },
      "lzReceiveAndRevert(((uint32,bytes32,uint64),uint32,address,bytes32,uint256,address,bytes,bytes)[])": {
        "details": "Interface for pre-crime simulations. Always reverts at the end with the simulation results.WARNING: MUST revert at the end with the simulation results.Gives the preCrime implementation the ability to mock sending packets to the lzReceive function, WITHOUT actually executing them.",
        "params": {
          "_packets": "An array of InboundPacket objects representing received packets to be delivered."
        }
      },
      "lzReceiveSimulate((uint32,bytes32,uint64),bytes32,bytes,address,bytes)": {
        "details": "Is effectively an internal function because msg.sender must be address(this). Allows resetting the call stack for 'internal' calls.",
        "params": {
          "_executor": "The executor address for the packet.",
          "_extraData": "Additional data for the packet.",
          "_guid": "The unique identifier of the packet.",
          "_message": "The message payload of the packet.",
          "_origin": "The origin information containing the source endpoint and sender address.  - srcEid: The source chain endpoint ID.  - sender: The sender address on the src chain.  - nonce: The nonce of the message."
        }
      },
      "name()": {
        "details": "Returns the name of the token."
      },
      "nextNonce(uint32,bytes32)": {
        "details": "_srcEid The source endpoint ID._sender The sender address.The path nonce starts from 1. If 0 is returned it means that there is NO nonce ordered enforcement.Is required by the off-chain executor to determine the OApp expects msg execution is ordered.This is also enforced by the OApp.By default this is NOT enabled. ie. nextNonce is hardcoded to return 0.",
        "returns": {
          "nonce": "The next nonce."
        }
      },
      "oApp()": {
        "details": "Retrieves the address of the OApp contract.The simulator contract is the base contract for the OApp by default.If the simulator is a separate contract, override this function.",
        "returns": {
          "_0": "The address of the OApp contract."
        }
      },
      "oAppVersion()": {
        "returns": {
          "receiverVersion": "The version of the OAppReceiver.sol implementation.",
          "senderVersion": "The version of the OAppSender.sol implementation."
        }
      },
      "oftVersion()": {
        "details": "interfaceId: This specific interface ID is '0x02e49c2c'.version: Indicates a cross-chain compatible msg encoding with other OFTs.If a new feature is added to the OFT cross-chain msg encoding, the version will be incremented. ie. localOFT version(x,1) CAN send messages to remoteOFT version(x,1)",
        "returns": {
          "interfaceId": "The interface ID.",
          "version": "The version."
        }
      },
      "owner()": {
        "details": "Returns the address of the current owner."
      },
      "quoteOFT((uint32,bytes32,uint256,uint256,bytes,bytes,bytes))": {
        "params": {
          "_sendParam": "The parameters for the send operation."
        },
        "returns": {
          "oftFeeDetails": "The details of OFT fees.",
          "oftLimit": "The OFT limit information.",
          "oftReceipt": "The OFT receipt information."
        }
      },
      "quoteSend((uint32,bytes32,uint256,uint256,bytes,bytes,bytes),bool)": {
        "details": "MessagingFee: LayerZero msg fee  - nativeFee: The native fee.  - lzTokenFee: The lzToken fee.",
        "params": {
          "_payInLzToken": "Flag indicating whether the caller is paying in the LZ token.",
          "_sendParam": "The parameters for the send() operation."
        },
        "returns": {
          "msgFee": "The calculated LayerZero messaging fee from the send() operation."
        }
      },
      "renounceOwnership()": {
        "details": "Leaves the contract without owner. It will not be possible to call `onlyOwner` functions. Can only be called by the current owner. NOTE: Renouncing ownership will leave the contract without an owner, thereby disabling any functionality that is only available to the owner."
      },
      "send((uint32,bytes32,uint256,uint256,bytes,bytes,bytes),(uint256,uint256),address)": {
        "details": "Executes the send operation.MessagingReceipt: LayerZero msg receipt  - guid: The unique identifier for the sent message.  - nonce: The nonce of the sent message.  - fee: The LayerZero fee incurred for the message.",
        "params": {
          "_fee": "The calculated fee for the send() operation.      - nativeFee: The native fee.      - lzTokenFee: The lzToken fee.",
          "_refundAddress": "The address to receive any excess funds.",
          "_sendParam": "The parameters for the send operation."
        },
        "returns": {
          "msgReceipt": "The receipt for the send operation.",
          "oftReceipt": "The OFT receipt information."
        }
      },
      "setDelegate(address)": {
        "details": "Only the owner/admin of the OApp can call this function.Provides the ability for a delegate to set configs, on behalf of the OApp, directly on the Endpoint contract.",
        "params": {
          "_delegate": "The address of the delegate to be set."
        }
      },
      "setEnforcedOptions((uint32,uint16,bytes)[])": {
        "details": "Sets the enforced options for specific endpoint and message type combinations.Only the owner/admin of the OApp can call this function.Provides a way for the OApp to enforce things like paying for PreCrime, AND/OR minimum dst lzReceive gas amounts etc.These enforced options can vary as the potential options/execution on the remote may differ as per the msgType. eg. Amount of lzReceive() gas necessary to deliver a lzCompose() message adds overhead you dont want to pay if you are only making a standard LayerZero message ie. lzReceive() WITHOUT sendCompose().",
        "params": {
          "_enforcedOptions": "An array of EnforcedOptionParam structures specifying enforced options."
        }
      },
      "setMsgInspector(address)": {
        "details": "Sets the message inspector address for the OFT.This is an optional contract that can be used to inspect both 'message' and 'options'.Set it to address(0) to disable it, or set it to a contract address to enable it.",
        "params": {
          "_msgInspector": "The address of the message inspector."
        }
      },
      "setPeer(uint32,bytes32)": {
        "details": "Only the owner/admin of the OApp can call this function.Indicates that the peer is trusted to send LayerZero messages to this OApp.Set this to bytes32(0) to remove the peer address.Peer is a bytes32 to accommodate non-evm chains.",
        "params": {
          "_eid": "The endpoint ID.",
          "_peer": "The address of the peer to be associated with the corresponding endpoint."
        }
      },
      "setPreCrime(address)": {
        "details": "Sets the preCrime contract address.",
        "params": {
          "_preCrime": "The address of the preCrime contract."
        }
      },
      "sharedDecimals()": {
        "details": "Retrieves the shared decimals of the OFT.Sets an implicit cap on the amount of tokens, over uint64.max() will need some sort of outbound cap / totalSupply cap Lowest common decimal denominator between chains. Defaults to 6 decimal places to provide up to 18,446,744,073,709.551615 units (max uint64). For tokens exceeding this totalSupply(), they will need to override the sharedDecimals function with something smaller. ie. 4 sharedDecimals would be 1,844,674,407,370,955.1615",
        "returns": {
          "_0": "The shared decimals of the OFT."
        }
      },
      "symbol()": {
        "details": "Returns the symbol of the token, usually a shorter version of the name."
      },
      "token()": {
        "details": "Retrieves the address of the underlying ERC20 implementation.In the case of OFT, address(this) and erc20 are the same contract.",
        "returns": {
          "_0": "The address of the OFT token."
        }
      },
      "totalSupply()": {
        "details": "Returns the value of tokens in existence."
      },
      "transfer(address,uint256)": {
        "details": "See {IERC20-transfer}. Requirements: - `to` cannot be the zero address. - the caller must have a balance of at least `value`."
      },
      "transferFrom(address,address,uint256)": {
        "details": "See {IERC20-transferFrom}. Skips emitting an {Approval} event indicating an allowance update. This is not required by the ERC. See {xref-ERC20-_approve-address-address-uint256-bool-}[_approve]. NOTE: Does not update the allowance if the current allowance is the maximum `uint256`. Requirements: - `from` and `to` cannot be the zero address. - `from` must have a balance of at least `value`. - the caller must have allowance for ``from``'s tokens of at least `value`."
      },
      "transferOwnership(address)": {
        "details": "Transfers ownership of the contract to a new account (`newOwner`). Can only be called by the current owner."
      }
    },
    "version": 1
  },
  "userdoc": {
    "kind": "user",
    "methods": {
      "allowInitializePath((uint32,bytes32,uint64))": {
        "notice": "Checks if the path initialization is allowed based on the provided origin."
      },
      "approvalRequired()": {
        "notice": "Indicates whether the OFT contract requires approval of the 'token()' to send."
      },
      "combineOptions(uint32,uint16,bytes)": {
        "notice": "Combines options for a given endpoint and message type."
      },
      "endpoint()": {
        "notice": "Retrieves the LayerZero endpoint associated with the OApp."
      },
      "isComposeMsgSender((uint32,bytes32,uint64),bytes,address)": {
        "notice": "Indicates whether an address is an approved composeMsg sender to the Endpoint."
      },
      "nextNonce(uint32,bytes32)": {
        "notice": "Retrieves the next nonce for a given source endpoint and sender address."
      },
      "oAppVersion()": {
        "notice": "Retrieves the OApp version information."
      },
      "oftVersion()": {
        "notice": "Retrieves interfaceID and the version of the OFT."
      },
      "peers(uint32)": {
        "notice": "Retrieves the peer (OApp) associated with a corresponding endpoint."
      },
      "quoteOFT((uint32,bytes32,uint256,uint256,bytes,bytes,bytes))": {
        "notice": "Provides the fee breakdown and settings data for an OFT. Unused in the default implementation."
      },
      "quoteSend((uint32,bytes32,uint256,uint256,bytes,bytes,bytes),bool)": {
        "notice": "Provides a quote for the send() operation."
      },
      "setDelegate(address)": {
        "notice": "Sets the delegate address for the OApp."
      },
      "setPeer(uint32,bytes32)": {
        "notice": "Sets the peer address (OApp instance) for a corresponding endpoint."
      }
    },
    "version": 1
  },
  "storageLayout": {
    "storage": [
      {
        "astId": 3861,
        "contract": "contracts/mocks/WancashMock.sol:WancashMock",
        "label": "_owner",
        "offset": 0,
        "slot": "0",
        "type": "t_address"
      },
      {
        "astId": 1390,
        "contract": "contracts/mocks/WancashMock.sol:WancashMock",
        "label": "peers",
        "offset": 0,
        "slot": "1",
        "type": "t_mapping(t_uint32,t_bytes32)"
      },
      {
        "astId": 2166,
        "contract": "contracts/mocks/WancashMock.sol:WancashMock",
        "label": "preCrime",
        "offset": 0,
        "slot": "2",
        "type": "t_address"
      },
      {
        "astId": 2006,
        "contract": "contracts/mocks/WancashMock.sol:WancashMock",
        "label": "enforcedOptions",
        "offset": 0,
        "slot": "3",
        "type": "t_mapping(t_uint32,t_mapping(t_uint16,t_bytes_storage))"
      },
      {
        "astId": 2786,
        "contract": "contracts/mocks/WancashMock.sol:WancashMock",
        "label": "msgInspector",
        "offset": 0,
        "slot": "4",
        "type": "t_address"
      },
      {
        "astId": 4561,
        "contract": "contracts/mocks/WancashMock.sol:WancashMock",
        "label": "_balances",
        "offset": 0,
        "slot": "5",
        "type": "t_mapping(t_address,t_uint256)"
      },
      {
        "astId": 4567,
        "contract": "contracts/mocks/WancashMock.sol:WancashMock",
        "label": "_allowances",
        "offset": 0,
        "slot": "6",
        "type": "t_mapping(t_address,t_mapping(t_address,t_uint256))"
      },
      {
        "astId": 4569,
        "contract": "contracts/mocks/WancashMock.sol:WancashMock",
        "label": "_totalSupply",
        "offset": 0,
        "slot": "7",
        "type": "t_uint256"
      },
      {
        "astId": 4571,
        "contract": "contracts/mocks/WancashMock.sol:WancashMock",
        "label": "_name",
        "offset": 0,
        "slot": "8",
        "type": "t_string_storage"
      },
      {
        "astId": 4573,
        "contract": "contracts/mocks/WancashMock.sol:WancashMock",
        "label": "_symbol",
        "offset": 0,
        "slot": "9",
        "type": "t_string_storage"
      },
      {
        "astId": 7902,
        "contract": "contracts/mocks/WancashMock.sol:WancashMock",
        "label": "maxTxAmount",
        "offset": 0,
        "slot": "10",
        "type": "t_uint256"
      },
      {
        "astId": 7904,
        "contract": "contracts/mocks/WancashMock.sol:WancashMock",
        "label": "maxWalletAmount",
        "offset": 0,
        "slot": "11",
        "type": "t_uint256"
      },
      {
        "astId": 7907,
        "contract": "contracts/mocks/WancashMock.sol:WancashMock",
        "label": "antiBotDuration",
        "offset": 0,
        "slot": "12",
        "type": "t_uint256"
      },
      {
        "astId": 7911,
        "contract": "contracts/mocks/WancashMock.sol:WancashMock",
        "label": "_lastBuyTime",
        "offset": 0,
        "slot": "13",
        "type": "t_mapping(t_address,t_uint256)"
      },
      {
        "astId": 7914,
        "contract": "contracts/mocks/WancashMock.sol:WancashMock",
        "label": "buyTax",
        "offset": 0,
        "slot": "14",
        "type": "t_uint256"
      },
      {
        "astId": 7917,
        "contract": "contracts/mocks/WancashMock.sol:WancashMock",
        "label": "sellTax",
        "offset": 0,
        "slot": "15",
        "type": "t_uint256"
      },
      {
        "astId": 7919,
        "contract": "contracts/mocks/WancashMock.sol:WancashMock",
        "label": "treasuryAddress",
        "offset": 0,
        "slot": "16",
        "type": "t_address"
      },
      {
        "astId": 7921,
        "contract": "contracts/mocks/WancashMock.sol:WancashMock",
        "label": "vestingWallet",
        "offset": 0,
        "slot": "17",
        "type": "t_address"
      },
      {
        "astId": 7925,
        "contract": "contracts/mocks/WancashMock.sol:WancashMock",
        "label": "_isExcludedFromFee",
        "offset": 0,
        "slot": "18",
        "type": "t_mapping(t_address,t_bool)"
      },
      {
        "astId": 7929,
        "contract": "contracts/mocks/WancashMock.sol:WancashMock",
        "label": "automatedMarketMakerPairs",
        "offset": 0,
        "slot": "19",
        "type": "t_mapping(t_address,t_bool)"
      }
    ],
    "types": {
      "t_address": {
        "encoding": "inplace",
        "label": "address",
        "numberOfBytes": "20"
      },
      "t_bool": {
        "encoding": "inplace",
        "label": "bool",
        "numberOfBytes": "1"
      },
      "t_bytes32": {
        "encoding": "inplace",
        "label": "bytes32",
        "numberOfBytes": "32"
      },
      "t_bytes_storage": {
        "encoding": "bytes",
        "label": "bytes",
        "numberOfBytes": "32"
      },
      "t_mapping(t_address,t_bool)": {
        "encoding": "mapping",
        "key": "t_address",
        "label": "mapping(address => bool)",
        "numberOfBytes": "32",
        "value": "t_bool"
      },
      "t_mapping(t_address,t_mapping(t_address,t_uint256))": {
        "encoding": "mapping",
        "key": "t_address",
        "label": "mapping(address => mapping(address => uint256))",
        "numberOfBytes": "32",
        "value": "t_mapping(t_address,t_uint256)"
      },
      "t_mapping(t_address,t_uint256)": {
        "encoding": "mapping",
        "key": "t_address",
        "label": "mapping(address => uint256)",
        "numberOfBytes": "32",
        "value": "t_uint256"
      },
      "t_mapping(t_uint16,t_bytes_storage)": {
        "encoding": "mapping",
        "key": "t_uint16",
        "label": "mapping(uint16 => bytes)",
        "numberOfBytes": "32",
        "value": "t_bytes_storage"
      },
      "t_mapping(t_uint32,t_bytes32)": {
        "encoding": "mapping",
        "key": "t_uint32",
        "label": "mapping(uint32 => bytes32)",
        "numberOfBytes": "32",
        "value": "t_bytes32"
      },
      "t_mapping(t_uint32,t_mapping(t_uint16,t_bytes_storage))": {
        "encoding": "mapping",
        "key": "t_uint32",
        "label": "mapping(uint32 => mapping(uint16 => bytes))",
        "numberOfBytes": "32",
        "value": "t_mapping(t_uint16,t_bytes_storage)"
      },
      "t_string_storage": {
        "encoding": "bytes",
        "label": "string",
        "numberOfBytes": "32"
      },
      "t_uint16": {
        "encoding": "inplace",
        "label": "uint16",
        "numberOfBytes": "2"
      },
      "t_uint256": {
        "encoding": "inplace",
        "label": "uint256",
        "numberOfBytes": "32"
      },
      "t_uint32": {
        "encoding": "inplace",
        "label": "uint32",
        "numberOfBytes": "4"
      }
    }
  }
}